{
  "_format": "hh-sol-artifact-1",
  "contractName": "Product",
  "sourceName": "contracts/Product.sol",
  "abi": [
    {
      "inputs": [
        {
          "internalType": "address",
          "name": "_addr",
          "type": "address"
        },
        {
          "internalType": "string",
          "name": "_productId",
          "type": "string"
        },
        {
          "internalType": "bool",
          "name": "approved",
          "type": "bool"
        }
      ],
      "name": "checkQualityRice",
      "outputs": [],
      "stateMutability": "nonpayable",
      "type": "function"
    },
    {
      "inputs": [],
      "name": "getAllPaddy",
      "outputs": [
        {
          "components": [
            {
              "internalType": "string",
              "name": "upc",
              "type": "string"
            },
            {
              "internalType": "address",
              "name": "ownerID",
              "type": "address"
            },
            {
              "internalType": "address",
              "name": "originFarmerID",
              "type": "address"
            },
            {
              "internalType": "address",
              "name": "manufacturerID",
              "type": "address"
            },
            {
              "internalType": "string",
              "name": "originFarmName",
              "type": "string"
            },
            {
              "internalType": "string",
              "name": "originFarmLatitude",
              "type": "string"
            },
            {
              "internalType": "string",
              "name": "originFarmLongitude",
              "type": "string"
            },
            {
              "internalType": "string",
              "name": "variety",
              "type": "string"
            },
            {
              "internalType": "uint256",
              "name": "harvestedWeight",
              "type": "uint256"
            },
            {
              "internalType": "string",
              "name": "state",
              "type": "string"
            }
          ],
          "internalType": "struct Product.Paddy[]",
          "name": "",
          "type": "tuple[]"
        }
      ],
      "stateMutability": "view",
      "type": "function"
    },
    {
      "inputs": [],
      "name": "getAllRice",
      "outputs": [
        {
          "components": [
            {
              "components": [
                {
                  "internalType": "string",
                  "name": "upc",
                  "type": "string"
                },
                {
                  "internalType": "address",
                  "name": "ownerID",
                  "type": "address"
                },
                {
                  "internalType": "address",
                  "name": "originFarmerID",
                  "type": "address"
                },
                {
                  "internalType": "address",
                  "name": "manufacturerID",
                  "type": "address"
                },
                {
                  "internalType": "string",
                  "name": "originFarmName",
                  "type": "string"
                },
                {
                  "internalType": "string",
                  "name": "originFarmLatitude",
                  "type": "string"
                },
                {
                  "internalType": "string",
                  "name": "originFarmLongitude",
                  "type": "string"
                },
                {
                  "internalType": "string",
                  "name": "variety",
                  "type": "string"
                },
                {
                  "internalType": "uint256",
                  "name": "harvestedWeight",
                  "type": "uint256"
                },
                {
                  "internalType": "string",
                  "name": "state",
                  "type": "string"
                }
              ],
              "internalType": "struct Product.Paddy",
              "name": "farmDetails",
              "type": "tuple"
            },
            {
              "internalType": "string",
              "name": "productID",
              "type": "string"
            },
            {
              "internalType": "string",
              "name": "productName",
              "type": "string"
            },
            {
              "internalType": "uint256",
              "name": "productPrice",
              "type": "uint256"
            },
            {
              "internalType": "uint256",
              "name": "productWeight",
              "type": "uint256"
            },
            {
              "internalType": "bool",
              "name": "qualityApproved",
              "type": "bool"
            },
            {
              "internalType": "enum Product.RicePacketState",
              "name": "itemState",
              "type": "uint8"
            },
            {
              "internalType": "address",
              "name": "ownerID",
              "type": "address"
            },
            {
              "internalType": "address",
              "name": "manufacturerID",
              "type": "address"
            },
            {
              "internalType": "address",
              "name": "qualityCheckerID",
              "type": "address"
            },
            {
              "internalType": "address",
              "name": "distributorID",
              "type": "address"
            },
            {
              "internalType": "address",
              "name": "retailerID",
              "type": "address"
            },
            {
              "internalType": "address",
              "name": "consumerID",
              "type": "address"
            }
          ],
          "internalType": "struct Product.Rice[]",
          "name": "",
          "type": "tuple[]"
        }
      ],
      "stateMutability": "view",
      "type": "function"
    },
    {
      "inputs": [
        {
          "internalType": "string",
          "name": "_productId",
          "type": "string"
        }
      ],
      "name": "getRiceDetail",
      "outputs": [
        {
          "components": [
            {
              "components": [
                {
                  "internalType": "string",
                  "name": "upc",
                  "type": "string"
                },
                {
                  "internalType": "address",
                  "name": "ownerID",
                  "type": "address"
                },
                {
                  "internalType": "address",
                  "name": "originFarmerID",
                  "type": "address"
                },
                {
                  "internalType": "address",
                  "name": "manufacturerID",
                  "type": "address"
                },
                {
                  "internalType": "string",
                  "name": "originFarmName",
                  "type": "string"
                },
                {
                  "internalType": "string",
                  "name": "originFarmLatitude",
                  "type": "string"
                },
                {
                  "internalType": "string",
                  "name": "originFarmLongitude",
                  "type": "string"
                },
                {
                  "internalType": "string",
                  "name": "variety",
                  "type": "string"
                },
                {
                  "internalType": "uint256",
                  "name": "harvestedWeight",
                  "type": "uint256"
                },
                {
                  "internalType": "string",
                  "name": "state",
                  "type": "string"
                }
              ],
              "internalType": "struct Product.Paddy",
              "name": "farmDetails",
              "type": "tuple"
            },
            {
              "internalType": "string",
              "name": "productID",
              "type": "string"
            },
            {
              "internalType": "string",
              "name": "productName",
              "type": "string"
            },
            {
              "internalType": "uint256",
              "name": "productPrice",
              "type": "uint256"
            },
            {
              "internalType": "uint256",
              "name": "productWeight",
              "type": "uint256"
            },
            {
              "internalType": "bool",
              "name": "qualityApproved",
              "type": "bool"
            },
            {
              "internalType": "enum Product.RicePacketState",
              "name": "itemState",
              "type": "uint8"
            },
            {
              "internalType": "address",
              "name": "ownerID",
              "type": "address"
            },
            {
              "internalType": "address",
              "name": "manufacturerID",
              "type": "address"
            },
            {
              "internalType": "address",
              "name": "qualityCheckerID",
              "type": "address"
            },
            {
              "internalType": "address",
              "name": "distributorID",
              "type": "address"
            },
            {
              "internalType": "address",
              "name": "retailerID",
              "type": "address"
            },
            {
              "internalType": "address",
              "name": "consumerID",
              "type": "address"
            }
          ],
          "internalType": "struct Product.Rice",
          "name": "",
          "type": "tuple"
        }
      ],
      "stateMutability": "view",
      "type": "function"
    },
    {
      "inputs": [
        {
          "internalType": "string",
          "name": "_upc",
          "type": "string"
        },
        {
          "internalType": "address",
          "name": "_addr",
          "type": "address"
        },
        {
          "internalType": "string",
          "name": "_farmerName",
          "type": "string"
        },
        {
          "internalType": "string",
          "name": "_farmLatitude",
          "type": "string"
        },
        {
          "internalType": "string",
          "name": "_farmLongitude",
          "type": "string"
        },
        {
          "internalType": "string",
          "name": "_variety",
          "type": "string"
        },
        {
          "internalType": "uint256",
          "name": "_harvestedWeight",
          "type": "uint256"
        }
      ],
      "name": "harvestPaddy",
      "outputs": [],
      "stateMutability": "nonpayable",
      "type": "function"
    },
    {
      "inputs": [
        {
          "internalType": "string",
          "name": "_upc",
          "type": "string"
        },
        {
          "internalType": "uint256",
          "name": "_weight",
          "type": "uint256"
        },
        {
          "internalType": "string",
          "name": "_productName",
          "type": "string"
        },
        {
          "internalType": "string",
          "name": "_productId",
          "type": "string"
        },
        {
          "internalType": "uint256",
          "name": "_productPrice",
          "type": "uint256"
        },
        {
          "internalType": "address",
          "name": "_addr",
          "type": "address"
        }
      ],
      "name": "packRice",
      "outputs": [],
      "stateMutability": "nonpayable",
      "type": "function"
    },
    {
      "inputs": [
        {
          "internalType": "string",
          "name": "_upc",
          "type": "string"
        }
      ],
      "name": "processPaddy",
      "outputs": [],
      "stateMutability": "nonpayable",
      "type": "function"
    },
    {
      "inputs": [
        {
          "internalType": "address",
          "name": "_addr",
          "type": "address"
        },
        {
          "internalType": "string",
          "name": "_upc",
          "type": "string"
        }
      ],
      "name": "receivedByManufacturer",
      "outputs": [],
      "stateMutability": "nonpayable",
      "type": "function"
    },
    {
      "inputs": [
        {
          "internalType": "string",
          "name": "_upc",
          "type": "string"
        },
        {
          "internalType": "address",
          "name": "_addr",
          "type": "address"
        }
      ],
      "name": "shipToManufacturer",
      "outputs": [],
      "stateMutability": "nonpayable",
      "type": "function"
    }
  ],
  "bytecode": "0x608060405234801561001057600080fd5b506133a9806100206000396000f3fe608060405234801561001057600080fd5b50600436106100935760003560e01c806380df605b1161006657806380df605b1461010a578063a2f8b95b14610126578063a811461e14610144578063e608d14114610160578063ef254e211461019057610093565b80630249e5881461009857806309bd9f1c146100b45780630fcd0903146100d057806359a477c3146100ec575b600080fd5b6100b260048036038101906100ad919061232d565b6101ac565b005b6100ce60048036038101906100c9919061240a565b610213565b005b6100ea60048036038101906100e59190612538565b6103a3565b005b6100f461046b565b60405161010191906129a9565b60405180910390f35b610124600480360381019061011f91906129cb565b610d79565b005b61012e611113565b60405161013b9190612b6e565b60405180910390f35b61015e60048036038101906101599190612bbc565b61167a565b005b61017a6004803603810190610175919061232d565b611718565b6040516101879190612d52565b60405180910390f35b6101aa60048036038101906101a59190612d74565b611f70565b005b6040518060400160405280600981526020017f50726f63657373656400000000000000000000000000000000000000000000008152506000826040516101f29190612e0c565b9081526020016040518091039020600901908161020f919061302f565b5050565b600080886040516102249190612e0c565b9081526020016040518091039020905087816000019081610245919061302f565b50868160010160006101000a81548173ffffffffffffffffffffffffffffffffffffffff021916908373ffffffffffffffffffffffffffffffffffffffff160217905550868160020160006101000a81548173ffffffffffffffffffffffffffffffffffffffff021916908373ffffffffffffffffffffffffffffffffffffffff160217905550858160040190816102dd919061302f565b50848160050190816102ef919061302f565b5083816006019081610301919061302f565b5082816007019081610313919061302f565b508181600801819055506040518060400160405280600981526020017f4861727665737465640000000000000000000000000000000000000000000000815250816009019081610363919061302f565b50600188908060018154018082558091505060019003906000526020600020016000909190919091509081610398919061302f565b505050505050505050565b6040518060400160405280601581526020017f53686970706564546f4d616e75666163747572657200000000000000000000008152506000836040516103e99190612e0c565b90815260200160405180910390206009019081610406919061302f565b50806000836040516104189190612e0c565b908152602001604051809103902060030160006101000a81548173ffffffffffffffffffffffffffffffffffffffff021916908373ffffffffffffffffffffffffffffffffffffffff1602179055505050565b6060600060038054905067ffffffffffffffff81111561048e5761048d612202565b5b6040519080825280602002602001820160405280156104c757816020015b6104b4612038565b8152602001906001900390816104ac5790505b50905060005b600380549050811015610d71576002600382815481106104f0576104ef613101565b5b9060005260206000200160405161050791906131b3565b9081526020016040518091039020604051806101a0016040529081600082016040518061014001604052908160008201805461054290612e52565b80601f016020809104026020016040519081016040528092919081815260200182805461056e90612e52565b80156105bb5780601f10610590576101008083540402835291602001916105bb565b820191906000526020600020905b81548152906001019060200180831161059e57829003601f168201915b505050505081526020016001820160009054906101000a900473ffffffffffffffffffffffffffffffffffffffff1673ffffffffffffffffffffffffffffffffffffffff1673ffffffffffffffffffffffffffffffffffffffff1681526020016002820160009054906101000a900473ffffffffffffffffffffffffffffffffffffffff1673ffffffffffffffffffffffffffffffffffffffff1673ffffffffffffffffffffffffffffffffffffffff1681526020016003820160009054906101000a900473ffffffffffffffffffffffffffffffffffffffff1673ffffffffffffffffffffffffffffffffffffffff1673ffffffffffffffffffffffffffffffffffffffff1681526020016004820180546106d690612e52565b80601f016020809104026020016040519081016040528092919081815260200182805461070290612e52565b801561074f5780601f106107245761010080835404028352916020019161074f565b820191906000526020600020905b81548152906001019060200180831161073257829003601f168201915b5050505050815260200160058201805461076890612e52565b80601f016020809104026020016040519081016040528092919081815260200182805461079490612e52565b80156107e15780601f106107b6576101008083540402835291602001916107e1565b820191906000526020600020905b8154815290600101906020018083116107c457829003601f168201915b505050505081526020016006820180546107fa90612e52565b80601f016020809104026020016040519081016040528092919081815260200182805461082690612e52565b80156108735780601f1061084857610100808354040283529160200191610873565b820191906000526020600020905b81548152906001019060200180831161085657829003601f168201915b5050505050815260200160078201805461088c90612e52565b80601f01602080910402602001604051908101604052809291908181526020018280546108b890612e52565b80156109055780601f106108da57610100808354040283529160200191610905565b820191906000526020600020905b8154815290600101906020018083116108e857829003601f168201915b505050505081526020016008820154815260200160098201805461092890612e52565b80601f016020809104026020016040519081016040528092919081815260200182805461095490612e52565b80156109a15780601f10610976576101008083540402835291602001916109a1565b820191906000526020600020905b81548152906001019060200180831161098457829003601f168201915b5050505050815250508152602001600a820180546109be90612e52565b80601f01602080910402602001604051908101604052809291908181526020018280546109ea90612e52565b8015610a375780601f10610a0c57610100808354040283529160200191610a37565b820191906000526020600020905b815481529060010190602001808311610a1a57829003601f168201915b50505050508152602001600b82018054610a5090612e52565b80601f0160208091040260200160405190810160405280929190818152602001828054610a7c90612e52565b8015610ac95780601f10610a9e57610100808354040283529160200191610ac9565b820191906000526020600020905b815481529060010190602001808311610aac57829003601f168201915b50505050508152602001600c8201548152602001600d8201548152602001600e820160009054906101000a900460ff16151515158152602001600e820160019054906101000a900460ff166006811115610b2657610b25612775565b5b6006811115610b3857610b37612775565b5b8152602001600e820160029054906101000a900473ffffffffffffffffffffffffffffffffffffffff1673ffffffffffffffffffffffffffffffffffffffff1673ffffffffffffffffffffffffffffffffffffffff168152602001600f820160009054906101000a900473ffffffffffffffffffffffffffffffffffffffff1673ffffffffffffffffffffffffffffffffffffffff1673ffffffffffffffffffffffffffffffffffffffff1681526020016010820160009054906101000a900473ffffffffffffffffffffffffffffffffffffffff1673ffffffffffffffffffffffffffffffffffffffff1673ffffffffffffffffffffffffffffffffffffffff1681526020016011820160009054906101000a900473ffffffffffffffffffffffffffffffffffffffff1673ffffffffffffffffffffffffffffffffffffffff1673ffffffffffffffffffffffffffffffffffffffff1681526020016012820160009054906101000a900473ffffffffffffffffffffffffffffffffffffffff1673ffffffffffffffffffffffffffffffffffffffff1673ffffffffffffffffffffffffffffffffffffffff1681526020016013820160009054906101000a900473ffffffffffffffffffffffffffffffffffffffff1673ffffffffffffffffffffffffffffffffffffffff1673ffffffffffffffffffffffffffffffffffffffff1681525050828281518110610d5357610d52613101565b5b60200260200101819052508080610d69906131f9565b9150506104cd565b508091505090565b6000600284604051610d8b9190612e0c565b90815260200160405180910390209050600087604051610dab9190612e0c565b90815260200160405180910390208160000160008201816000019081610dd19190613257565b506001820160009054906101000a900473ffffffffffffffffffffffffffffffffffffffff168160010160006101000a81548173ffffffffffffffffffffffffffffffffffffffff021916908373ffffffffffffffffffffffffffffffffffffffff1602179055506002820160009054906101000a900473ffffffffffffffffffffffffffffffffffffffff168160020160006101000a81548173ffffffffffffffffffffffffffffffffffffffff021916908373ffffffffffffffffffffffffffffffffffffffff1602179055506003820160009054906101000a900473ffffffffffffffffffffffffffffffffffffffff168160030160006101000a81548173ffffffffffffffffffffffffffffffffffffffff021916908373ffffffffffffffffffffffffffffffffffffffff16021790555060048201816004019081610f1b9190613257565b5060058201816005019081610f309190613257565b5060068201816006019081610f459190613257565b5060078201816007019081610f5a9190613257565b506008820154816008015560098201816009019081610f799190613257565b509050508381600a019081610f8e919061302f565b508481600b019081610fa0919061302f565b508281600c01819055508581600d0181905550600081600e0160006101000a81548160ff021916908315150217905550600081600e0160016101000a81548160ff02191690836006811115610ff857610ff7612775565b5b02179055508181600f0160006101000a81548173ffffffffffffffffffffffffffffffffffffffff021916908373ffffffffffffffffffffffffffffffffffffffff1602179055508181600e0160026101000a81548173ffffffffffffffffffffffffffffffffffffffff021916908373ffffffffffffffffffffffffffffffffffffffff160217905550856000886040516110949190612e0c565b9081526020016040518091039020600801546110b0919061333f565b6000886040516110c09190612e0c565b908152602001604051809103902060080181905550600384908060018154018082558091505060019003906000526020600020016000909190919091509081611109919061302f565b5050505050505050565b6060600060018054905067ffffffffffffffff81111561113657611135612202565b5b60405190808252806020026020018201604052801561116f57816020015b61115c61213e565b8152602001906001900390816111545790505b50905060005b6001805490508110156116725760006001828154811061119857611197613101565b5b906000526020600020016040516111af91906131b3565b9081526020016040518091039020604051806101400160405290816000820180546111d990612e52565b80601f016020809104026020016040519081016040528092919081815260200182805461120590612e52565b80156112525780601f1061122757610100808354040283529160200191611252565b820191906000526020600020905b81548152906001019060200180831161123557829003601f168201915b505050505081526020016001820160009054906101000a900473ffffffffffffffffffffffffffffffffffffffff1673ffffffffffffffffffffffffffffffffffffffff1673ffffffffffffffffffffffffffffffffffffffff1681526020016002820160009054906101000a900473ffffffffffffffffffffffffffffffffffffffff1673ffffffffffffffffffffffffffffffffffffffff1673ffffffffffffffffffffffffffffffffffffffff1681526020016003820160009054906101000a900473ffffffffffffffffffffffffffffffffffffffff1673ffffffffffffffffffffffffffffffffffffffff1673ffffffffffffffffffffffffffffffffffffffff16815260200160048201805461136d90612e52565b80601f016020809104026020016040519081016040528092919081815260200182805461139990612e52565b80156113e65780601f106113bb576101008083540402835291602001916113e6565b820191906000526020600020905b8154815290600101906020018083116113c957829003601f168201915b505050505081526020016005820180546113ff90612e52565b80601f016020809104026020016040519081016040528092919081815260200182805461142b90612e52565b80156114785780601f1061144d57610100808354040283529160200191611478565b820191906000526020600020905b81548152906001019060200180831161145b57829003601f168201915b5050505050815260200160068201805461149190612e52565b80601f01602080910402602001604051908101604052809291908181526020018280546114bd90612e52565b801561150a5780601f106114df5761010080835404028352916020019161150a565b820191906000526020600020905b8154815290600101906020018083116114ed57829003601f168201915b5050505050815260200160078201805461152390612e52565b80601f016020809104026020016040519081016040528092919081815260200182805461154f90612e52565b801561159c5780601f106115715761010080835404028352916020019161159c565b820191906000526020600020905b81548152906001019060200180831161157f57829003601f168201915b50505050508152602001600882015481526020016009820180546115bf90612e52565b80601f01602080910402602001604051908101604052809291908181526020018280546115eb90612e52565b80156116385780601f1061160d57610100808354040283529160200191611638565b820191906000526020600020905b81548152906001019060200180831161161b57829003601f168201915b50505050508152505082828151811061165457611653613101565b5b6020026020010181905250808061166a906131f9565b915050611175565b508091505090565b8060028360405161168b9190612e0c565b9081526020016040518091039020600e0160006101000a81548160ff021916908315150217905550826002836040516116c49190612e0c565b908152602001604051809103902060100160006101000a81548173ffffffffffffffffffffffffffffffffffffffff021916908373ffffffffffffffffffffffffffffffffffffffff160217905550505050565b611720612038565b6002826040516117309190612e0c565b9081526020016040518091039020604051806101a0016040529081600082016040518061014001604052908160008201805461176b90612e52565b80601f016020809104026020016040519081016040528092919081815260200182805461179790612e52565b80156117e45780601f106117b9576101008083540402835291602001916117e4565b820191906000526020600020905b8154815290600101906020018083116117c757829003601f168201915b505050505081526020016001820160009054906101000a900473ffffffffffffffffffffffffffffffffffffffff1673ffffffffffffffffffffffffffffffffffffffff1673ffffffffffffffffffffffffffffffffffffffff1681526020016002820160009054906101000a900473ffffffffffffffffffffffffffffffffffffffff1673ffffffffffffffffffffffffffffffffffffffff1673ffffffffffffffffffffffffffffffffffffffff1681526020016003820160009054906101000a900473ffffffffffffffffffffffffffffffffffffffff1673ffffffffffffffffffffffffffffffffffffffff1673ffffffffffffffffffffffffffffffffffffffff1681526020016004820180546118ff90612e52565b80601f016020809104026020016040519081016040528092919081815260200182805461192b90612e52565b80156119785780601f1061194d57610100808354040283529160200191611978565b820191906000526020600020905b81548152906001019060200180831161195b57829003601f168201915b5050505050815260200160058201805461199190612e52565b80601f01602080910402602001604051908101604052809291908181526020018280546119bd90612e52565b8015611a0a5780601f106119df57610100808354040283529160200191611a0a565b820191906000526020600020905b8154815290600101906020018083116119ed57829003601f168201915b50505050508152602001600682018054611a2390612e52565b80601f0160208091040260200160405190810160405280929190818152602001828054611a4f90612e52565b8015611a9c5780601f10611a7157610100808354040283529160200191611a9c565b820191906000526020600020905b815481529060010190602001808311611a7f57829003601f168201915b50505050508152602001600782018054611ab590612e52565b80601f0160208091040260200160405190810160405280929190818152602001828054611ae190612e52565b8015611b2e5780601f10611b0357610100808354040283529160200191611b2e565b820191906000526020600020905b815481529060010190602001808311611b1157829003601f168201915b5050505050815260200160088201548152602001600982018054611b5190612e52565b80601f0160208091040260200160405190810160405280929190818152602001828054611b7d90612e52565b8015611bca5780601f10611b9f57610100808354040283529160200191611bca565b820191906000526020600020905b815481529060010190602001808311611bad57829003601f168201915b5050505050815250508152602001600a82018054611be790612e52565b80601f0160208091040260200160405190810160405280929190818152602001828054611c1390612e52565b8015611c605780601f10611c3557610100808354040283529160200191611c60565b820191906000526020600020905b815481529060010190602001808311611c4357829003601f168201915b50505050508152602001600b82018054611c7990612e52565b80601f0160208091040260200160405190810160405280929190818152602001828054611ca590612e52565b8015611cf25780601f10611cc757610100808354040283529160200191611cf2565b820191906000526020600020905b815481529060010190602001808311611cd557829003601f168201915b50505050508152602001600c8201548152602001600d8201548152602001600e820160009054906101000a900460ff16151515158152602001600e820160019054906101000a900460ff166006811115611d4f57611d4e612775565b5b6006811115611d6157611d60612775565b5b8152602001600e820160029054906101000a900473ffffffffffffffffffffffffffffffffffffffff1673ffffffffffffffffffffffffffffffffffffffff1673ffffffffffffffffffffffffffffffffffffffff168152602001600f820160009054906101000a900473ffffffffffffffffffffffffffffffffffffffff1673ffffffffffffffffffffffffffffffffffffffff1673ffffffffffffffffffffffffffffffffffffffff1681526020016010820160009054906101000a900473ffffffffffffffffffffffffffffffffffffffff1673ffffffffffffffffffffffffffffffffffffffff1673ffffffffffffffffffffffffffffffffffffffff1681526020016011820160009054906101000a900473ffffffffffffffffffffffffffffffffffffffff1673ffffffffffffffffffffffffffffffffffffffff1673ffffffffffffffffffffffffffffffffffffffff1681526020016012820160009054906101000a900473ffffffffffffffffffffffffffffffffffffffff1673ffffffffffffffffffffffffffffffffffffffff1673ffffffffffffffffffffffffffffffffffffffff1681526020016013820160009054906101000a900473ffffffffffffffffffffffffffffffffffffffff1673ffffffffffffffffffffffffffffffffffffffff1673ffffffffffffffffffffffffffffffffffffffff16815250509050919050565b6040518060400160405280601681526020017f526563656976656442794d616e75666163747572657200000000000000000000815250600082604051611fb69190612e0c565b90815260200160405180910390206009019081611fd3919061302f565b5081600082604051611fe59190612e0c565b908152602001604051809103902060010160006101000a81548173ffffffffffffffffffffffffffffffffffffffff021916908373ffffffffffffffffffffffffffffffffffffffff1602179055505050565b604051806101a0016040528061204c61213e565b8152602001606081526020016060815260200160008152602001600081526020016000151581526020016000600681111561208a57612089612775565b5b8152602001600073ffffffffffffffffffffffffffffffffffffffff168152602001600073ffffffffffffffffffffffffffffffffffffffff168152602001600073ffffffffffffffffffffffffffffffffffffffff168152602001600073ffffffffffffffffffffffffffffffffffffffff168152602001600073ffffffffffffffffffffffffffffffffffffffff168152602001600073ffffffffffffffffffffffffffffffffffffffff1681525090565b60405180610140016040528060608152602001600073ffffffffffffffffffffffffffffffffffffffff168152602001600073ffffffffffffffffffffffffffffffffffffffff168152602001600073ffffffffffffffffffffffffffffffffffffffff1681526020016060815260200160608152602001606081526020016060815260200160008152602001606081525090565b6000604051905090565b600080fd5b600080fd5b600080fd5b600080fd5b6000601f19601f8301169050919050565b7f4e487b7100000000000000000000000000000000000000000000000000000000600052604160045260246000fd5b61223a826121f1565b810181811067ffffffffffffffff8211171561225957612258612202565b5b80604052505050565b600061226c6121d3565b90506122788282612231565b919050565b600067ffffffffffffffff82111561229857612297612202565b5b6122a1826121f1565b9050602081019050919050565b82818337600083830152505050565b60006122d06122cb8461227d565b612262565b9050828152602081018484840111156122ec576122eb6121ec565b5b6122f78482856122ae565b509392505050565b600082601f830112612314576123136121e7565b5b81356123248482602086016122bd565b91505092915050565b600060208284031215612343576123426121dd565b5b600082013567ffffffffffffffff811115612361576123606121e2565b5b61236d848285016122ff565b91505092915050565b600073ffffffffffffffffffffffffffffffffffffffff82169050919050565b60006123a182612376565b9050919050565b6123b181612396565b81146123bc57600080fd5b50565b6000813590506123ce816123a8565b92915050565b6000819050919050565b6123e7816123d4565b81146123f257600080fd5b50565b600081359050612404816123de565b92915050565b600080600080600080600060e0888a031215612429576124286121dd565b5b600088013567ffffffffffffffff811115612447576124466121e2565b5b6124538a828b016122ff565b97505060206124648a828b016123bf565b965050604088013567ffffffffffffffff811115612485576124846121e2565b5b6124918a828b016122ff565b955050606088013567ffffffffffffffff8111156124b2576124b16121e2565b5b6124be8a828b016122ff565b945050608088013567ffffffffffffffff8111156124df576124de6121e2565b5b6124eb8a828b016122ff565b93505060a088013567ffffffffffffffff81111561250c5761250b6121e2565b5b6125188a828b016122ff565b92505060c06125298a828b016123f5565b91505092959891949750929550565b6000806040838503121561254f5761254e6121dd565b5b600083013567ffffffffffffffff81111561256d5761256c6121e2565b5b612579858286016122ff565b925050602061258a858286016123bf565b9150509250929050565b600081519050919050565b600082825260208201905092915050565b6000819050602082019050919050565b600081519050919050565b600082825260208201905092915050565b60005b838110156125fa5780820151818401526020810190506125df565b60008484015250505050565b6000612611826125c0565b61261b81856125cb565b935061262b8185602086016125dc565b612634816121f1565b840191505092915050565b61264881612396565b82525050565b612657816123d4565b82525050565b600061014083016000830151848203600086015261267b8282612606565b9150506020830151612690602086018261263f565b5060408301516126a3604086018261263f565b5060608301516126b6606086018261263f565b50608083015184820360808601526126ce8282612606565b91505060a083015184820360a08601526126e88282612606565b91505060c083015184820360c08601526127028282612606565b91505060e083015184820360e086015261271c8282612606565b91505061010083015161273361010086018261264e565b5061012083015184820361012086015261274d8282612606565b9150508091505092915050565b60008115159050919050565b61276f8161275a565b82525050565b7f4e487b7100000000000000000000000000000000000000000000000000000000600052602160045260246000fd5b600781106127b5576127b4612775565b5b50565b60008190506127c6826127a4565b919050565b60006127d6826127b8565b9050919050565b6127e6816127cb565b82525050565b60006101a083016000830151848203600086015261280a828261265d565b915050602083015184820360208601526128248282612606565b9150506040830151848203604086015261283e8282612606565b9150506060830151612853606086018261264e565b506080830151612866608086018261264e565b5060a083015161287960a0860182612766565b5060c083015161288c60c08601826127dd565b5060e083015161289f60e086018261263f565b506101008301516128b461010086018261263f565b506101208301516128c961012086018261263f565b506101408301516128de61014086018261263f565b506101608301516128f361016086018261263f565b5061018083015161290861018086018261263f565b508091505092915050565b600061291f83836127ec565b905092915050565b6000602082019050919050565b600061293f82612594565b612949818561259f565b93508360208202850161295b856125b0565b8060005b8581101561299757848403895281516129788582612913565b945061298383612927565b925060208a0199505060018101905061295f565b50829750879550505050505092915050565b600060208201905081810360008301526129c38184612934565b905092915050565b60008060008060008060c087890312156129e8576129e76121dd565b5b600087013567ffffffffffffffff811115612a0657612a056121e2565b5b612a1289828a016122ff565b9650506020612a2389828a016123f5565b955050604087013567ffffffffffffffff811115612a4457612a436121e2565b5b612a5089828a016122ff565b945050606087013567ffffffffffffffff811115612a7157612a706121e2565b5b612a7d89828a016122ff565b9350506080612a8e89828a016123f5565b92505060a0612a9f89828a016123bf565b9150509295509295509295565b600081519050919050565b600082825260208201905092915050565b6000819050602082019050919050565b6000612ae4838361265d565b905092915050565b6000602082019050919050565b6000612b0482612aac565b612b0e8185612ab7565b935083602082028501612b2085612ac8565b8060005b85811015612b5c5784840389528151612b3d8582612ad8565b9450612b4883612aec565b925060208a01995050600181019050612b24565b50829750879550505050505092915050565b60006020820190508181036000830152612b888184612af9565b905092915050565b612b998161275a565b8114612ba457600080fd5b50565b600081359050612bb681612b90565b92915050565b600080600060608486031215612bd557612bd46121dd565b5b6000612be3868287016123bf565b935050602084013567ffffffffffffffff811115612c0457612c036121e2565b5b612c10868287016122ff565b9250506040612c2186828701612ba7565b9150509250925092565b60006101a0830160008301518482036000860152612c49828261265d565b91505060208301518482036020860152612c638282612606565b91505060408301518482036040860152612c7d8282612606565b9150506060830151612c92606086018261264e565b506080830151612ca5608086018261264e565b5060a0830151612cb860a0860182612766565b5060c0830151612ccb60c08601826127dd565b5060e0830151612cde60e086018261263f565b50610100830151612cf361010086018261263f565b50610120830151612d0861012086018261263f565b50610140830151612d1d61014086018261263f565b50610160830151612d3261016086018261263f565b50610180830151612d4761018086018261263f565b508091505092915050565b60006020820190508181036000830152612d6c8184612c2b565b905092915050565b60008060408385031215612d8b57612d8a6121dd565b5b6000612d99858286016123bf565b925050602083013567ffffffffffffffff811115612dba57612db96121e2565b5b612dc6858286016122ff565b9150509250929050565b600081905092915050565b6000612de6826125c0565b612df08185612dd0565b9350612e008185602086016125dc565b80840191505092915050565b6000612e188284612ddb565b915081905092915050565b7f4e487b7100000000000000000000000000000000000000000000000000000000600052602260045260246000fd5b60006002820490506001821680612e6a57607f821691505b602082108103612e7d57612e7c612e23565b5b50919050565b60008190508160005260206000209050919050565b60006020601f8301049050919050565b600082821b905092915050565b600060088302612ee57fffffffffffffffffffffffffffffffffffffffffffffffffffffffffffffffff82612ea8565b612eef8683612ea8565b95508019841693508086168417925050509392505050565b6000819050919050565b6000612f2c612f27612f22846123d4565b612f07565b6123d4565b9050919050565b6000819050919050565b612f4683612f11565b612f5a612f5282612f33565b848454612eb5565b825550505050565b600090565b612f6f612f62565b612f7a818484612f3d565b505050565b5b81811015612f9e57612f93600082612f67565b600181019050612f80565b5050565b601f821115612fe357612fb481612e83565b612fbd84612e98565b81016020851015612fcc578190505b612fe0612fd885612e98565b830182612f7f565b50505b505050565b600082821c905092915050565b600061300660001984600802612fe8565b1980831691505092915050565b600061301f8383612ff5565b9150826002028217905092915050565b613038826125c0565b67ffffffffffffffff81111561305157613050612202565b5b61305b8254612e52565b613066828285612fa2565b600060209050601f8311600181146130995760008415613087578287015190505b6130918582613013565b8655506130f9565b601f1984166130a786612e83565b60005b828110156130cf578489015182556001820191506020850194506020810190506130aa565b868310156130ec57848901516130e8601f891682612ff5565b8355505b6001600288020188555050505b505050505050565b7f4e487b7100000000000000000000000000000000000000000000000000000000600052603260045260246000fd5b6000815461313d81612e52565b6131478186612dd0565b945060018216600081146131625760018114613177576131aa565b60ff19831686528115158202860193506131aa565b61318085612e83565b60005b838110156131a257815481890152600182019150602081019050613183565b838801955050505b50505092915050565b60006131bf8284613130565b915081905092915050565b7f4e487b7100000000000000000000000000000000000000000000000000000000600052601160045260246000fd5b6000613204826123d4565b91507fffffffffffffffffffffffffffffffffffffffffffffffffffffffffffffffff8203613236576132356131ca565b5b600182019050919050565b60008154905061325081612e52565b9050919050565b81810361326557505061333d565b61326e82613241565b67ffffffffffffffff81111561328757613286612202565b5b6132918254612e52565b61329c828285612fa2565b6000601f8311600181146132cb57600084156132b9578287015490505b6132c38582613013565b865550613336565b601f1984166132d987612e83565b96506132e486612e83565b60005b8281101561330c578489015482556001820191506001850194506020810190506132e7565b868310156133295784890154613325601f891682612ff5565b8355505b6001600288020188555050505b5050505050505b565b600061334a826123d4565b9150613355836123d4565b925082820390508181111561336d5761336c6131ca565b5b9291505056fea26469706673582212209a504ee3c039058750796d17d8369f2ebe1f34fedcb0b0eb2c0537017609292d64736f6c63430008110033",
  "linkReferences": {},
  "deployedLinkReferences": {}
}