{
  "_format": "hh-sol-artifact-1",
  "contractName": "Product",
  "sourceName": "contracts/Product.sol",
  "abi": [
    {
      "inputs": [
        {
          "internalType": "address",
          "name": "_addr",
          "type": "address"
        },
        {
          "internalType": "uint256",
          "name": "_productId",
          "type": "uint256"
        },
        {
          "internalType": "bool",
          "name": "approved",
          "type": "bool"
        }
      ],
      "name": "checkQualityRice",
      "outputs": [],
      "stateMutability": "nonpayable",
      "type": "function"
    },
    {
      "inputs": [],
      "name": "getAllPaddy",
      "outputs": [
        {
          "components": [
            {
              "internalType": "string",
              "name": "upc",
              "type": "string"
            },
            {
              "internalType": "address",
              "name": "ownerID",
              "type": "address"
            },
            {
              "internalType": "address",
              "name": "originFarmerID",
              "type": "address"
            },
            {
              "internalType": "address",
              "name": "manufacturerID",
              "type": "address"
            },
            {
              "internalType": "string",
              "name": "originFarmName",
              "type": "string"
            },
            {
              "internalType": "string",
              "name": "originFarmLatitude",
              "type": "string"
            },
            {
              "internalType": "string",
              "name": "originFarmLongitude",
              "type": "string"
            },
            {
              "internalType": "string",
              "name": "variety",
              "type": "string"
            },
            {
              "internalType": "string",
              "name": "harvestedWeight",
              "type": "string"
            },
            {
              "internalType": "string",
              "name": "state",
              "type": "string"
            }
          ],
          "internalType": "struct Product.Paddy[]",
          "name": "",
          "type": "tuple[]"
        }
      ],
      "stateMutability": "view",
      "type": "function"
    },
    {
      "inputs": [
        {
          "internalType": "string",
          "name": "_upc",
          "type": "string"
        },
        {
          "internalType": "address",
          "name": "_addr",
          "type": "address"
        },
        {
          "internalType": "string",
          "name": "_farmerName",
          "type": "string"
        },
        {
          "internalType": "string",
          "name": "_farmLatitude",
          "type": "string"
        },
        {
          "internalType": "string",
          "name": "_farmLongitude",
          "type": "string"
        },
        {
          "internalType": "string",
          "name": "_variety",
          "type": "string"
        },
        {
          "internalType": "string",
          "name": "_harvestedWeight",
          "type": "string"
        }
      ],
      "name": "harvestPaddy",
      "outputs": [],
      "stateMutability": "nonpayable",
      "type": "function"
    },
    {
      "inputs": [
        {
          "internalType": "string",
          "name": "_upc",
          "type": "string"
        },
        {
          "internalType": "uint256",
          "name": "_weight",
          "type": "uint256"
        },
        {
          "internalType": "uint256",
          "name": "_productId",
          "type": "uint256"
        },
        {
          "internalType": "uint256",
          "name": "_productPrice",
          "type": "uint256"
        },
        {
          "internalType": "address",
          "name": "_addr",
          "type": "address"
        }
      ],
      "name": "packRice",
      "outputs": [],
      "stateMutability": "nonpayable",
      "type": "function"
    },
    {
      "inputs": [
        {
          "internalType": "string",
          "name": "_upc",
          "type": "string"
        }
      ],
      "name": "processPaddy",
      "outputs": [],
      "stateMutability": "nonpayable",
      "type": "function"
    },
    {
      "inputs": [
        {
          "internalType": "address",
          "name": "_addr",
          "type": "address"
        },
        {
          "internalType": "string",
          "name": "_upc",
          "type": "string"
        }
      ],
      "name": "receivedByManufacturer",
      "outputs": [],
      "stateMutability": "nonpayable",
      "type": "function"
    },
    {
      "inputs": [
        {
          "internalType": "string",
          "name": "_upc",
          "type": "string"
        },
        {
          "internalType": "address",
          "name": "_addr",
          "type": "address"
        }
      ],
      "name": "shipToManufacturer",
      "outputs": [],
      "stateMutability": "nonpayable",
      "type": "function"
    }
  ],
  "bytecode": "0x608060405234801561001057600080fd5b50611c66806100206000396000f3fe608060405234801561001057600080fd5b506004361061007d5760003560e01c80631f27e7e41161005b5780631f27e7e4146100d6578063334b50bc146100f2578063a2f8b95b1461010e578063ef254e211461012c5761007d565b80630249e588146100825780630fcd09031461009e5780631ad1d00e146100ba575b600080fd5b61009c6004803603810190610097919061101b565b610148565b005b6100b860048036038101906100b391906110c2565b6101af565b005b6100d460048036038101906100cf9190611154565b610277565b005b6100f060048036038101906100eb91906111eb565b610554565b005b61010c6004803603810190610107919061136d565b6106ed565b005b610116610775565b6040516101239190611614565b60405180910390f35b61014660048036038101906101419190611636565b610d64565b005b6040518060400160405280600981526020017f50726f636573736564000000000000000000000000000000000000000000000081525060008260405161018e91906116ce565b908152602001604051809103902060090190816101ab91906118f1565b5050565b6040518060400160405280601581526020017f53686970706564546f4d616e75666163747572657200000000000000000000008152506000836040516101f591906116ce565b9081526020016040518091039020600901908161021291906118f1565b508060008360405161022491906116ce565b908152602001604051809103902060030160006101000a81548173ffffffffffffffffffffffffffffffffffffffff021916908373ffffffffffffffffffffffffffffffffffffffff1602179055505050565b600060026000858152602001908152602001600020905060008660405161029e91906116ce565b908152602001604051809103902081600001600082018160000190816102c491906119d9565b506001820160009054906101000a900473ffffffffffffffffffffffffffffffffffffffff168160010160006101000a81548173ffffffffffffffffffffffffffffffffffffffff021916908373ffffffffffffffffffffffffffffffffffffffff1602179055506002820160009054906101000a900473ffffffffffffffffffffffffffffffffffffffff168160020160006101000a81548173ffffffffffffffffffffffffffffffffffffffff021916908373ffffffffffffffffffffffffffffffffffffffff1602179055506003820160009054906101000a900473ffffffffffffffffffffffffffffffffffffffff168160030160006101000a81548173ffffffffffffffffffffffffffffffffffffffff021916908373ffffffffffffffffffffffffffffffffffffffff1602179055506004820181600401908161040e91906119d9565b506005820181600501908161042391906119d9565b506006820181600601908161043891906119d9565b506007820181600701908161044d91906119d9565b506008820181600801908161046291906119d9565b506009820181600901908161047791906119d9565b509050508381600a01819055508281600b01819055508481600c0181905550600081600d0160006101000a81548160ff021916908315150217905550600081600d0160016101000a81548160ff021916908360068111156104db576104da611ac1565b5b02179055508181600d0160026101000a81548173ffffffffffffffffffffffffffffffffffffffff021916908373ffffffffffffffffffffffffffffffffffffffff1602179055506003849080600181540180825580915050600190039060005260206000200160009091909190915055505050505050565b6000808860405161056591906116ce565b908152602001604051809103902090508781600001908161058691906118f1565b50868160010160006101000a81548173ffffffffffffffffffffffffffffffffffffffff021916908373ffffffffffffffffffffffffffffffffffffffff160217905550868160020160006101000a81548173ffffffffffffffffffffffffffffffffffffffff021916908373ffffffffffffffffffffffffffffffffffffffff1602179055508581600401908161061e91906118f1565b508481600501908161063091906118f1565b508381600601908161064291906118f1565b508281600701908161065491906118f1565b508181600801908161066691906118f1565b506040518060400160405280600881526020017f48617265737465640000000000000000000000000000000000000000000000008152508160090190816106ad91906118f1565b506001889080600181540180825580915050600190039060005260206000200160009091909190915090816106e291906118f1565b505050505050505050565b8060026000848152602001908152602001600020600d0160006101000a81548160ff0219169083151502179055508260026000848152602001908152602001600020600e0160006101000a81548173ffffffffffffffffffffffffffffffffffffffff021916908373ffffffffffffffffffffffffffffffffffffffff160217905550505050565b6060600060018054905067ffffffffffffffff81111561079857610797610ef0565b5b6040519080825280602002602001820160405280156107d157816020015b6107be610e2c565b8152602001906001900390816107b65790505b50905060005b600180549050811015610d5c576000600182815481106107fa576107f9611af0565b5b906000526020600020016040516108119190611ba2565b90815260200160405180910390206040518061014001604052908160008201805461083b90611714565b80601f016020809104026020016040519081016040528092919081815260200182805461086790611714565b80156108b45780601f10610889576101008083540402835291602001916108b4565b820191906000526020600020905b81548152906001019060200180831161089757829003601f168201915b505050505081526020016001820160009054906101000a900473ffffffffffffffffffffffffffffffffffffffff1673ffffffffffffffffffffffffffffffffffffffff1673ffffffffffffffffffffffffffffffffffffffff1681526020016002820160009054906101000a900473ffffffffffffffffffffffffffffffffffffffff1673ffffffffffffffffffffffffffffffffffffffff1673ffffffffffffffffffffffffffffffffffffffff1681526020016003820160009054906101000a900473ffffffffffffffffffffffffffffffffffffffff1673ffffffffffffffffffffffffffffffffffffffff1673ffffffffffffffffffffffffffffffffffffffff1681526020016004820180546109cf90611714565b80601f01602080910402602001604051908101604052809291908181526020018280546109fb90611714565b8015610a485780601f10610a1d57610100808354040283529160200191610a48565b820191906000526020600020905b815481529060010190602001808311610a2b57829003601f168201915b50505050508152602001600582018054610a6190611714565b80601f0160208091040260200160405190810160405280929190818152602001828054610a8d90611714565b8015610ada5780601f10610aaf57610100808354040283529160200191610ada565b820191906000526020600020905b815481529060010190602001808311610abd57829003601f168201915b50505050508152602001600682018054610af390611714565b80601f0160208091040260200160405190810160405280929190818152602001828054610b1f90611714565b8015610b6c5780601f10610b4157610100808354040283529160200191610b6c565b820191906000526020600020905b815481529060010190602001808311610b4f57829003601f168201915b50505050508152602001600782018054610b8590611714565b80601f0160208091040260200160405190810160405280929190818152602001828054610bb190611714565b8015610bfe5780601f10610bd357610100808354040283529160200191610bfe565b820191906000526020600020905b815481529060010190602001808311610be157829003601f168201915b50505050508152602001600882018054610c1790611714565b80601f0160208091040260200160405190810160405280929190818152602001828054610c4390611714565b8015610c905780601f10610c6557610100808354040283529160200191610c90565b820191906000526020600020905b815481529060010190602001808311610c7357829003601f168201915b50505050508152602001600982018054610ca990611714565b80601f0160208091040260200160405190810160405280929190818152602001828054610cd590611714565b8015610d225780601f10610cf757610100808354040283529160200191610d22565b820191906000526020600020905b815481529060010190602001808311610d0557829003601f168201915b505050505081525050828281518110610d3e57610d3d611af0565b5b60200260200101819052508080610d5490611be8565b9150506107d7565b508091505090565b6040518060400160405280601681526020017f526563656976656442794d616e75666163747572657200000000000000000000815250600082604051610daa91906116ce565b90815260200160405180910390206009019081610dc791906118f1565b5081600082604051610dd991906116ce565b908152602001604051809103902060010160006101000a81548173ffffffffffffffffffffffffffffffffffffffff021916908373ffffffffffffffffffffffffffffffffffffffff1602179055505050565b60405180610140016040528060608152602001600073ffffffffffffffffffffffffffffffffffffffff168152602001600073ffffffffffffffffffffffffffffffffffffffff168152602001600073ffffffffffffffffffffffffffffffffffffffff1681526020016060815260200160608152602001606081526020016060815260200160608152602001606081525090565b6000604051905090565b600080fd5b600080fd5b600080fd5b600080fd5b6000601f19601f8301169050919050565b7f4e487b7100000000000000000000000000000000000000000000000000000000600052604160045260246000fd5b610f2882610edf565b810181811067ffffffffffffffff82111715610f4757610f46610ef0565b5b80604052505050565b6000610f5a610ec1565b9050610f668282610f1f565b919050565b600067ffffffffffffffff821115610f8657610f85610ef0565b5b610f8f82610edf565b9050602081019050919050565b82818337600083830152505050565b6000610fbe610fb984610f6b565b610f50565b905082815260208101848484011115610fda57610fd9610eda565b5b610fe5848285610f9c565b509392505050565b600082601f83011261100257611001610ed5565b5b8135611012848260208601610fab565b91505092915050565b60006020828403121561103157611030610ecb565b5b600082013567ffffffffffffffff81111561104f5761104e610ed0565b5b61105b84828501610fed565b91505092915050565b600073ffffffffffffffffffffffffffffffffffffffff82169050919050565b600061108f82611064565b9050919050565b61109f81611084565b81146110aa57600080fd5b50565b6000813590506110bc81611096565b92915050565b600080604083850312156110d9576110d8610ecb565b5b600083013567ffffffffffffffff8111156110f7576110f6610ed0565b5b61110385828601610fed565b9250506020611114858286016110ad565b9150509250929050565b6000819050919050565b6111318161111e565b811461113c57600080fd5b50565b60008135905061114e81611128565b92915050565b600080600080600060a086880312156111705761116f610ecb565b5b600086013567ffffffffffffffff81111561118e5761118d610ed0565b5b61119a88828901610fed565b95505060206111ab8882890161113f565b94505060406111bc8882890161113f565b93505060606111cd8882890161113f565b92505060806111de888289016110ad565b9150509295509295909350565b600080600080600080600060e0888a03121561120a57611209610ecb565b5b600088013567ffffffffffffffff81111561122857611227610ed0565b5b6112348a828b01610fed565b97505060206112458a828b016110ad565b965050604088013567ffffffffffffffff81111561126657611265610ed0565b5b6112728a828b01610fed565b955050606088013567ffffffffffffffff81111561129357611292610ed0565b5b61129f8a828b01610fed565b945050608088013567ffffffffffffffff8111156112c0576112bf610ed0565b5b6112cc8a828b01610fed565b93505060a088013567ffffffffffffffff8111156112ed576112ec610ed0565b5b6112f98a828b01610fed565b92505060c088013567ffffffffffffffff81111561131a57611319610ed0565b5b6113268a828b01610fed565b91505092959891949750929550565b60008115159050919050565b61134a81611335565b811461135557600080fd5b50565b60008135905061136781611341565b92915050565b60008060006060848603121561138657611385610ecb565b5b6000611394868287016110ad565b93505060206113a58682870161113f565b92505060406113b686828701611358565b9150509250925092565b600081519050919050565b600082825260208201905092915050565b6000819050602082019050919050565b600081519050919050565b600082825260208201905092915050565b60005b8381101561142657808201518184015260208101905061140b565b60008484015250505050565b600061143d826113ec565b61144781856113f7565b9350611457818560208601611408565b61146081610edf565b840191505092915050565b61147481611084565b82525050565b60006101408301600083015184820360008601526114988282611432565b91505060208301516114ad602086018261146b565b5060408301516114c0604086018261146b565b5060608301516114d3606086018261146b565b50608083015184820360808601526114eb8282611432565b91505060a083015184820360a08601526115058282611432565b91505060c083015184820360c086015261151f8282611432565b91505060e083015184820360e08601526115398282611432565b9150506101008301518482036101008601526115558282611432565b9150506101208301518482036101208601526115718282611432565b9150508091505092915050565b600061158a838361147a565b905092915050565b6000602082019050919050565b60006115aa826113c0565b6115b481856113cb565b9350836020820285016115c6856113dc565b8060005b8581101561160257848403895281516115e3858261157e565b94506115ee83611592565b925060208a019950506001810190506115ca565b50829750879550505050505092915050565b6000602082019050818103600083015261162e818461159f565b905092915050565b6000806040838503121561164d5761164c610ecb565b5b600061165b858286016110ad565b925050602083013567ffffffffffffffff81111561167c5761167b610ed0565b5b61168885828601610fed565b9150509250929050565b600081905092915050565b60006116a8826113ec565b6116b28185611692565b93506116c2818560208601611408565b80840191505092915050565b60006116da828461169d565b915081905092915050565b7f4e487b7100000000000000000000000000000000000000000000000000000000600052602260045260246000fd5b6000600282049050600182168061172c57607f821691505b60208210810361173f5761173e6116e5565b5b50919050565b60008190508160005260206000209050919050565b60006020601f8301049050919050565b600082821b905092915050565b6000600883026117a77fffffffffffffffffffffffffffffffffffffffffffffffffffffffffffffffff8261176a565b6117b1868361176a565b95508019841693508086168417925050509392505050565b6000819050919050565b60006117ee6117e96117e48461111e565b6117c9565b61111e565b9050919050565b6000819050919050565b611808836117d3565b61181c611814826117f5565b848454611777565b825550505050565b600090565b611831611824565b61183c8184846117ff565b505050565b5b8181101561186057611855600082611829565b600181019050611842565b5050565b601f8211156118a55761187681611745565b61187f8461175a565b8101602085101561188e578190505b6118a261189a8561175a565b830182611841565b50505b505050565b600082821c905092915050565b60006118c8600019846008026118aa565b1980831691505092915050565b60006118e183836118b7565b9150826002028217905092915050565b6118fa826113ec565b67ffffffffffffffff81111561191357611912610ef0565b5b61191d8254611714565b611928828285611864565b600060209050601f83116001811461195b5760008415611949578287015190505b61195385826118d5565b8655506119bb565b601f19841661196986611745565b60005b828110156119915784890151825560018201915060208501945060208101905061196c565b868310156119ae57848901516119aa601f8916826118b7565b8355505b6001600288020188555050505b505050505050565b6000815490506119d281611714565b9050919050565b8181036119e7575050611abf565b6119f0826119c3565b67ffffffffffffffff811115611a0957611a08610ef0565b5b611a138254611714565b611a1e828285611864565b6000601f831160018114611a4d5760008415611a3b578287015490505b611a4585826118d5565b865550611ab8565b601f198416611a5b87611745565b9650611a6686611745565b60005b82811015611a8e57848901548255600182019150600185019450602081019050611a69565b86831015611aab5784890154611aa7601f8916826118b7565b8355505b6001600288020188555050505b5050505050505b565b7f4e487b7100000000000000000000000000000000000000000000000000000000600052602160045260246000fd5b7f4e487b7100000000000000000000000000000000000000000000000000000000600052603260045260246000fd5b60008154611b2c81611714565b611b368186611692565b94506001821660008114611b515760018114611b6657611b99565b60ff1983168652811515820286019350611b99565b611b6f85611745565b60005b83811015611b9157815481890152600182019150602081019050611b72565b838801955050505b50505092915050565b6000611bae8284611b1f565b915081905092915050565b7f4e487b7100000000000000000000000000000000000000000000000000000000600052601160045260246000fd5b6000611bf38261111e565b91507fffffffffffffffffffffffffffffffffffffffffffffffffffffffffffffffff8203611c2557611c24611bb9565b5b60018201905091905056fea264697066735822122045f4d1a8f6e18baf092e5f37e38cdad1010e14b64254681c8afe41262976d5b564736f6c63430008110033",
  "linkReferences": {},
  "deployedLinkReferences": {}
}