{
  "_format": "hh-sol-artifact-1",
  "contractName": "Product",
  "sourceName": "contracts/Product.sol",
  "abi": [
    {
      "inputs": [
        {
          "internalType": "address",
          "name": "_addr",
          "type": "address"
        },
        {
          "internalType": "string",
          "name": "_productId",
          "type": "string"
        },
        {
          "internalType": "bool",
          "name": "approved",
          "type": "bool"
        }
      ],
      "name": "checkQualityRice",
      "outputs": [],
      "stateMutability": "nonpayable",
      "type": "function"
    },
    {
      "inputs": [],
      "name": "getAllPaddy",
      "outputs": [
        {
          "components": [
            {
              "internalType": "string",
              "name": "upc",
              "type": "string"
            },
            {
              "internalType": "address",
              "name": "ownerID",
              "type": "address"
            },
            {
              "internalType": "address",
              "name": "originFarmerID",
              "type": "address"
            },
            {
              "internalType": "address",
              "name": "manufacturerID",
              "type": "address"
            },
            {
              "internalType": "string",
              "name": "originFarmName",
              "type": "string"
            },
            {
              "internalType": "string",
              "name": "originFarmLatitude",
              "type": "string"
            },
            {
              "internalType": "string",
              "name": "originFarmLongitude",
              "type": "string"
            },
            {
              "internalType": "string",
              "name": "variety",
              "type": "string"
            },
            {
              "internalType": "uint256",
              "name": "harvestedWeight",
              "type": "uint256"
            },
            {
              "internalType": "string",
              "name": "state",
              "type": "string"
            }
          ],
          "internalType": "struct Product.Paddy[]",
          "name": "",
          "type": "tuple[]"
        }
      ],
      "stateMutability": "view",
      "type": "function"
    },
    {
      "inputs": [],
      "name": "getAllRice",
      "outputs": [
        {
          "components": [
            {
              "components": [
                {
                  "internalType": "string",
                  "name": "upc",
                  "type": "string"
                },
                {
                  "internalType": "address",
                  "name": "ownerID",
                  "type": "address"
                },
                {
                  "internalType": "address",
                  "name": "originFarmerID",
                  "type": "address"
                },
                {
                  "internalType": "address",
                  "name": "manufacturerID",
                  "type": "address"
                },
                {
                  "internalType": "string",
                  "name": "originFarmName",
                  "type": "string"
                },
                {
                  "internalType": "string",
                  "name": "originFarmLatitude",
                  "type": "string"
                },
                {
                  "internalType": "string",
                  "name": "originFarmLongitude",
                  "type": "string"
                },
                {
                  "internalType": "string",
                  "name": "variety",
                  "type": "string"
                },
                {
                  "internalType": "uint256",
                  "name": "harvestedWeight",
                  "type": "uint256"
                },
                {
                  "internalType": "string",
                  "name": "state",
                  "type": "string"
                }
              ],
              "internalType": "struct Product.Paddy",
              "name": "farmDetails",
              "type": "tuple"
            },
            {
              "internalType": "string",
              "name": "productID",
              "type": "string"
            },
            {
              "internalType": "string",
              "name": "productName",
              "type": "string"
            },
            {
              "internalType": "uint256",
              "name": "productPrice",
              "type": "uint256"
            },
            {
              "internalType": "uint256",
              "name": "productWeight",
              "type": "uint256"
            },
            {
              "internalType": "bool",
              "name": "qualityApproved",
              "type": "bool"
            },
            {
              "internalType": "enum Product.RicePacketState",
              "name": "itemState",
              "type": "uint8"
            },
            {
              "internalType": "address",
              "name": "ownerID",
              "type": "address"
            },
            {
              "internalType": "address",
              "name": "manufacturerID",
              "type": "address"
            },
            {
              "internalType": "address",
              "name": "qualityCheckerID",
              "type": "address"
            },
            {
              "internalType": "address",
              "name": "distributorID",
              "type": "address"
            },
            {
              "internalType": "address",
              "name": "retailerID",
              "type": "address"
            },
            {
              "internalType": "address",
              "name": "consumerID",
              "type": "address"
            }
          ],
          "internalType": "struct Product.Rice[]",
          "name": "",
          "type": "tuple[]"
        }
      ],
      "stateMutability": "view",
      "type": "function"
    },
    {
      "inputs": [
        {
          "internalType": "string",
          "name": "_productId",
          "type": "string"
        }
      ],
      "name": "getRiceDetail",
      "outputs": [
        {
          "components": [
            {
              "components": [
                {
                  "internalType": "string",
                  "name": "upc",
                  "type": "string"
                },
                {
                  "internalType": "address",
                  "name": "ownerID",
                  "type": "address"
                },
                {
                  "internalType": "address",
                  "name": "originFarmerID",
                  "type": "address"
                },
                {
                  "internalType": "address",
                  "name": "manufacturerID",
                  "type": "address"
                },
                {
                  "internalType": "string",
                  "name": "originFarmName",
                  "type": "string"
                },
                {
                  "internalType": "string",
                  "name": "originFarmLatitude",
                  "type": "string"
                },
                {
                  "internalType": "string",
                  "name": "originFarmLongitude",
                  "type": "string"
                },
                {
                  "internalType": "string",
                  "name": "variety",
                  "type": "string"
                },
                {
                  "internalType": "uint256",
                  "name": "harvestedWeight",
                  "type": "uint256"
                },
                {
                  "internalType": "string",
                  "name": "state",
                  "type": "string"
                }
              ],
              "internalType": "struct Product.Paddy",
              "name": "farmDetails",
              "type": "tuple"
            },
            {
              "internalType": "string",
              "name": "productID",
              "type": "string"
            },
            {
              "internalType": "string",
              "name": "productName",
              "type": "string"
            },
            {
              "internalType": "uint256",
              "name": "productPrice",
              "type": "uint256"
            },
            {
              "internalType": "uint256",
              "name": "productWeight",
              "type": "uint256"
            },
            {
              "internalType": "bool",
              "name": "qualityApproved",
              "type": "bool"
            },
            {
              "internalType": "enum Product.RicePacketState",
              "name": "itemState",
              "type": "uint8"
            },
            {
              "internalType": "address",
              "name": "ownerID",
              "type": "address"
            },
            {
              "internalType": "address",
              "name": "manufacturerID",
              "type": "address"
            },
            {
              "internalType": "address",
              "name": "qualityCheckerID",
              "type": "address"
            },
            {
              "internalType": "address",
              "name": "distributorID",
              "type": "address"
            },
            {
              "internalType": "address",
              "name": "retailerID",
              "type": "address"
            },
            {
              "internalType": "address",
              "name": "consumerID",
              "type": "address"
            }
          ],
          "internalType": "struct Product.Rice",
          "name": "",
          "type": "tuple"
        }
      ],
      "stateMutability": "view",
      "type": "function"
    },
    {
      "inputs": [
        {
          "internalType": "string",
          "name": "_upc",
          "type": "string"
        },
        {
          "internalType": "address",
          "name": "_addr",
          "type": "address"
        },
        {
          "internalType": "string",
          "name": "_farmerName",
          "type": "string"
        },
        {
          "internalType": "string",
          "name": "_farmLatitude",
          "type": "string"
        },
        {
          "internalType": "string",
          "name": "_farmLongitude",
          "type": "string"
        },
        {
          "internalType": "string",
          "name": "_variety",
          "type": "string"
        },
        {
          "internalType": "uint256",
          "name": "_harvestedWeight",
          "type": "uint256"
        }
      ],
      "name": "harvestPaddy",
      "outputs": [],
      "stateMutability": "nonpayable",
      "type": "function"
    },
    {
      "inputs": [
        {
          "internalType": "string",
          "name": "_upc",
          "type": "string"
        },
        {
          "internalType": "uint256",
          "name": "_weight",
          "type": "uint256"
        },
        {
          "internalType": "string",
          "name": "_productName",
          "type": "string"
        },
        {
          "internalType": "string",
          "name": "_productId",
          "type": "string"
        },
        {
          "internalType": "uint256",
          "name": "_productPrice",
          "type": "uint256"
        },
        {
          "internalType": "address",
          "name": "_addr",
          "type": "address"
        }
      ],
      "name": "packRice",
      "outputs": [],
      "stateMutability": "nonpayable",
      "type": "function"
    },
    {
      "inputs": [
        {
          "internalType": "string",
          "name": "_upc",
          "type": "string"
        }
      ],
      "name": "processPaddy",
      "outputs": [],
      "stateMutability": "nonpayable",
      "type": "function"
    },
    {
      "inputs": [
        {
          "internalType": "string",
          "name": "_productId",
          "type": "string"
        },
        {
          "internalType": "address",
          "name": "_addr",
          "type": "address"
        }
      ],
      "name": "receivedByDistributor",
      "outputs": [],
      "stateMutability": "nonpayable",
      "type": "function"
    },
    {
      "inputs": [
        {
          "internalType": "address",
          "name": "_addr",
          "type": "address"
        },
        {
          "internalType": "string",
          "name": "_upc",
          "type": "string"
        }
      ],
      "name": "receivedByManufacturer",
      "outputs": [],
      "stateMutability": "nonpayable",
      "type": "function"
    },
    {
      "inputs": [
        {
          "internalType": "string",
          "name": "_productId",
          "type": "string"
        },
        {
          "internalType": "address",
          "name": "_addr",
          "type": "address"
        }
      ],
      "name": "receivedByRetailer",
      "outputs": [],
      "stateMutability": "nonpayable",
      "type": "function"
    },
    {
      "inputs": [
        {
          "internalType": "string",
          "name": "_productId",
          "type": "string"
        },
        {
          "internalType": "address",
          "name": "_addr",
          "type": "address"
        }
      ],
      "name": "sellToCustomer",
      "outputs": [],
      "stateMutability": "nonpayable",
      "type": "function"
    },
    {
      "inputs": [
        {
          "internalType": "string",
          "name": "_productId",
          "type": "string"
        },
        {
          "internalType": "address",
          "name": "_addr",
          "type": "address"
        }
      ],
      "name": "shipToDistributor",
      "outputs": [],
      "stateMutability": "nonpayable",
      "type": "function"
    },
    {
      "inputs": [
        {
          "internalType": "string",
          "name": "_upc",
          "type": "string"
        },
        {
          "internalType": "address",
          "name": "_addr",
          "type": "address"
        }
      ],
      "name": "shipToManufacturer",
      "outputs": [],
      "stateMutability": "nonpayable",
      "type": "function"
    },
    {
      "inputs": [
        {
          "internalType": "string",
          "name": "_productId",
          "type": "string"
        },
        {
          "internalType": "address",
          "name": "_addr",
          "type": "address"
        }
      ],
      "name": "shipToRetailer",
      "outputs": [],
      "stateMutability": "nonpayable",
      "type": "function"
    }
  ],
  "bytecode": "0x608060405234801561001057600080fd5b5061389b806100206000396000f3fe608060405234801561001057600080fd5b50600436106100ea5760003560e01c806380df605b1161008c578063a772fa1311610066578063a772fa131461020b578063a811461e14610227578063e608d14114610243578063ef254e2114610273576100ea565b806380df605b146101b5578063a0c6bb7d146101d1578063a2f8b95b146101ed576100ea565b806326e718b6116100c857806326e718b6146101435780633852a9ba1461015f57806359a477c31461017b5780636f9751ab14610199576100ea565b80630249e588146100ef57806309bd9f1c1461010b5780630fcd090314610127575b600080fd5b6101096004803603810190610104919061281f565b61028f565b005b610125600480360381019061012091906128fc565b6102f6565b005b610141600480360381019061013c9190612a2a565b610486565b005b61015d60048036038101906101589190612a2a565b61054e565b005b61017960048036038101906101749190612a2a565b6105fc565b005b6101836106aa565b6040516101909190612e9b565b60405180910390f35b6101b360048036038101906101ae9190612a2a565b610fb8565b005b6101cf60048036038101906101ca9190612ebd565b611065565b005b6101eb60048036038101906101e69190612a2a565b6113ff565b005b6101f561150d565b6040516102029190613060565b60405180910390f35b61022560048036038101906102209190612a2a565b611a74565b005b610241600480360381019061023c91906130ae565b611b22565b005b61025d6004803603810190610258919061281f565b611c0a565b60405161026a9190613244565b60405180910390f35b61028d60048036038101906102889190613266565b612462565b005b6040518060400160405280600981526020017f50726f63657373656400000000000000000000000000000000000000000000008152506000826040516102d591906132fe565b908152602001604051809103902060090190816102f29190613521565b5050565b6000808860405161030791906132fe565b90815260200160405180910390209050878160000190816103289190613521565b50868160010160006101000a81548173ffffffffffffffffffffffffffffffffffffffff021916908373ffffffffffffffffffffffffffffffffffffffff160217905550868160020160006101000a81548173ffffffffffffffffffffffffffffffffffffffff021916908373ffffffffffffffffffffffffffffffffffffffff160217905550858160040190816103c09190613521565b50848160050190816103d29190613521565b50838160060190816103e49190613521565b50828160070190816103f69190613521565b508181600801819055506040518060400160405280600981526020017f48617276657374656400000000000000000000000000000000000000000000008152508160090190816104469190613521565b5060018890806001815401808255809150506001900390600052602060002001600090919091909150908161047b9190613521565b505050505050505050565b6040518060400160405280601581526020017f53686970706564546f4d616e75666163747572657200000000000000000000008152506000836040516104cc91906132fe565b908152602001604051809103902060090190816104e99190613521565b50806000836040516104fb91906132fe565b908152602001604051809103902060030160006101000a81548173ffffffffffffffffffffffffffffffffffffffff021916908373ffffffffffffffffffffffffffffffffffffffff1602179055505050565b600560028360405161056091906132fe565b9081526020016040518091039020600e0160016101000a81548160ff0219169083600681111561059357610592612c67565b5b0217905550806002836040516105a991906132fe565b9081526020016040518091039020600e0160026101000a81548173ffffffffffffffffffffffffffffffffffffffff021916908373ffffffffffffffffffffffffffffffffffffffff1602179055505050565b600460028360405161060e91906132fe565b9081526020016040518091039020600e0160016101000a81548160ff0219169083600681111561064157610640612c67565b5b02179055508060028360405161065791906132fe565b908152602001604051809103902060120160006101000a81548173ffffffffffffffffffffffffffffffffffffffff021916908373ffffffffffffffffffffffffffffffffffffffff1602179055505050565b6060600060038054905067ffffffffffffffff8111156106cd576106cc6126f4565b5b60405190808252806020026020018201604052801561070657816020015b6106f361252a565b8152602001906001900390816106eb5790505b50905060005b600380549050811015610fb05760026003828154811061072f5761072e6135f3565b5b9060005260206000200160405161074691906136a5565b9081526020016040518091039020604051806101a0016040529081600082016040518061014001604052908160008201805461078190613344565b80601f01602080910402602001604051908101604052809291908181526020018280546107ad90613344565b80156107fa5780601f106107cf576101008083540402835291602001916107fa565b820191906000526020600020905b8154815290600101906020018083116107dd57829003601f168201915b505050505081526020016001820160009054906101000a900473ffffffffffffffffffffffffffffffffffffffff1673ffffffffffffffffffffffffffffffffffffffff1673ffffffffffffffffffffffffffffffffffffffff1681526020016002820160009054906101000a900473ffffffffffffffffffffffffffffffffffffffff1673ffffffffffffffffffffffffffffffffffffffff1673ffffffffffffffffffffffffffffffffffffffff1681526020016003820160009054906101000a900473ffffffffffffffffffffffffffffffffffffffff1673ffffffffffffffffffffffffffffffffffffffff1673ffffffffffffffffffffffffffffffffffffffff16815260200160048201805461091590613344565b80601f016020809104026020016040519081016040528092919081815260200182805461094190613344565b801561098e5780601f106109635761010080835404028352916020019161098e565b820191906000526020600020905b81548152906001019060200180831161097157829003601f168201915b505050505081526020016005820180546109a790613344565b80601f01602080910402602001604051908101604052809291908181526020018280546109d390613344565b8015610a205780601f106109f557610100808354040283529160200191610a20565b820191906000526020600020905b815481529060010190602001808311610a0357829003601f168201915b50505050508152602001600682018054610a3990613344565b80601f0160208091040260200160405190810160405280929190818152602001828054610a6590613344565b8015610ab25780601f10610a8757610100808354040283529160200191610ab2565b820191906000526020600020905b815481529060010190602001808311610a9557829003601f168201915b50505050508152602001600782018054610acb90613344565b80601f0160208091040260200160405190810160405280929190818152602001828054610af790613344565b8015610b445780601f10610b1957610100808354040283529160200191610b44565b820191906000526020600020905b815481529060010190602001808311610b2757829003601f168201915b5050505050815260200160088201548152602001600982018054610b6790613344565b80601f0160208091040260200160405190810160405280929190818152602001828054610b9390613344565b8015610be05780601f10610bb557610100808354040283529160200191610be0565b820191906000526020600020905b815481529060010190602001808311610bc357829003601f168201915b5050505050815250508152602001600a82018054610bfd90613344565b80601f0160208091040260200160405190810160405280929190818152602001828054610c2990613344565b8015610c765780601f10610c4b57610100808354040283529160200191610c76565b820191906000526020600020905b815481529060010190602001808311610c5957829003601f168201915b50505050508152602001600b82018054610c8f90613344565b80601f0160208091040260200160405190810160405280929190818152602001828054610cbb90613344565b8015610d085780601f10610cdd57610100808354040283529160200191610d08565b820191906000526020600020905b815481529060010190602001808311610ceb57829003601f168201915b50505050508152602001600c8201548152602001600d8201548152602001600e820160009054906101000a900460ff16151515158152602001600e820160019054906101000a900460ff166006811115610d6557610d64612c67565b5b6006811115610d7757610d76612c67565b5b8152602001600e820160029054906101000a900473ffffffffffffffffffffffffffffffffffffffff1673ffffffffffffffffffffffffffffffffffffffff1673ffffffffffffffffffffffffffffffffffffffff168152602001600f820160009054906101000a900473ffffffffffffffffffffffffffffffffffffffff1673ffffffffffffffffffffffffffffffffffffffff1673ffffffffffffffffffffffffffffffffffffffff1681526020016010820160009054906101000a900473ffffffffffffffffffffffffffffffffffffffff1673ffffffffffffffffffffffffffffffffffffffff1673ffffffffffffffffffffffffffffffffffffffff1681526020016011820160009054906101000a900473ffffffffffffffffffffffffffffffffffffffff1673ffffffffffffffffffffffffffffffffffffffff1673ffffffffffffffffffffffffffffffffffffffff1681526020016012820160009054906101000a900473ffffffffffffffffffffffffffffffffffffffff1673ffffffffffffffffffffffffffffffffffffffff1673ffffffffffffffffffffffffffffffffffffffff1681526020016013820160009054906101000a900473ffffffffffffffffffffffffffffffffffffffff1673ffffffffffffffffffffffffffffffffffffffff1673ffffffffffffffffffffffffffffffffffffffff1681525050828281518110610f9257610f916135f3565b5b60200260200101819052508080610fa8906136eb565b91505061070c565b508091505090565b60028083604051610fc991906132fe565b9081526020016040518091039020600e0160016101000a81548160ff02191690836006811115610ffc57610ffb612c67565b5b02179055508060028360405161101291906132fe565b908152602001604051809103902060110160006101000a81548173ffffffffffffffffffffffffffffffffffffffff021916908373ffffffffffffffffffffffffffffffffffffffff1602179055505050565b600060028460405161107791906132fe565b9081526020016040518091039020905060008760405161109791906132fe565b908152602001604051809103902081600001600082018160000190816110bd9190613749565b506001820160009054906101000a900473ffffffffffffffffffffffffffffffffffffffff168160010160006101000a81548173ffffffffffffffffffffffffffffffffffffffff021916908373ffffffffffffffffffffffffffffffffffffffff1602179055506002820160009054906101000a900473ffffffffffffffffffffffffffffffffffffffff168160020160006101000a81548173ffffffffffffffffffffffffffffffffffffffff021916908373ffffffffffffffffffffffffffffffffffffffff1602179055506003820160009054906101000a900473ffffffffffffffffffffffffffffffffffffffff168160030160006101000a81548173ffffffffffffffffffffffffffffffffffffffff021916908373ffffffffffffffffffffffffffffffffffffffff160217905550600482018160040190816112079190613749565b506005820181600501908161121c9190613749565b50600682018160060190816112319190613749565b50600782018160070190816112469190613749565b5060088201548160080155600982018160090190816112659190613749565b509050508381600a01908161127a9190613521565b508481600b01908161128c9190613521565b508281600c01819055508581600d0181905550600081600e0160006101000a81548160ff021916908315150217905550600081600e0160016101000a81548160ff021916908360068111156112e4576112e3612c67565b5b02179055508181600f0160006101000a81548173ffffffffffffffffffffffffffffffffffffffff021916908373ffffffffffffffffffffffffffffffffffffffff1602179055508181600e0160026101000a81548173ffffffffffffffffffffffffffffffffffffffff021916908373ffffffffffffffffffffffffffffffffffffffff1602179055508560008860405161138091906132fe565b90815260200160405180910390206008015461139c9190613831565b6000886040516113ac91906132fe565b9081526020016040518091039020600801819055506003849080600181540180825580915050600190039060005260206000200160009091909190915090816113f59190613521565b5050505050505050565b600660028360405161141191906132fe565b9081526020016040518091039020600e0160016101000a81548160ff0219169083600681111561144457611443612c67565b5b02179055508060028360405161145a91906132fe565b908152602001604051809103902060130160006101000a81548173ffffffffffffffffffffffffffffffffffffffff021916908373ffffffffffffffffffffffffffffffffffffffff160217905550806002836040516114ba91906132fe565b9081526020016040518091039020600e0160026101000a81548173ffffffffffffffffffffffffffffffffffffffff021916908373ffffffffffffffffffffffffffffffffffffffff1602179055505050565b6060600060018054905067ffffffffffffffff8111156115305761152f6126f4565b5b60405190808252806020026020018201604052801561156957816020015b611556612630565b81526020019060019003908161154e5790505b50905060005b600180549050811015611a6c57600060018281548110611592576115916135f3565b5b906000526020600020016040516115a991906136a5565b9081526020016040518091039020604051806101400160405290816000820180546115d390613344565b80601f01602080910402602001604051908101604052809291908181526020018280546115ff90613344565b801561164c5780601f106116215761010080835404028352916020019161164c565b820191906000526020600020905b81548152906001019060200180831161162f57829003601f168201915b505050505081526020016001820160009054906101000a900473ffffffffffffffffffffffffffffffffffffffff1673ffffffffffffffffffffffffffffffffffffffff1673ffffffffffffffffffffffffffffffffffffffff1681526020016002820160009054906101000a900473ffffffffffffffffffffffffffffffffffffffff1673ffffffffffffffffffffffffffffffffffffffff1673ffffffffffffffffffffffffffffffffffffffff1681526020016003820160009054906101000a900473ffffffffffffffffffffffffffffffffffffffff1673ffffffffffffffffffffffffffffffffffffffff1673ffffffffffffffffffffffffffffffffffffffff16815260200160048201805461176790613344565b80601f016020809104026020016040519081016040528092919081815260200182805461179390613344565b80156117e05780601f106117b5576101008083540402835291602001916117e0565b820191906000526020600020905b8154815290600101906020018083116117c357829003601f168201915b505050505081526020016005820180546117f990613344565b80601f016020809104026020016040519081016040528092919081815260200182805461182590613344565b80156118725780601f1061184757610100808354040283529160200191611872565b820191906000526020600020905b81548152906001019060200180831161185557829003601f168201915b5050505050815260200160068201805461188b90613344565b80601f01602080910402602001604051908101604052809291908181526020018280546118b790613344565b80156119045780601f106118d957610100808354040283529160200191611904565b820191906000526020600020905b8154815290600101906020018083116118e757829003601f168201915b5050505050815260200160078201805461191d90613344565b80601f016020809104026020016040519081016040528092919081815260200182805461194990613344565b80156119965780601f1061196b57610100808354040283529160200191611996565b820191906000526020600020905b81548152906001019060200180831161197957829003601f168201915b50505050508152602001600882015481526020016009820180546119b990613344565b80601f01602080910402602001604051908101604052809291908181526020018280546119e590613344565b8015611a325780601f10611a0757610100808354040283529160200191611a32565b820191906000526020600020905b815481529060010190602001808311611a1557829003601f168201915b505050505081525050828281518110611a4e57611a4d6135f3565b5b60200260200101819052508080611a64906136eb565b91505061156f565b508091505090565b6003600283604051611a8691906132fe565b9081526020016040518091039020600e0160016101000a81548160ff02191690836006811115611ab957611ab8612c67565b5b021790555080600283604051611acf91906132fe565b9081526020016040518091039020600e0160026101000a81548173ffffffffffffffffffffffffffffffffffffffff021916908373ffffffffffffffffffffffffffffffffffffffff1602179055505050565b80600283604051611b3391906132fe565b9081526020016040518091039020600e0160006101000a81548160ff02191690831515021790555082600283604051611b6c91906132fe565b908152602001604051809103902060100160006101000a81548173ffffffffffffffffffffffffffffffffffffffff021916908373ffffffffffffffffffffffffffffffffffffffff1602179055506001600283604051611bcd91906132fe565b9081526020016040518091039020600e0160016101000a81548160ff02191690836006811115611c0057611bff612c67565b5b0217905550505050565b611c1261252a565b600282604051611c2291906132fe565b9081526020016040518091039020604051806101a00160405290816000820160405180610140016040529081600082018054611c5d90613344565b80601f0160208091040260200160405190810160405280929190818152602001828054611c8990613344565b8015611cd65780601f10611cab57610100808354040283529160200191611cd6565b820191906000526020600020905b815481529060010190602001808311611cb957829003601f168201915b505050505081526020016001820160009054906101000a900473ffffffffffffffffffffffffffffffffffffffff1673ffffffffffffffffffffffffffffffffffffffff1673ffffffffffffffffffffffffffffffffffffffff1681526020016002820160009054906101000a900473ffffffffffffffffffffffffffffffffffffffff1673ffffffffffffffffffffffffffffffffffffffff1673ffffffffffffffffffffffffffffffffffffffff1681526020016003820160009054906101000a900473ffffffffffffffffffffffffffffffffffffffff1673ffffffffffffffffffffffffffffffffffffffff1673ffffffffffffffffffffffffffffffffffffffff168152602001600482018054611df190613344565b80601f0160208091040260200160405190810160405280929190818152602001828054611e1d90613344565b8015611e6a5780601f10611e3f57610100808354040283529160200191611e6a565b820191906000526020600020905b815481529060010190602001808311611e4d57829003601f168201915b50505050508152602001600582018054611e8390613344565b80601f0160208091040260200160405190810160405280929190818152602001828054611eaf90613344565b8015611efc5780601f10611ed157610100808354040283529160200191611efc565b820191906000526020600020905b815481529060010190602001808311611edf57829003601f168201915b50505050508152602001600682018054611f1590613344565b80601f0160208091040260200160405190810160405280929190818152602001828054611f4190613344565b8015611f8e5780601f10611f6357610100808354040283529160200191611f8e565b820191906000526020600020905b815481529060010190602001808311611f7157829003601f168201915b50505050508152602001600782018054611fa790613344565b80601f0160208091040260200160405190810160405280929190818152602001828054611fd390613344565b80156120205780601f10611ff557610100808354040283529160200191612020565b820191906000526020600020905b81548152906001019060200180831161200357829003601f168201915b505050505081526020016008820154815260200160098201805461204390613344565b80601f016020809104026020016040519081016040528092919081815260200182805461206f90613344565b80156120bc5780601f10612091576101008083540402835291602001916120bc565b820191906000526020600020905b81548152906001019060200180831161209f57829003601f168201915b5050505050815250508152602001600a820180546120d990613344565b80601f016020809104026020016040519081016040528092919081815260200182805461210590613344565b80156121525780601f1061212757610100808354040283529160200191612152565b820191906000526020600020905b81548152906001019060200180831161213557829003601f168201915b50505050508152602001600b8201805461216b90613344565b80601f016020809104026020016040519081016040528092919081815260200182805461219790613344565b80156121e45780601f106121b9576101008083540402835291602001916121e4565b820191906000526020600020905b8154815290600101906020018083116121c757829003601f168201915b50505050508152602001600c8201548152602001600d8201548152602001600e820160009054906101000a900460ff16151515158152602001600e820160019054906101000a900460ff16600681111561224157612240612c67565b5b600681111561225357612252612c67565b5b8152602001600e820160029054906101000a900473ffffffffffffffffffffffffffffffffffffffff1673ffffffffffffffffffffffffffffffffffffffff1673ffffffffffffffffffffffffffffffffffffffff168152602001600f820160009054906101000a900473ffffffffffffffffffffffffffffffffffffffff1673ffffffffffffffffffffffffffffffffffffffff1673ffffffffffffffffffffffffffffffffffffffff1681526020016010820160009054906101000a900473ffffffffffffffffffffffffffffffffffffffff1673ffffffffffffffffffffffffffffffffffffffff1673ffffffffffffffffffffffffffffffffffffffff1681526020016011820160009054906101000a900473ffffffffffffffffffffffffffffffffffffffff1673ffffffffffffffffffffffffffffffffffffffff1673ffffffffffffffffffffffffffffffffffffffff1681526020016012820160009054906101000a900473ffffffffffffffffffffffffffffffffffffffff1673ffffffffffffffffffffffffffffffffffffffff1673ffffffffffffffffffffffffffffffffffffffff1681526020016013820160009054906101000a900473ffffffffffffffffffffffffffffffffffffffff1673ffffffffffffffffffffffffffffffffffffffff1673ffffffffffffffffffffffffffffffffffffffff16815250509050919050565b6040518060400160405280601681526020017f526563656976656442794d616e756661637475726572000000000000000000008152506000826040516124a891906132fe565b908152602001604051809103902060090190816124c59190613521565b50816000826040516124d791906132fe565b908152602001604051809103902060010160006101000a81548173ffffffffffffffffffffffffffffffffffffffff021916908373ffffffffffffffffffffffffffffffffffffffff1602179055505050565b604051806101a0016040528061253e612630565b8152602001606081526020016060815260200160008152602001600081526020016000151581526020016000600681111561257c5761257b612c67565b5b8152602001600073ffffffffffffffffffffffffffffffffffffffff168152602001600073ffffffffffffffffffffffffffffffffffffffff168152602001600073ffffffffffffffffffffffffffffffffffffffff168152602001600073ffffffffffffffffffffffffffffffffffffffff168152602001600073ffffffffffffffffffffffffffffffffffffffff168152602001600073ffffffffffffffffffffffffffffffffffffffff1681525090565b60405180610140016040528060608152602001600073ffffffffffffffffffffffffffffffffffffffff168152602001600073ffffffffffffffffffffffffffffffffffffffff168152602001600073ffffffffffffffffffffffffffffffffffffffff1681526020016060815260200160608152602001606081526020016060815260200160008152602001606081525090565b6000604051905090565b600080fd5b600080fd5b600080fd5b600080fd5b6000601f19601f8301169050919050565b7f4e487b7100000000000000000000000000000000000000000000000000000000600052604160045260246000fd5b61272c826126e3565b810181811067ffffffffffffffff8211171561274b5761274a6126f4565b5b80604052505050565b600061275e6126c5565b905061276a8282612723565b919050565b600067ffffffffffffffff82111561278a576127896126f4565b5b612793826126e3565b9050602081019050919050565b82818337600083830152505050565b60006127c26127bd8461276f565b612754565b9050828152602081018484840111156127de576127dd6126de565b5b6127e98482856127a0565b509392505050565b600082601f830112612806576128056126d9565b5b81356128168482602086016127af565b91505092915050565b600060208284031215612835576128346126cf565b5b600082013567ffffffffffffffff811115612853576128526126d4565b5b61285f848285016127f1565b91505092915050565b600073ffffffffffffffffffffffffffffffffffffffff82169050919050565b600061289382612868565b9050919050565b6128a381612888565b81146128ae57600080fd5b50565b6000813590506128c08161289a565b92915050565b6000819050919050565b6128d9816128c6565b81146128e457600080fd5b50565b6000813590506128f6816128d0565b92915050565b600080600080600080600060e0888a03121561291b5761291a6126cf565b5b600088013567ffffffffffffffff811115612939576129386126d4565b5b6129458a828b016127f1565b97505060206129568a828b016128b1565b965050604088013567ffffffffffffffff811115612977576129766126d4565b5b6129838a828b016127f1565b955050606088013567ffffffffffffffff8111156129a4576129a36126d4565b5b6129b08a828b016127f1565b945050608088013567ffffffffffffffff8111156129d1576129d06126d4565b5b6129dd8a828b016127f1565b93505060a088013567ffffffffffffffff8111156129fe576129fd6126d4565b5b612a0a8a828b016127f1565b92505060c0612a1b8a828b016128e7565b91505092959891949750929550565b60008060408385031215612a4157612a406126cf565b5b600083013567ffffffffffffffff811115612a5f57612a5e6126d4565b5b612a6b858286016127f1565b9250506020612a7c858286016128b1565b9150509250929050565b600081519050919050565b600082825260208201905092915050565b6000819050602082019050919050565b600081519050919050565b600082825260208201905092915050565b60005b83811015612aec578082015181840152602081019050612ad1565b60008484015250505050565b6000612b0382612ab2565b612b0d8185612abd565b9350612b1d818560208601612ace565b612b26816126e3565b840191505092915050565b612b3a81612888565b82525050565b612b49816128c6565b82525050565b6000610140830160008301518482036000860152612b6d8282612af8565b9150506020830151612b826020860182612b31565b506040830151612b956040860182612b31565b506060830151612ba86060860182612b31565b5060808301518482036080860152612bc08282612af8565b91505060a083015184820360a0860152612bda8282612af8565b91505060c083015184820360c0860152612bf48282612af8565b91505060e083015184820360e0860152612c0e8282612af8565b915050610100830151612c25610100860182612b40565b50610120830151848203610120860152612c3f8282612af8565b9150508091505092915050565b60008115159050919050565b612c6181612c4c565b82525050565b7f4e487b7100000000000000000000000000000000000000000000000000000000600052602160045260246000fd5b60078110612ca757612ca6612c67565b5b50565b6000819050612cb882612c96565b919050565b6000612cc882612caa565b9050919050565b612cd881612cbd565b82525050565b60006101a0830160008301518482036000860152612cfc8282612b4f565b91505060208301518482036020860152612d168282612af8565b91505060408301518482036040860152612d308282612af8565b9150506060830151612d456060860182612b40565b506080830151612d586080860182612b40565b5060a0830151612d6b60a0860182612c58565b5060c0830151612d7e60c0860182612ccf565b5060e0830151612d9160e0860182612b31565b50610100830151612da6610100860182612b31565b50610120830151612dbb610120860182612b31565b50610140830151612dd0610140860182612b31565b50610160830151612de5610160860182612b31565b50610180830151612dfa610180860182612b31565b508091505092915050565b6000612e118383612cde565b905092915050565b6000602082019050919050565b6000612e3182612a86565b612e3b8185612a91565b935083602082028501612e4d85612aa2565b8060005b85811015612e895784840389528151612e6a8582612e05565b9450612e7583612e19565b925060208a01995050600181019050612e51565b50829750879550505050505092915050565b60006020820190508181036000830152612eb58184612e26565b905092915050565b60008060008060008060c08789031215612eda57612ed96126cf565b5b600087013567ffffffffffffffff811115612ef857612ef76126d4565b5b612f0489828a016127f1565b9650506020612f1589828a016128e7565b955050604087013567ffffffffffffffff811115612f3657612f356126d4565b5b612f4289828a016127f1565b945050606087013567ffffffffffffffff811115612f6357612f626126d4565b5b612f6f89828a016127f1565b9350506080612f8089828a016128e7565b92505060a0612f9189828a016128b1565b9150509295509295509295565b600081519050919050565b600082825260208201905092915050565b6000819050602082019050919050565b6000612fd68383612b4f565b905092915050565b6000602082019050919050565b6000612ff682612f9e565b6130008185612fa9565b93508360208202850161301285612fba565b8060005b8581101561304e578484038952815161302f8582612fca565b945061303a83612fde565b925060208a01995050600181019050613016565b50829750879550505050505092915050565b6000602082019050818103600083015261307a8184612feb565b905092915050565b61308b81612c4c565b811461309657600080fd5b50565b6000813590506130a881613082565b92915050565b6000806000606084860312156130c7576130c66126cf565b5b60006130d5868287016128b1565b935050602084013567ffffffffffffffff8111156130f6576130f56126d4565b5b613102868287016127f1565b925050604061311386828701613099565b9150509250925092565b60006101a083016000830151848203600086015261313b8282612b4f565b915050602083015184820360208601526131558282612af8565b9150506040830151848203604086015261316f8282612af8565b91505060608301516131846060860182612b40565b5060808301516131976080860182612b40565b5060a08301516131aa60a0860182612c58565b5060c08301516131bd60c0860182612ccf565b5060e08301516131d060e0860182612b31565b506101008301516131e5610100860182612b31565b506101208301516131fa610120860182612b31565b5061014083015161320f610140860182612b31565b50610160830151613224610160860182612b31565b50610180830151613239610180860182612b31565b508091505092915050565b6000602082019050818103600083015261325e818461311d565b905092915050565b6000806040838503121561327d5761327c6126cf565b5b600061328b858286016128b1565b925050602083013567ffffffffffffffff8111156132ac576132ab6126d4565b5b6132b8858286016127f1565b9150509250929050565b600081905092915050565b60006132d882612ab2565b6132e281856132c2565b93506132f2818560208601612ace565b80840191505092915050565b600061330a82846132cd565b915081905092915050565b7f4e487b7100000000000000000000000000000000000000000000000000000000600052602260045260246000fd5b6000600282049050600182168061335c57607f821691505b60208210810361336f5761336e613315565b5b50919050565b60008190508160005260206000209050919050565b60006020601f8301049050919050565b600082821b905092915050565b6000600883026133d77fffffffffffffffffffffffffffffffffffffffffffffffffffffffffffffffff8261339a565b6133e1868361339a565b95508019841693508086168417925050509392505050565b6000819050919050565b600061341e613419613414846128c6565b6133f9565b6128c6565b9050919050565b6000819050919050565b61343883613403565b61344c61344482613425565b8484546133a7565b825550505050565b600090565b613461613454565b61346c81848461342f565b505050565b5b8181101561349057613485600082613459565b600181019050613472565b5050565b601f8211156134d5576134a681613375565b6134af8461338a565b810160208510156134be578190505b6134d26134ca8561338a565b830182613471565b50505b505050565b600082821c905092915050565b60006134f8600019846008026134da565b1980831691505092915050565b600061351183836134e7565b9150826002028217905092915050565b61352a82612ab2565b67ffffffffffffffff811115613543576135426126f4565b5b61354d8254613344565b613558828285613494565b600060209050601f83116001811461358b5760008415613579578287015190505b6135838582613505565b8655506135eb565b601f19841661359986613375565b60005b828110156135c15784890151825560018201915060208501945060208101905061359c565b868310156135de57848901516135da601f8916826134e7565b8355505b6001600288020188555050505b505050505050565b7f4e487b7100000000000000000000000000000000000000000000000000000000600052603260045260246000fd5b6000815461362f81613344565b61363981866132c2565b9450600182166000811461365457600181146136695761369c565b60ff198316865281151582028601935061369c565b61367285613375565b60005b8381101561369457815481890152600182019150602081019050613675565b838801955050505b50505092915050565b60006136b18284613622565b915081905092915050565b7f4e487b7100000000000000000000000000000000000000000000000000000000600052601160045260246000fd5b60006136f6826128c6565b91507fffffffffffffffffffffffffffffffffffffffffffffffffffffffffffffffff8203613728576137276136bc565b5b600182019050919050565b60008154905061374281613344565b9050919050565b81810361375757505061382f565b61376082613733565b67ffffffffffffffff811115613779576137786126f4565b5b6137838254613344565b61378e828285613494565b6000601f8311600181146137bd57600084156137ab578287015490505b6137b58582613505565b865550613828565b601f1984166137cb87613375565b96506137d686613375565b60005b828110156137fe578489015482556001820191506001850194506020810190506137d9565b8683101561381b5784890154613817601f8916826134e7565b8355505b6001600288020188555050505b5050505050505b565b600061383c826128c6565b9150613847836128c6565b925082820390508181111561385f5761385e6136bc565b5b9291505056fea2646970667358221220344a7764fd2f496053f3dd7a9b4426c769b81ef15d42582d9760ae1b1a06f3b664736f6c63430008110033",
  "linkReferences": {},
  "deployedLinkReferences": {}
}