{"contracts/Product.sol":{"Product":{"abi":[{"inputs":[{"internalType":"address","name":"_addr","type":"address"},{"internalType":"uint256","name":"_productId","type":"uint256"},{"internalType":"bool","name":"approved","type":"bool"}],"name":"checkQualityRice","outputs":[],"stateMutability":"nonpayable","type":"function"},{"inputs":[],"name":"getAllPaddy","outputs":[{"components":[{"internalType":"string","name":"upc","type":"string"},{"internalType":"address","name":"ownerID","type":"address"},{"internalType":"address","name":"originFarmerID","type":"address"},{"internalType":"address","name":"manufacturerID","type":"address"},{"internalType":"string","name":"originFarmName","type":"string"},{"internalType":"string","name":"originFarmLatitude","type":"string"},{"internalType":"string","name":"originFarmLongitude","type":"string"},{"internalType":"string","name":"variety","type":"string"},{"internalType":"string","name":"harvestedWeight","type":"string"},{"internalType":"string","name":"state","type":"string"}],"internalType":"struct Product.Paddy[]","name":"","type":"tuple[]"}],"stateMutability":"view","type":"function"},{"inputs":[{"internalType":"string","name":"_upc","type":"string"},{"internalType":"address","name":"_addr","type":"address"},{"internalType":"string","name":"_farmerName","type":"string"},{"internalType":"string","name":"_farmLatitude","type":"string"},{"internalType":"string","name":"_farmLongitude","type":"string"},{"internalType":"string","name":"_variety","type":"string"},{"internalType":"string","name":"_harvestedWeight","type":"string"}],"name":"harvestPaddy","outputs":[],"stateMutability":"nonpayable","type":"function"},{"inputs":[{"internalType":"string","name":"_upc","type":"string"},{"internalType":"uint256","name":"_weight","type":"uint256"},{"internalType":"uint256","name":"_productId","type":"uint256"},{"internalType":"uint256","name":"_productPrice","type":"uint256"},{"internalType":"address","name":"_addr","type":"address"}],"name":"packRice","outputs":[],"stateMutability":"nonpayable","type":"function"},{"inputs":[{"internalType":"string","name":"_upc","type":"string"}],"name":"processPaddy","outputs":[],"stateMutability":"nonpayable","type":"function"},{"inputs":[{"internalType":"address","name":"_addr","type":"address"},{"internalType":"string","name":"_upc","type":"string"}],"name":"receivedByManufacturer","outputs":[],"stateMutability":"nonpayable","type":"function"},{"inputs":[{"internalType":"string","name":"_upc","type":"string"},{"internalType":"address","name":"_addr","type":"address"}],"name":"shipToManufacturer","outputs":[],"stateMutability":"nonpayable","type":"function"}],"evm":{"bytecode":{"linkReferences":{},"object":"608060405234801561001057600080fd5b50611c66806100206000396000f3fe608060405234801561001057600080fd5b506004361061007d5760003560e01c80631f27e7e41161005b5780631f27e7e4146100d6578063334b50bc146100f2578063a2f8b95b1461010e578063ef254e211461012c5761007d565b80630249e588146100825780630fcd09031461009e5780631ad1d00e146100ba575b600080fd5b61009c6004803603810190610097919061101b565b610148565b005b6100b860048036038101906100b391906110c2565b6101af565b005b6100d460048036038101906100cf9190611154565b610277565b005b6100f060048036038101906100eb91906111eb565b610554565b005b61010c6004803603810190610107919061136d565b6106ed565b005b610116610775565b6040516101239190611614565b60405180910390f35b61014660048036038101906101419190611636565b610d64565b005b6040518060400160405280600981526020017f50726f636573736564000000000000000000000000000000000000000000000081525060008260405161018e91906116ce565b908152602001604051809103902060090190816101ab91906118f1565b5050565b6040518060400160405280601581526020017f53686970706564546f4d616e75666163747572657200000000000000000000008152506000836040516101f591906116ce565b9081526020016040518091039020600901908161021291906118f1565b508060008360405161022491906116ce565b908152602001604051809103902060030160006101000a81548173ffffffffffffffffffffffffffffffffffffffff021916908373ffffffffffffffffffffffffffffffffffffffff1602179055505050565b600060026000858152602001908152602001600020905060008660405161029e91906116ce565b908152602001604051809103902081600001600082018160000190816102c491906119d9565b506001820160009054906101000a900473ffffffffffffffffffffffffffffffffffffffff168160010160006101000a81548173ffffffffffffffffffffffffffffffffffffffff021916908373ffffffffffffffffffffffffffffffffffffffff1602179055506002820160009054906101000a900473ffffffffffffffffffffffffffffffffffffffff168160020160006101000a81548173ffffffffffffffffffffffffffffffffffffffff021916908373ffffffffffffffffffffffffffffffffffffffff1602179055506003820160009054906101000a900473ffffffffffffffffffffffffffffffffffffffff168160030160006101000a81548173ffffffffffffffffffffffffffffffffffffffff021916908373ffffffffffffffffffffffffffffffffffffffff1602179055506004820181600401908161040e91906119d9565b506005820181600501908161042391906119d9565b506006820181600601908161043891906119d9565b506007820181600701908161044d91906119d9565b506008820181600801908161046291906119d9565b506009820181600901908161047791906119d9565b509050508381600a01819055508281600b01819055508481600c0181905550600081600d0160006101000a81548160ff021916908315150217905550600081600d0160016101000a81548160ff021916908360068111156104db576104da611ac1565b5b02179055508181600d0160026101000a81548173ffffffffffffffffffffffffffffffffffffffff021916908373ffffffffffffffffffffffffffffffffffffffff1602179055506003849080600181540180825580915050600190039060005260206000200160009091909190915055505050505050565b6000808860405161056591906116ce565b908152602001604051809103902090508781600001908161058691906118f1565b50868160010160006101000a81548173ffffffffffffffffffffffffffffffffffffffff021916908373ffffffffffffffffffffffffffffffffffffffff160217905550868160020160006101000a81548173ffffffffffffffffffffffffffffffffffffffff021916908373ffffffffffffffffffffffffffffffffffffffff1602179055508581600401908161061e91906118f1565b508481600501908161063091906118f1565b508381600601908161064291906118f1565b508281600701908161065491906118f1565b508181600801908161066691906118f1565b506040518060400160405280600881526020017f48617265737465640000000000000000000000000000000000000000000000008152508160090190816106ad91906118f1565b506001889080600181540180825580915050600190039060005260206000200160009091909190915090816106e291906118f1565b505050505050505050565b8060026000848152602001908152602001600020600d0160006101000a81548160ff0219169083151502179055508260026000848152602001908152602001600020600e0160006101000a81548173ffffffffffffffffffffffffffffffffffffffff021916908373ffffffffffffffffffffffffffffffffffffffff160217905550505050565b6060600060018054905067ffffffffffffffff81111561079857610797610ef0565b5b6040519080825280602002602001820160405280156107d157816020015b6107be610e2c565b8152602001906001900390816107b65790505b50905060005b600180549050811015610d5c576000600182815481106107fa576107f9611af0565b5b906000526020600020016040516108119190611ba2565b90815260200160405180910390206040518061014001604052908160008201805461083b90611714565b80601f016020809104026020016040519081016040528092919081815260200182805461086790611714565b80156108b45780601f10610889576101008083540402835291602001916108b4565b820191906000526020600020905b81548152906001019060200180831161089757829003601f168201915b505050505081526020016001820160009054906101000a900473ffffffffffffffffffffffffffffffffffffffff1673ffffffffffffffffffffffffffffffffffffffff1673ffffffffffffffffffffffffffffffffffffffff1681526020016002820160009054906101000a900473ffffffffffffffffffffffffffffffffffffffff1673ffffffffffffffffffffffffffffffffffffffff1673ffffffffffffffffffffffffffffffffffffffff1681526020016003820160009054906101000a900473ffffffffffffffffffffffffffffffffffffffff1673ffffffffffffffffffffffffffffffffffffffff1673ffffffffffffffffffffffffffffffffffffffff1681526020016004820180546109cf90611714565b80601f01602080910402602001604051908101604052809291908181526020018280546109fb90611714565b8015610a485780601f10610a1d57610100808354040283529160200191610a48565b820191906000526020600020905b815481529060010190602001808311610a2b57829003601f168201915b50505050508152602001600582018054610a6190611714565b80601f0160208091040260200160405190810160405280929190818152602001828054610a8d90611714565b8015610ada5780601f10610aaf57610100808354040283529160200191610ada565b820191906000526020600020905b815481529060010190602001808311610abd57829003601f168201915b50505050508152602001600682018054610af390611714565b80601f0160208091040260200160405190810160405280929190818152602001828054610b1f90611714565b8015610b6c5780601f10610b4157610100808354040283529160200191610b6c565b820191906000526020600020905b815481529060010190602001808311610b4f57829003601f168201915b50505050508152602001600782018054610b8590611714565b80601f0160208091040260200160405190810160405280929190818152602001828054610bb190611714565b8015610bfe5780601f10610bd357610100808354040283529160200191610bfe565b820191906000526020600020905b815481529060010190602001808311610be157829003601f168201915b50505050508152602001600882018054610c1790611714565b80601f0160208091040260200160405190810160405280929190818152602001828054610c4390611714565b8015610c905780601f10610c6557610100808354040283529160200191610c90565b820191906000526020600020905b815481529060010190602001808311610c7357829003601f168201915b50505050508152602001600982018054610ca990611714565b80601f0160208091040260200160405190810160405280929190818152602001828054610cd590611714565b8015610d225780601f10610cf757610100808354040283529160200191610d22565b820191906000526020600020905b815481529060010190602001808311610d0557829003601f168201915b505050505081525050828281518110610d3e57610d3d611af0565b5b60200260200101819052508080610d5490611be8565b9150506107d7565b508091505090565b6040518060400160405280601681526020017f526563656976656442794d616e75666163747572657200000000000000000000815250600082604051610daa91906116ce565b90815260200160405180910390206009019081610dc791906118f1565b5081600082604051610dd991906116ce565b908152602001604051809103902060010160006101000a81548173ffffffffffffffffffffffffffffffffffffffff021916908373ffffffffffffffffffffffffffffffffffffffff1602179055505050565b60405180610140016040528060608152602001600073ffffffffffffffffffffffffffffffffffffffff168152602001600073ffffffffffffffffffffffffffffffffffffffff168152602001600073ffffffffffffffffffffffffffffffffffffffff1681526020016060815260200160608152602001606081526020016060815260200160608152602001606081525090565b6000604051905090565b600080fd5b600080fd5b600080fd5b600080fd5b6000601f19601f8301169050919050565b7f4e487b7100000000000000000000000000000000000000000000000000000000600052604160045260246000fd5b610f2882610edf565b810181811067ffffffffffffffff82111715610f4757610f46610ef0565b5b80604052505050565b6000610f5a610ec1565b9050610f668282610f1f565b919050565b600067ffffffffffffffff821115610f8657610f85610ef0565b5b610f8f82610edf565b9050602081019050919050565b82818337600083830152505050565b6000610fbe610fb984610f6b565b610f50565b905082815260208101848484011115610fda57610fd9610eda565b5b610fe5848285610f9c565b509392505050565b600082601f83011261100257611001610ed5565b5b8135611012848260208601610fab565b91505092915050565b60006020828403121561103157611030610ecb565b5b600082013567ffffffffffffffff81111561104f5761104e610ed0565b5b61105b84828501610fed565b91505092915050565b600073ffffffffffffffffffffffffffffffffffffffff82169050919050565b600061108f82611064565b9050919050565b61109f81611084565b81146110aa57600080fd5b50565b6000813590506110bc81611096565b92915050565b600080604083850312156110d9576110d8610ecb565b5b600083013567ffffffffffffffff8111156110f7576110f6610ed0565b5b61110385828601610fed565b9250506020611114858286016110ad565b9150509250929050565b6000819050919050565b6111318161111e565b811461113c57600080fd5b50565b60008135905061114e81611128565b92915050565b600080600080600060a086880312156111705761116f610ecb565b5b600086013567ffffffffffffffff81111561118e5761118d610ed0565b5b61119a88828901610fed565b95505060206111ab8882890161113f565b94505060406111bc8882890161113f565b93505060606111cd8882890161113f565b92505060806111de888289016110ad565b9150509295509295909350565b600080600080600080600060e0888a03121561120a57611209610ecb565b5b600088013567ffffffffffffffff81111561122857611227610ed0565b5b6112348a828b01610fed565b97505060206112458a828b016110ad565b965050604088013567ffffffffffffffff81111561126657611265610ed0565b5b6112728a828b01610fed565b955050606088013567ffffffffffffffff81111561129357611292610ed0565b5b61129f8a828b01610fed565b945050608088013567ffffffffffffffff8111156112c0576112bf610ed0565b5b6112cc8a828b01610fed565b93505060a088013567ffffffffffffffff8111156112ed576112ec610ed0565b5b6112f98a828b01610fed565b92505060c088013567ffffffffffffffff81111561131a57611319610ed0565b5b6113268a828b01610fed565b91505092959891949750929550565b60008115159050919050565b61134a81611335565b811461135557600080fd5b50565b60008135905061136781611341565b92915050565b60008060006060848603121561138657611385610ecb565b5b6000611394868287016110ad565b93505060206113a58682870161113f565b92505060406113b686828701611358565b9150509250925092565b600081519050919050565b600082825260208201905092915050565b6000819050602082019050919050565b600081519050919050565b600082825260208201905092915050565b60005b8381101561142657808201518184015260208101905061140b565b60008484015250505050565b600061143d826113ec565b61144781856113f7565b9350611457818560208601611408565b61146081610edf565b840191505092915050565b61147481611084565b82525050565b60006101408301600083015184820360008601526114988282611432565b91505060208301516114ad602086018261146b565b5060408301516114c0604086018261146b565b5060608301516114d3606086018261146b565b50608083015184820360808601526114eb8282611432565b91505060a083015184820360a08601526115058282611432565b91505060c083015184820360c086015261151f8282611432565b91505060e083015184820360e08601526115398282611432565b9150506101008301518482036101008601526115558282611432565b9150506101208301518482036101208601526115718282611432565b9150508091505092915050565b600061158a838361147a565b905092915050565b6000602082019050919050565b60006115aa826113c0565b6115b481856113cb565b9350836020820285016115c6856113dc565b8060005b8581101561160257848403895281516115e3858261157e565b94506115ee83611592565b925060208a019950506001810190506115ca565b50829750879550505050505092915050565b6000602082019050818103600083015261162e818461159f565b905092915050565b6000806040838503121561164d5761164c610ecb565b5b600061165b858286016110ad565b925050602083013567ffffffffffffffff81111561167c5761167b610ed0565b5b61168885828601610fed565b9150509250929050565b600081905092915050565b60006116a8826113ec565b6116b28185611692565b93506116c2818560208601611408565b80840191505092915050565b60006116da828461169d565b915081905092915050565b7f4e487b7100000000000000000000000000000000000000000000000000000000600052602260045260246000fd5b6000600282049050600182168061172c57607f821691505b60208210810361173f5761173e6116e5565b5b50919050565b60008190508160005260206000209050919050565b60006020601f8301049050919050565b600082821b905092915050565b6000600883026117a77fffffffffffffffffffffffffffffffffffffffffffffffffffffffffffffffff8261176a565b6117b1868361176a565b95508019841693508086168417925050509392505050565b6000819050919050565b60006117ee6117e96117e48461111e565b6117c9565b61111e565b9050919050565b6000819050919050565b611808836117d3565b61181c611814826117f5565b848454611777565b825550505050565b600090565b611831611824565b61183c8184846117ff565b505050565b5b8181101561186057611855600082611829565b600181019050611842565b5050565b601f8211156118a55761187681611745565b61187f8461175a565b8101602085101561188e578190505b6118a261189a8561175a565b830182611841565b50505b505050565b600082821c905092915050565b60006118c8600019846008026118aa565b1980831691505092915050565b60006118e183836118b7565b9150826002028217905092915050565b6118fa826113ec565b67ffffffffffffffff81111561191357611912610ef0565b5b61191d8254611714565b611928828285611864565b600060209050601f83116001811461195b5760008415611949578287015190505b61195385826118d5565b8655506119bb565b601f19841661196986611745565b60005b828110156119915784890151825560018201915060208501945060208101905061196c565b868310156119ae57848901516119aa601f8916826118b7565b8355505b6001600288020188555050505b505050505050565b6000815490506119d281611714565b9050919050565b8181036119e7575050611abf565b6119f0826119c3565b67ffffffffffffffff811115611a0957611a08610ef0565b5b611a138254611714565b611a1e828285611864565b6000601f831160018114611a4d5760008415611a3b578287015490505b611a4585826118d5565b865550611ab8565b601f198416611a5b87611745565b9650611a6686611745565b60005b82811015611a8e57848901548255600182019150600185019450602081019050611a69565b86831015611aab5784890154611aa7601f8916826118b7565b8355505b6001600288020188555050505b5050505050505b565b7f4e487b7100000000000000000000000000000000000000000000000000000000600052602160045260246000fd5b7f4e487b7100000000000000000000000000000000000000000000000000000000600052603260045260246000fd5b60008154611b2c81611714565b611b368186611692565b94506001821660008114611b515760018114611b6657611b99565b60ff1983168652811515820286019350611b99565b611b6f85611745565b60005b83811015611b9157815481890152600182019150602081019050611b72565b838801955050505b50505092915050565b6000611bae8284611b1f565b915081905092915050565b7f4e487b7100000000000000000000000000000000000000000000000000000000600052601160045260246000fd5b6000611bf38261111e565b91507fffffffffffffffffffffffffffffffffffffffffffffffffffffffffffffffff8203611c2557611c24611bb9565b5b60018201905091905056fea264697066735822122045f4d1a8f6e18baf092e5f37e38cdad1010e14b64254681c8afe41262976d5b564736f6c63430008110033","opcodes":"PUSH1 0x80 PUSH1 0x40 MSTORE CALLVALUE DUP1 ISZERO PUSH2 0x10 JUMPI PUSH1 0x0 DUP1 REVERT JUMPDEST POP PUSH2 0x1C66 DUP1 PUSH2 0x20 PUSH1 0x0 CODECOPY PUSH1 0x0 RETURN INVALID PUSH1 0x80 PUSH1 0x40 MSTORE CALLVALUE DUP1 ISZERO PUSH2 0x10 JUMPI PUSH1 0x0 DUP1 REVERT JUMPDEST POP PUSH1 0x4 CALLDATASIZE LT PUSH2 0x7D JUMPI PUSH1 0x0 CALLDATALOAD PUSH1 0xE0 SHR DUP1 PUSH4 0x1F27E7E4 GT PUSH2 0x5B JUMPI DUP1 PUSH4 0x1F27E7E4 EQ PUSH2 0xD6 JUMPI DUP1 PUSH4 0x334B50BC EQ PUSH2 0xF2 JUMPI DUP1 PUSH4 0xA2F8B95B EQ PUSH2 0x10E JUMPI DUP1 PUSH4 0xEF254E21 EQ PUSH2 0x12C JUMPI PUSH2 0x7D JUMP JUMPDEST DUP1 PUSH4 0x249E588 EQ PUSH2 0x82 JUMPI DUP1 PUSH4 0xFCD0903 EQ PUSH2 0x9E JUMPI DUP1 PUSH4 0x1AD1D00E EQ PUSH2 0xBA JUMPI JUMPDEST PUSH1 0x0 DUP1 REVERT JUMPDEST PUSH2 0x9C PUSH1 0x4 DUP1 CALLDATASIZE SUB DUP2 ADD SWAP1 PUSH2 0x97 SWAP2 SWAP1 PUSH2 0x101B JUMP JUMPDEST PUSH2 0x148 JUMP JUMPDEST STOP JUMPDEST PUSH2 0xB8 PUSH1 0x4 DUP1 CALLDATASIZE SUB DUP2 ADD SWAP1 PUSH2 0xB3 SWAP2 SWAP1 PUSH2 0x10C2 JUMP JUMPDEST PUSH2 0x1AF JUMP JUMPDEST STOP JUMPDEST PUSH2 0xD4 PUSH1 0x4 DUP1 CALLDATASIZE SUB DUP2 ADD SWAP1 PUSH2 0xCF SWAP2 SWAP1 PUSH2 0x1154 JUMP JUMPDEST PUSH2 0x277 JUMP JUMPDEST STOP JUMPDEST PUSH2 0xF0 PUSH1 0x4 DUP1 CALLDATASIZE SUB DUP2 ADD SWAP1 PUSH2 0xEB SWAP2 SWAP1 PUSH2 0x11EB JUMP JUMPDEST PUSH2 0x554 JUMP JUMPDEST STOP JUMPDEST PUSH2 0x10C PUSH1 0x4 DUP1 CALLDATASIZE SUB DUP2 ADD SWAP1 PUSH2 0x107 SWAP2 SWAP1 PUSH2 0x136D JUMP JUMPDEST PUSH2 0x6ED JUMP JUMPDEST STOP JUMPDEST PUSH2 0x116 PUSH2 0x775 JUMP JUMPDEST PUSH1 0x40 MLOAD PUSH2 0x123 SWAP2 SWAP1 PUSH2 0x1614 JUMP JUMPDEST PUSH1 0x40 MLOAD DUP1 SWAP2 SUB SWAP1 RETURN JUMPDEST PUSH2 0x146 PUSH1 0x4 DUP1 CALLDATASIZE SUB DUP2 ADD SWAP1 PUSH2 0x141 SWAP2 SWAP1 PUSH2 0x1636 JUMP JUMPDEST PUSH2 0xD64 JUMP JUMPDEST STOP JUMPDEST PUSH1 0x40 MLOAD DUP1 PUSH1 0x40 ADD PUSH1 0x40 MSTORE DUP1 PUSH1 0x9 DUP2 MSTORE PUSH1 0x20 ADD PUSH32 0x50726F6365737365640000000000000000000000000000000000000000000000 DUP2 MSTORE POP PUSH1 0x0 DUP3 PUSH1 0x40 MLOAD PUSH2 0x18E SWAP2 SWAP1 PUSH2 0x16CE JUMP JUMPDEST SWAP1 DUP2 MSTORE PUSH1 0x20 ADD PUSH1 0x40 MLOAD DUP1 SWAP2 SUB SWAP1 KECCAK256 PUSH1 0x9 ADD SWAP1 DUP2 PUSH2 0x1AB SWAP2 SWAP1 PUSH2 0x18F1 JUMP JUMPDEST POP POP JUMP JUMPDEST PUSH1 0x40 MLOAD DUP1 PUSH1 0x40 ADD PUSH1 0x40 MSTORE DUP1 PUSH1 0x15 DUP2 MSTORE PUSH1 0x20 ADD PUSH32 0x53686970706564546F4D616E7566616374757265720000000000000000000000 DUP2 MSTORE POP PUSH1 0x0 DUP4 PUSH1 0x40 MLOAD PUSH2 0x1F5 SWAP2 SWAP1 PUSH2 0x16CE JUMP JUMPDEST SWAP1 DUP2 MSTORE PUSH1 0x20 ADD PUSH1 0x40 MLOAD DUP1 SWAP2 SUB SWAP1 KECCAK256 PUSH1 0x9 ADD SWAP1 DUP2 PUSH2 0x212 SWAP2 SWAP1 PUSH2 0x18F1 JUMP JUMPDEST POP DUP1 PUSH1 0x0 DUP4 PUSH1 0x40 MLOAD PUSH2 0x224 SWAP2 SWAP1 PUSH2 0x16CE JUMP JUMPDEST SWAP1 DUP2 MSTORE PUSH1 0x20 ADD PUSH1 0x40 MLOAD DUP1 SWAP2 SUB SWAP1 KECCAK256 PUSH1 0x3 ADD PUSH1 0x0 PUSH2 0x100 EXP DUP2 SLOAD DUP2 PUSH20 0xFFFFFFFFFFFFFFFFFFFFFFFFFFFFFFFFFFFFFFFF MUL NOT AND SWAP1 DUP4 PUSH20 0xFFFFFFFFFFFFFFFFFFFFFFFFFFFFFFFFFFFFFFFF AND MUL OR SWAP1 SSTORE POP POP POP JUMP JUMPDEST PUSH1 0x0 PUSH1 0x2 PUSH1 0x0 DUP6 DUP2 MSTORE PUSH1 0x20 ADD SWAP1 DUP2 MSTORE PUSH1 0x20 ADD PUSH1 0x0 KECCAK256 SWAP1 POP PUSH1 0x0 DUP7 PUSH1 0x40 MLOAD PUSH2 0x29E SWAP2 SWAP1 PUSH2 0x16CE JUMP JUMPDEST SWAP1 DUP2 MSTORE PUSH1 0x20 ADD PUSH1 0x40 MLOAD DUP1 SWAP2 SUB SWAP1 KECCAK256 DUP2 PUSH1 0x0 ADD PUSH1 0x0 DUP3 ADD DUP2 PUSH1 0x0 ADD SWAP1 DUP2 PUSH2 0x2C4 SWAP2 SWAP1 PUSH2 0x19D9 JUMP JUMPDEST POP PUSH1 0x1 DUP3 ADD PUSH1 0x0 SWAP1 SLOAD SWAP1 PUSH2 0x100 EXP SWAP1 DIV PUSH20 0xFFFFFFFFFFFFFFFFFFFFFFFFFFFFFFFFFFFFFFFF AND DUP2 PUSH1 0x1 ADD PUSH1 0x0 PUSH2 0x100 EXP DUP2 SLOAD DUP2 PUSH20 0xFFFFFFFFFFFFFFFFFFFFFFFFFFFFFFFFFFFFFFFF MUL NOT AND SWAP1 DUP4 PUSH20 0xFFFFFFFFFFFFFFFFFFFFFFFFFFFFFFFFFFFFFFFF AND MUL OR SWAP1 SSTORE POP PUSH1 0x2 DUP3 ADD PUSH1 0x0 SWAP1 SLOAD SWAP1 PUSH2 0x100 EXP SWAP1 DIV PUSH20 0xFFFFFFFFFFFFFFFFFFFFFFFFFFFFFFFFFFFFFFFF AND DUP2 PUSH1 0x2 ADD PUSH1 0x0 PUSH2 0x100 EXP DUP2 SLOAD DUP2 PUSH20 0xFFFFFFFFFFFFFFFFFFFFFFFFFFFFFFFFFFFFFFFF MUL NOT AND SWAP1 DUP4 PUSH20 0xFFFFFFFFFFFFFFFFFFFFFFFFFFFFFFFFFFFFFFFF AND MUL OR SWAP1 SSTORE POP PUSH1 0x3 DUP3 ADD PUSH1 0x0 SWAP1 SLOAD SWAP1 PUSH2 0x100 EXP SWAP1 DIV PUSH20 0xFFFFFFFFFFFFFFFFFFFFFFFFFFFFFFFFFFFFFFFF AND DUP2 PUSH1 0x3 ADD PUSH1 0x0 PUSH2 0x100 EXP DUP2 SLOAD DUP2 PUSH20 0xFFFFFFFFFFFFFFFFFFFFFFFFFFFFFFFFFFFFFFFF MUL NOT AND SWAP1 DUP4 PUSH20 0xFFFFFFFFFFFFFFFFFFFFFFFFFFFFFFFFFFFFFFFF AND MUL OR SWAP1 SSTORE POP PUSH1 0x4 DUP3 ADD DUP2 PUSH1 0x4 ADD SWAP1 DUP2 PUSH2 0x40E SWAP2 SWAP1 PUSH2 0x19D9 JUMP JUMPDEST POP PUSH1 0x5 DUP3 ADD DUP2 PUSH1 0x5 ADD SWAP1 DUP2 PUSH2 0x423 SWAP2 SWAP1 PUSH2 0x19D9 JUMP JUMPDEST POP PUSH1 0x6 DUP3 ADD DUP2 PUSH1 0x6 ADD SWAP1 DUP2 PUSH2 0x438 SWAP2 SWAP1 PUSH2 0x19D9 JUMP JUMPDEST POP PUSH1 0x7 DUP3 ADD DUP2 PUSH1 0x7 ADD SWAP1 DUP2 PUSH2 0x44D SWAP2 SWAP1 PUSH2 0x19D9 JUMP JUMPDEST POP PUSH1 0x8 DUP3 ADD DUP2 PUSH1 0x8 ADD SWAP1 DUP2 PUSH2 0x462 SWAP2 SWAP1 PUSH2 0x19D9 JUMP JUMPDEST POP PUSH1 0x9 DUP3 ADD DUP2 PUSH1 0x9 ADD SWAP1 DUP2 PUSH2 0x477 SWAP2 SWAP1 PUSH2 0x19D9 JUMP JUMPDEST POP SWAP1 POP POP DUP4 DUP2 PUSH1 0xA ADD DUP2 SWAP1 SSTORE POP DUP3 DUP2 PUSH1 0xB ADD DUP2 SWAP1 SSTORE POP DUP5 DUP2 PUSH1 0xC ADD DUP2 SWAP1 SSTORE POP PUSH1 0x0 DUP2 PUSH1 0xD ADD PUSH1 0x0 PUSH2 0x100 EXP DUP2 SLOAD DUP2 PUSH1 0xFF MUL NOT AND SWAP1 DUP4 ISZERO ISZERO MUL OR SWAP1 SSTORE POP PUSH1 0x0 DUP2 PUSH1 0xD ADD PUSH1 0x1 PUSH2 0x100 EXP DUP2 SLOAD DUP2 PUSH1 0xFF MUL NOT AND SWAP1 DUP4 PUSH1 0x6 DUP2 GT ISZERO PUSH2 0x4DB JUMPI PUSH2 0x4DA PUSH2 0x1AC1 JUMP JUMPDEST JUMPDEST MUL OR SWAP1 SSTORE POP DUP2 DUP2 PUSH1 0xD ADD PUSH1 0x2 PUSH2 0x100 EXP DUP2 SLOAD DUP2 PUSH20 0xFFFFFFFFFFFFFFFFFFFFFFFFFFFFFFFFFFFFFFFF MUL NOT AND SWAP1 DUP4 PUSH20 0xFFFFFFFFFFFFFFFFFFFFFFFFFFFFFFFFFFFFFFFF AND MUL OR SWAP1 SSTORE POP PUSH1 0x3 DUP5 SWAP1 DUP1 PUSH1 0x1 DUP2 SLOAD ADD DUP1 DUP3 SSTORE DUP1 SWAP2 POP POP PUSH1 0x1 SWAP1 SUB SWAP1 PUSH1 0x0 MSTORE PUSH1 0x20 PUSH1 0x0 KECCAK256 ADD PUSH1 0x0 SWAP1 SWAP2 SWAP1 SWAP2 SWAP1 SWAP2 POP SSTORE POP POP POP POP POP POP JUMP JUMPDEST PUSH1 0x0 DUP1 DUP9 PUSH1 0x40 MLOAD PUSH2 0x565 SWAP2 SWAP1 PUSH2 0x16CE JUMP JUMPDEST SWAP1 DUP2 MSTORE PUSH1 0x20 ADD PUSH1 0x40 MLOAD DUP1 SWAP2 SUB SWAP1 KECCAK256 SWAP1 POP DUP8 DUP2 PUSH1 0x0 ADD SWAP1 DUP2 PUSH2 0x586 SWAP2 SWAP1 PUSH2 0x18F1 JUMP JUMPDEST POP DUP7 DUP2 PUSH1 0x1 ADD PUSH1 0x0 PUSH2 0x100 EXP DUP2 SLOAD DUP2 PUSH20 0xFFFFFFFFFFFFFFFFFFFFFFFFFFFFFFFFFFFFFFFF MUL NOT AND SWAP1 DUP4 PUSH20 0xFFFFFFFFFFFFFFFFFFFFFFFFFFFFFFFFFFFFFFFF AND MUL OR SWAP1 SSTORE POP DUP7 DUP2 PUSH1 0x2 ADD PUSH1 0x0 PUSH2 0x100 EXP DUP2 SLOAD DUP2 PUSH20 0xFFFFFFFFFFFFFFFFFFFFFFFFFFFFFFFFFFFFFFFF MUL NOT AND SWAP1 DUP4 PUSH20 0xFFFFFFFFFFFFFFFFFFFFFFFFFFFFFFFFFFFFFFFF AND MUL OR SWAP1 SSTORE POP DUP6 DUP2 PUSH1 0x4 ADD SWAP1 DUP2 PUSH2 0x61E SWAP2 SWAP1 PUSH2 0x18F1 JUMP JUMPDEST POP DUP5 DUP2 PUSH1 0x5 ADD SWAP1 DUP2 PUSH2 0x630 SWAP2 SWAP1 PUSH2 0x18F1 JUMP JUMPDEST POP DUP4 DUP2 PUSH1 0x6 ADD SWAP1 DUP2 PUSH2 0x642 SWAP2 SWAP1 PUSH2 0x18F1 JUMP JUMPDEST POP DUP3 DUP2 PUSH1 0x7 ADD SWAP1 DUP2 PUSH2 0x654 SWAP2 SWAP1 PUSH2 0x18F1 JUMP JUMPDEST POP DUP2 DUP2 PUSH1 0x8 ADD SWAP1 DUP2 PUSH2 0x666 SWAP2 SWAP1 PUSH2 0x18F1 JUMP JUMPDEST POP PUSH1 0x40 MLOAD DUP1 PUSH1 0x40 ADD PUSH1 0x40 MSTORE DUP1 PUSH1 0x8 DUP2 MSTORE PUSH1 0x20 ADD PUSH32 0x4861726573746564000000000000000000000000000000000000000000000000 DUP2 MSTORE POP DUP2 PUSH1 0x9 ADD SWAP1 DUP2 PUSH2 0x6AD SWAP2 SWAP1 PUSH2 0x18F1 JUMP JUMPDEST POP PUSH1 0x1 DUP9 SWAP1 DUP1 PUSH1 0x1 DUP2 SLOAD ADD DUP1 DUP3 SSTORE DUP1 SWAP2 POP POP PUSH1 0x1 SWAP1 SUB SWAP1 PUSH1 0x0 MSTORE PUSH1 0x20 PUSH1 0x0 KECCAK256 ADD PUSH1 0x0 SWAP1 SWAP2 SWAP1 SWAP2 SWAP1 SWAP2 POP SWAP1 DUP2 PUSH2 0x6E2 SWAP2 SWAP1 PUSH2 0x18F1 JUMP JUMPDEST POP POP POP POP POP POP POP POP POP JUMP JUMPDEST DUP1 PUSH1 0x2 PUSH1 0x0 DUP5 DUP2 MSTORE PUSH1 0x20 ADD SWAP1 DUP2 MSTORE PUSH1 0x20 ADD PUSH1 0x0 KECCAK256 PUSH1 0xD ADD PUSH1 0x0 PUSH2 0x100 EXP DUP2 SLOAD DUP2 PUSH1 0xFF MUL NOT AND SWAP1 DUP4 ISZERO ISZERO MUL OR SWAP1 SSTORE POP DUP3 PUSH1 0x2 PUSH1 0x0 DUP5 DUP2 MSTORE PUSH1 0x20 ADD SWAP1 DUP2 MSTORE PUSH1 0x20 ADD PUSH1 0x0 KECCAK256 PUSH1 0xE ADD PUSH1 0x0 PUSH2 0x100 EXP DUP2 SLOAD DUP2 PUSH20 0xFFFFFFFFFFFFFFFFFFFFFFFFFFFFFFFFFFFFFFFF MUL NOT AND SWAP1 DUP4 PUSH20 0xFFFFFFFFFFFFFFFFFFFFFFFFFFFFFFFFFFFFFFFF AND MUL OR SWAP1 SSTORE POP POP POP POP JUMP JUMPDEST PUSH1 0x60 PUSH1 0x0 PUSH1 0x1 DUP1 SLOAD SWAP1 POP PUSH8 0xFFFFFFFFFFFFFFFF DUP2 GT ISZERO PUSH2 0x798 JUMPI PUSH2 0x797 PUSH2 0xEF0 JUMP JUMPDEST JUMPDEST PUSH1 0x40 MLOAD SWAP1 DUP1 DUP3 MSTORE DUP1 PUSH1 0x20 MUL PUSH1 0x20 ADD DUP3 ADD PUSH1 0x40 MSTORE DUP1 ISZERO PUSH2 0x7D1 JUMPI DUP2 PUSH1 0x20 ADD JUMPDEST PUSH2 0x7BE PUSH2 0xE2C JUMP JUMPDEST DUP2 MSTORE PUSH1 0x20 ADD SWAP1 PUSH1 0x1 SWAP1 SUB SWAP1 DUP2 PUSH2 0x7B6 JUMPI SWAP1 POP JUMPDEST POP SWAP1 POP PUSH1 0x0 JUMPDEST PUSH1 0x1 DUP1 SLOAD SWAP1 POP DUP2 LT ISZERO PUSH2 0xD5C JUMPI PUSH1 0x0 PUSH1 0x1 DUP3 DUP2 SLOAD DUP2 LT PUSH2 0x7FA JUMPI PUSH2 0x7F9 PUSH2 0x1AF0 JUMP JUMPDEST JUMPDEST SWAP1 PUSH1 0x0 MSTORE PUSH1 0x20 PUSH1 0x0 KECCAK256 ADD PUSH1 0x40 MLOAD PUSH2 0x811 SWAP2 SWAP1 PUSH2 0x1BA2 JUMP JUMPDEST SWAP1 DUP2 MSTORE PUSH1 0x20 ADD PUSH1 0x40 MLOAD DUP1 SWAP2 SUB SWAP1 KECCAK256 PUSH1 0x40 MLOAD DUP1 PUSH2 0x140 ADD PUSH1 0x40 MSTORE SWAP1 DUP2 PUSH1 0x0 DUP3 ADD DUP1 SLOAD PUSH2 0x83B SWAP1 PUSH2 0x1714 JUMP JUMPDEST DUP1 PUSH1 0x1F ADD PUSH1 0x20 DUP1 SWAP2 DIV MUL PUSH1 0x20 ADD PUSH1 0x40 MLOAD SWAP1 DUP2 ADD PUSH1 0x40 MSTORE DUP1 SWAP3 SWAP2 SWAP1 DUP2 DUP2 MSTORE PUSH1 0x20 ADD DUP3 DUP1 SLOAD PUSH2 0x867 SWAP1 PUSH2 0x1714 JUMP JUMPDEST DUP1 ISZERO PUSH2 0x8B4 JUMPI DUP1 PUSH1 0x1F LT PUSH2 0x889 JUMPI PUSH2 0x100 DUP1 DUP4 SLOAD DIV MUL DUP4 MSTORE SWAP2 PUSH1 0x20 ADD SWAP2 PUSH2 0x8B4 JUMP JUMPDEST DUP3 ADD SWAP2 SWAP1 PUSH1 0x0 MSTORE PUSH1 0x20 PUSH1 0x0 KECCAK256 SWAP1 JUMPDEST DUP2 SLOAD DUP2 MSTORE SWAP1 PUSH1 0x1 ADD SWAP1 PUSH1 0x20 ADD DUP1 DUP4 GT PUSH2 0x897 JUMPI DUP3 SWAP1 SUB PUSH1 0x1F AND DUP3 ADD SWAP2 JUMPDEST POP POP POP POP POP DUP2 MSTORE PUSH1 0x20 ADD PUSH1 0x1 DUP3 ADD PUSH1 0x0 SWAP1 SLOAD SWAP1 PUSH2 0x100 EXP SWAP1 DIV PUSH20 0xFFFFFFFFFFFFFFFFFFFFFFFFFFFFFFFFFFFFFFFF AND PUSH20 0xFFFFFFFFFFFFFFFFFFFFFFFFFFFFFFFFFFFFFFFF AND PUSH20 0xFFFFFFFFFFFFFFFFFFFFFFFFFFFFFFFFFFFFFFFF AND DUP2 MSTORE PUSH1 0x20 ADD PUSH1 0x2 DUP3 ADD PUSH1 0x0 SWAP1 SLOAD SWAP1 PUSH2 0x100 EXP SWAP1 DIV PUSH20 0xFFFFFFFFFFFFFFFFFFFFFFFFFFFFFFFFFFFFFFFF AND PUSH20 0xFFFFFFFFFFFFFFFFFFFFFFFFFFFFFFFFFFFFFFFF AND PUSH20 0xFFFFFFFFFFFFFFFFFFFFFFFFFFFFFFFFFFFFFFFF AND DUP2 MSTORE PUSH1 0x20 ADD PUSH1 0x3 DUP3 ADD PUSH1 0x0 SWAP1 SLOAD SWAP1 PUSH2 0x100 EXP SWAP1 DIV PUSH20 0xFFFFFFFFFFFFFFFFFFFFFFFFFFFFFFFFFFFFFFFF AND PUSH20 0xFFFFFFFFFFFFFFFFFFFFFFFFFFFFFFFFFFFFFFFF AND PUSH20 0xFFFFFFFFFFFFFFFFFFFFFFFFFFFFFFFFFFFFFFFF AND DUP2 MSTORE PUSH1 0x20 ADD PUSH1 0x4 DUP3 ADD DUP1 SLOAD PUSH2 0x9CF SWAP1 PUSH2 0x1714 JUMP JUMPDEST DUP1 PUSH1 0x1F ADD PUSH1 0x20 DUP1 SWAP2 DIV MUL PUSH1 0x20 ADD PUSH1 0x40 MLOAD SWAP1 DUP2 ADD PUSH1 0x40 MSTORE DUP1 SWAP3 SWAP2 SWAP1 DUP2 DUP2 MSTORE PUSH1 0x20 ADD DUP3 DUP1 SLOAD PUSH2 0x9FB SWAP1 PUSH2 0x1714 JUMP JUMPDEST DUP1 ISZERO PUSH2 0xA48 JUMPI DUP1 PUSH1 0x1F LT PUSH2 0xA1D JUMPI PUSH2 0x100 DUP1 DUP4 SLOAD DIV MUL DUP4 MSTORE SWAP2 PUSH1 0x20 ADD SWAP2 PUSH2 0xA48 JUMP JUMPDEST DUP3 ADD SWAP2 SWAP1 PUSH1 0x0 MSTORE PUSH1 0x20 PUSH1 0x0 KECCAK256 SWAP1 JUMPDEST DUP2 SLOAD DUP2 MSTORE SWAP1 PUSH1 0x1 ADD SWAP1 PUSH1 0x20 ADD DUP1 DUP4 GT PUSH2 0xA2B JUMPI DUP3 SWAP1 SUB PUSH1 0x1F AND DUP3 ADD SWAP2 JUMPDEST POP POP POP POP POP DUP2 MSTORE PUSH1 0x20 ADD PUSH1 0x5 DUP3 ADD DUP1 SLOAD PUSH2 0xA61 SWAP1 PUSH2 0x1714 JUMP JUMPDEST DUP1 PUSH1 0x1F ADD PUSH1 0x20 DUP1 SWAP2 DIV MUL PUSH1 0x20 ADD PUSH1 0x40 MLOAD SWAP1 DUP2 ADD PUSH1 0x40 MSTORE DUP1 SWAP3 SWAP2 SWAP1 DUP2 DUP2 MSTORE PUSH1 0x20 ADD DUP3 DUP1 SLOAD PUSH2 0xA8D SWAP1 PUSH2 0x1714 JUMP JUMPDEST DUP1 ISZERO PUSH2 0xADA JUMPI DUP1 PUSH1 0x1F LT PUSH2 0xAAF JUMPI PUSH2 0x100 DUP1 DUP4 SLOAD DIV MUL DUP4 MSTORE SWAP2 PUSH1 0x20 ADD SWAP2 PUSH2 0xADA JUMP JUMPDEST DUP3 ADD SWAP2 SWAP1 PUSH1 0x0 MSTORE PUSH1 0x20 PUSH1 0x0 KECCAK256 SWAP1 JUMPDEST DUP2 SLOAD DUP2 MSTORE SWAP1 PUSH1 0x1 ADD SWAP1 PUSH1 0x20 ADD DUP1 DUP4 GT PUSH2 0xABD JUMPI DUP3 SWAP1 SUB PUSH1 0x1F AND DUP3 ADD SWAP2 JUMPDEST POP POP POP POP POP DUP2 MSTORE PUSH1 0x20 ADD PUSH1 0x6 DUP3 ADD DUP1 SLOAD PUSH2 0xAF3 SWAP1 PUSH2 0x1714 JUMP JUMPDEST DUP1 PUSH1 0x1F ADD PUSH1 0x20 DUP1 SWAP2 DIV MUL PUSH1 0x20 ADD PUSH1 0x40 MLOAD SWAP1 DUP2 ADD PUSH1 0x40 MSTORE DUP1 SWAP3 SWAP2 SWAP1 DUP2 DUP2 MSTORE PUSH1 0x20 ADD DUP3 DUP1 SLOAD PUSH2 0xB1F SWAP1 PUSH2 0x1714 JUMP JUMPDEST DUP1 ISZERO PUSH2 0xB6C JUMPI DUP1 PUSH1 0x1F LT PUSH2 0xB41 JUMPI PUSH2 0x100 DUP1 DUP4 SLOAD DIV MUL DUP4 MSTORE SWAP2 PUSH1 0x20 ADD SWAP2 PUSH2 0xB6C JUMP JUMPDEST DUP3 ADD SWAP2 SWAP1 PUSH1 0x0 MSTORE PUSH1 0x20 PUSH1 0x0 KECCAK256 SWAP1 JUMPDEST DUP2 SLOAD DUP2 MSTORE SWAP1 PUSH1 0x1 ADD SWAP1 PUSH1 0x20 ADD DUP1 DUP4 GT PUSH2 0xB4F JUMPI DUP3 SWAP1 SUB PUSH1 0x1F AND DUP3 ADD SWAP2 JUMPDEST POP POP POP POP POP DUP2 MSTORE PUSH1 0x20 ADD PUSH1 0x7 DUP3 ADD DUP1 SLOAD PUSH2 0xB85 SWAP1 PUSH2 0x1714 JUMP JUMPDEST DUP1 PUSH1 0x1F ADD PUSH1 0x20 DUP1 SWAP2 DIV MUL PUSH1 0x20 ADD PUSH1 0x40 MLOAD SWAP1 DUP2 ADD PUSH1 0x40 MSTORE DUP1 SWAP3 SWAP2 SWAP1 DUP2 DUP2 MSTORE PUSH1 0x20 ADD DUP3 DUP1 SLOAD PUSH2 0xBB1 SWAP1 PUSH2 0x1714 JUMP JUMPDEST DUP1 ISZERO PUSH2 0xBFE JUMPI DUP1 PUSH1 0x1F LT PUSH2 0xBD3 JUMPI PUSH2 0x100 DUP1 DUP4 SLOAD DIV MUL DUP4 MSTORE SWAP2 PUSH1 0x20 ADD SWAP2 PUSH2 0xBFE JUMP JUMPDEST DUP3 ADD SWAP2 SWAP1 PUSH1 0x0 MSTORE PUSH1 0x20 PUSH1 0x0 KECCAK256 SWAP1 JUMPDEST DUP2 SLOAD DUP2 MSTORE SWAP1 PUSH1 0x1 ADD SWAP1 PUSH1 0x20 ADD DUP1 DUP4 GT PUSH2 0xBE1 JUMPI DUP3 SWAP1 SUB PUSH1 0x1F AND DUP3 ADD SWAP2 JUMPDEST POP POP POP POP POP DUP2 MSTORE PUSH1 0x20 ADD PUSH1 0x8 DUP3 ADD DUP1 SLOAD PUSH2 0xC17 SWAP1 PUSH2 0x1714 JUMP JUMPDEST DUP1 PUSH1 0x1F ADD PUSH1 0x20 DUP1 SWAP2 DIV MUL PUSH1 0x20 ADD PUSH1 0x40 MLOAD SWAP1 DUP2 ADD PUSH1 0x40 MSTORE DUP1 SWAP3 SWAP2 SWAP1 DUP2 DUP2 MSTORE PUSH1 0x20 ADD DUP3 DUP1 SLOAD PUSH2 0xC43 SWAP1 PUSH2 0x1714 JUMP JUMPDEST DUP1 ISZERO PUSH2 0xC90 JUMPI DUP1 PUSH1 0x1F LT PUSH2 0xC65 JUMPI PUSH2 0x100 DUP1 DUP4 SLOAD DIV MUL DUP4 MSTORE SWAP2 PUSH1 0x20 ADD SWAP2 PUSH2 0xC90 JUMP JUMPDEST DUP3 ADD SWAP2 SWAP1 PUSH1 0x0 MSTORE PUSH1 0x20 PUSH1 0x0 KECCAK256 SWAP1 JUMPDEST DUP2 SLOAD DUP2 MSTORE SWAP1 PUSH1 0x1 ADD SWAP1 PUSH1 0x20 ADD DUP1 DUP4 GT PUSH2 0xC73 JUMPI DUP3 SWAP1 SUB PUSH1 0x1F AND DUP3 ADD SWAP2 JUMPDEST POP POP POP POP POP DUP2 MSTORE PUSH1 0x20 ADD PUSH1 0x9 DUP3 ADD DUP1 SLOAD PUSH2 0xCA9 SWAP1 PUSH2 0x1714 JUMP JUMPDEST DUP1 PUSH1 0x1F ADD PUSH1 0x20 DUP1 SWAP2 DIV MUL PUSH1 0x20 ADD PUSH1 0x40 MLOAD SWAP1 DUP2 ADD PUSH1 0x40 MSTORE DUP1 SWAP3 SWAP2 SWAP1 DUP2 DUP2 MSTORE PUSH1 0x20 ADD DUP3 DUP1 SLOAD PUSH2 0xCD5 SWAP1 PUSH2 0x1714 JUMP JUMPDEST DUP1 ISZERO PUSH2 0xD22 JUMPI DUP1 PUSH1 0x1F LT PUSH2 0xCF7 JUMPI PUSH2 0x100 DUP1 DUP4 SLOAD DIV MUL DUP4 MSTORE SWAP2 PUSH1 0x20 ADD SWAP2 PUSH2 0xD22 JUMP JUMPDEST DUP3 ADD SWAP2 SWAP1 PUSH1 0x0 MSTORE PUSH1 0x20 PUSH1 0x0 KECCAK256 SWAP1 JUMPDEST DUP2 SLOAD DUP2 MSTORE SWAP1 PUSH1 0x1 ADD SWAP1 PUSH1 0x20 ADD DUP1 DUP4 GT PUSH2 0xD05 JUMPI DUP3 SWAP1 SUB PUSH1 0x1F AND DUP3 ADD SWAP2 JUMPDEST POP POP POP POP POP DUP2 MSTORE POP POP DUP3 DUP3 DUP2 MLOAD DUP2 LT PUSH2 0xD3E JUMPI PUSH2 0xD3D PUSH2 0x1AF0 JUMP JUMPDEST JUMPDEST PUSH1 0x20 MUL PUSH1 0x20 ADD ADD DUP2 SWAP1 MSTORE POP DUP1 DUP1 PUSH2 0xD54 SWAP1 PUSH2 0x1BE8 JUMP JUMPDEST SWAP2 POP POP PUSH2 0x7D7 JUMP JUMPDEST POP DUP1 SWAP2 POP POP SWAP1 JUMP JUMPDEST PUSH1 0x40 MLOAD DUP1 PUSH1 0x40 ADD PUSH1 0x40 MSTORE DUP1 PUSH1 0x16 DUP2 MSTORE PUSH1 0x20 ADD PUSH32 0x526563656976656442794D616E75666163747572657200000000000000000000 DUP2 MSTORE POP PUSH1 0x0 DUP3 PUSH1 0x40 MLOAD PUSH2 0xDAA SWAP2 SWAP1 PUSH2 0x16CE JUMP JUMPDEST SWAP1 DUP2 MSTORE PUSH1 0x20 ADD PUSH1 0x40 MLOAD DUP1 SWAP2 SUB SWAP1 KECCAK256 PUSH1 0x9 ADD SWAP1 DUP2 PUSH2 0xDC7 SWAP2 SWAP1 PUSH2 0x18F1 JUMP JUMPDEST POP DUP2 PUSH1 0x0 DUP3 PUSH1 0x40 MLOAD PUSH2 0xDD9 SWAP2 SWAP1 PUSH2 0x16CE JUMP JUMPDEST SWAP1 DUP2 MSTORE PUSH1 0x20 ADD PUSH1 0x40 MLOAD DUP1 SWAP2 SUB SWAP1 KECCAK256 PUSH1 0x1 ADD PUSH1 0x0 PUSH2 0x100 EXP DUP2 SLOAD DUP2 PUSH20 0xFFFFFFFFFFFFFFFFFFFFFFFFFFFFFFFFFFFFFFFF MUL NOT AND SWAP1 DUP4 PUSH20 0xFFFFFFFFFFFFFFFFFFFFFFFFFFFFFFFFFFFFFFFF AND MUL OR SWAP1 SSTORE POP POP POP JUMP JUMPDEST PUSH1 0x40 MLOAD DUP1 PUSH2 0x140 ADD PUSH1 0x40 MSTORE DUP1 PUSH1 0x60 DUP2 MSTORE PUSH1 0x20 ADD PUSH1 0x0 PUSH20 0xFFFFFFFFFFFFFFFFFFFFFFFFFFFFFFFFFFFFFFFF AND DUP2 MSTORE PUSH1 0x20 ADD PUSH1 0x0 PUSH20 0xFFFFFFFFFFFFFFFFFFFFFFFFFFFFFFFFFFFFFFFF AND DUP2 MSTORE PUSH1 0x20 ADD PUSH1 0x0 PUSH20 0xFFFFFFFFFFFFFFFFFFFFFFFFFFFFFFFFFFFFFFFF AND DUP2 MSTORE PUSH1 0x20 ADD PUSH1 0x60 DUP2 MSTORE PUSH1 0x20 ADD PUSH1 0x60 DUP2 MSTORE PUSH1 0x20 ADD PUSH1 0x60 DUP2 MSTORE PUSH1 0x20 ADD PUSH1 0x60 DUP2 MSTORE PUSH1 0x20 ADD PUSH1 0x60 DUP2 MSTORE PUSH1 0x20 ADD PUSH1 0x60 DUP2 MSTORE POP SWAP1 JUMP JUMPDEST PUSH1 0x0 PUSH1 0x40 MLOAD SWAP1 POP SWAP1 JUMP JUMPDEST PUSH1 0x0 DUP1 REVERT JUMPDEST PUSH1 0x0 DUP1 REVERT JUMPDEST PUSH1 0x0 DUP1 REVERT JUMPDEST PUSH1 0x0 DUP1 REVERT JUMPDEST PUSH1 0x0 PUSH1 0x1F NOT PUSH1 0x1F DUP4 ADD AND SWAP1 POP SWAP2 SWAP1 POP JUMP JUMPDEST PUSH32 0x4E487B7100000000000000000000000000000000000000000000000000000000 PUSH1 0x0 MSTORE PUSH1 0x41 PUSH1 0x4 MSTORE PUSH1 0x24 PUSH1 0x0 REVERT JUMPDEST PUSH2 0xF28 DUP3 PUSH2 0xEDF JUMP JUMPDEST DUP2 ADD DUP2 DUP2 LT PUSH8 0xFFFFFFFFFFFFFFFF DUP3 GT OR ISZERO PUSH2 0xF47 JUMPI PUSH2 0xF46 PUSH2 0xEF0 JUMP JUMPDEST JUMPDEST DUP1 PUSH1 0x40 MSTORE POP POP POP JUMP JUMPDEST PUSH1 0x0 PUSH2 0xF5A PUSH2 0xEC1 JUMP JUMPDEST SWAP1 POP PUSH2 0xF66 DUP3 DUP3 PUSH2 0xF1F JUMP JUMPDEST SWAP2 SWAP1 POP JUMP JUMPDEST PUSH1 0x0 PUSH8 0xFFFFFFFFFFFFFFFF DUP3 GT ISZERO PUSH2 0xF86 JUMPI PUSH2 0xF85 PUSH2 0xEF0 JUMP JUMPDEST JUMPDEST PUSH2 0xF8F DUP3 PUSH2 0xEDF JUMP JUMPDEST SWAP1 POP PUSH1 0x20 DUP2 ADD SWAP1 POP SWAP2 SWAP1 POP JUMP JUMPDEST DUP3 DUP2 DUP4 CALLDATACOPY PUSH1 0x0 DUP4 DUP4 ADD MSTORE POP POP POP JUMP JUMPDEST PUSH1 0x0 PUSH2 0xFBE PUSH2 0xFB9 DUP5 PUSH2 0xF6B JUMP JUMPDEST PUSH2 0xF50 JUMP JUMPDEST SWAP1 POP DUP3 DUP2 MSTORE PUSH1 0x20 DUP2 ADD DUP5 DUP5 DUP5 ADD GT ISZERO PUSH2 0xFDA JUMPI PUSH2 0xFD9 PUSH2 0xEDA JUMP JUMPDEST JUMPDEST PUSH2 0xFE5 DUP5 DUP3 DUP6 PUSH2 0xF9C JUMP JUMPDEST POP SWAP4 SWAP3 POP POP POP JUMP JUMPDEST PUSH1 0x0 DUP3 PUSH1 0x1F DUP4 ADD SLT PUSH2 0x1002 JUMPI PUSH2 0x1001 PUSH2 0xED5 JUMP JUMPDEST JUMPDEST DUP2 CALLDATALOAD PUSH2 0x1012 DUP5 DUP3 PUSH1 0x20 DUP7 ADD PUSH2 0xFAB JUMP JUMPDEST SWAP2 POP POP SWAP3 SWAP2 POP POP JUMP JUMPDEST PUSH1 0x0 PUSH1 0x20 DUP3 DUP5 SUB SLT ISZERO PUSH2 0x1031 JUMPI PUSH2 0x1030 PUSH2 0xECB JUMP JUMPDEST JUMPDEST PUSH1 0x0 DUP3 ADD CALLDATALOAD PUSH8 0xFFFFFFFFFFFFFFFF DUP2 GT ISZERO PUSH2 0x104F JUMPI PUSH2 0x104E PUSH2 0xED0 JUMP JUMPDEST JUMPDEST PUSH2 0x105B DUP5 DUP3 DUP6 ADD PUSH2 0xFED JUMP JUMPDEST SWAP2 POP POP SWAP3 SWAP2 POP POP JUMP JUMPDEST PUSH1 0x0 PUSH20 0xFFFFFFFFFFFFFFFFFFFFFFFFFFFFFFFFFFFFFFFF DUP3 AND SWAP1 POP SWAP2 SWAP1 POP JUMP JUMPDEST PUSH1 0x0 PUSH2 0x108F DUP3 PUSH2 0x1064 JUMP JUMPDEST SWAP1 POP SWAP2 SWAP1 POP JUMP JUMPDEST PUSH2 0x109F DUP2 PUSH2 0x1084 JUMP JUMPDEST DUP2 EQ PUSH2 0x10AA JUMPI PUSH1 0x0 DUP1 REVERT JUMPDEST POP JUMP JUMPDEST PUSH1 0x0 DUP2 CALLDATALOAD SWAP1 POP PUSH2 0x10BC DUP2 PUSH2 0x1096 JUMP JUMPDEST SWAP3 SWAP2 POP POP JUMP JUMPDEST PUSH1 0x0 DUP1 PUSH1 0x40 DUP4 DUP6 SUB SLT ISZERO PUSH2 0x10D9 JUMPI PUSH2 0x10D8 PUSH2 0xECB JUMP JUMPDEST JUMPDEST PUSH1 0x0 DUP4 ADD CALLDATALOAD PUSH8 0xFFFFFFFFFFFFFFFF DUP2 GT ISZERO PUSH2 0x10F7 JUMPI PUSH2 0x10F6 PUSH2 0xED0 JUMP JUMPDEST JUMPDEST PUSH2 0x1103 DUP6 DUP3 DUP7 ADD PUSH2 0xFED JUMP JUMPDEST SWAP3 POP POP PUSH1 0x20 PUSH2 0x1114 DUP6 DUP3 DUP7 ADD PUSH2 0x10AD JUMP JUMPDEST SWAP2 POP POP SWAP3 POP SWAP3 SWAP1 POP JUMP JUMPDEST PUSH1 0x0 DUP2 SWAP1 POP SWAP2 SWAP1 POP JUMP JUMPDEST PUSH2 0x1131 DUP2 PUSH2 0x111E JUMP JUMPDEST DUP2 EQ PUSH2 0x113C JUMPI PUSH1 0x0 DUP1 REVERT JUMPDEST POP JUMP JUMPDEST PUSH1 0x0 DUP2 CALLDATALOAD SWAP1 POP PUSH2 0x114E DUP2 PUSH2 0x1128 JUMP JUMPDEST SWAP3 SWAP2 POP POP JUMP JUMPDEST PUSH1 0x0 DUP1 PUSH1 0x0 DUP1 PUSH1 0x0 PUSH1 0xA0 DUP7 DUP9 SUB SLT ISZERO PUSH2 0x1170 JUMPI PUSH2 0x116F PUSH2 0xECB JUMP JUMPDEST JUMPDEST PUSH1 0x0 DUP7 ADD CALLDATALOAD PUSH8 0xFFFFFFFFFFFFFFFF DUP2 GT ISZERO PUSH2 0x118E JUMPI PUSH2 0x118D PUSH2 0xED0 JUMP JUMPDEST JUMPDEST PUSH2 0x119A DUP9 DUP3 DUP10 ADD PUSH2 0xFED JUMP JUMPDEST SWAP6 POP POP PUSH1 0x20 PUSH2 0x11AB DUP9 DUP3 DUP10 ADD PUSH2 0x113F JUMP JUMPDEST SWAP5 POP POP PUSH1 0x40 PUSH2 0x11BC DUP9 DUP3 DUP10 ADD PUSH2 0x113F JUMP JUMPDEST SWAP4 POP POP PUSH1 0x60 PUSH2 0x11CD DUP9 DUP3 DUP10 ADD PUSH2 0x113F JUMP JUMPDEST SWAP3 POP POP PUSH1 0x80 PUSH2 0x11DE DUP9 DUP3 DUP10 ADD PUSH2 0x10AD JUMP JUMPDEST SWAP2 POP POP SWAP3 SWAP6 POP SWAP3 SWAP6 SWAP1 SWAP4 POP JUMP JUMPDEST PUSH1 0x0 DUP1 PUSH1 0x0 DUP1 PUSH1 0x0 DUP1 PUSH1 0x0 PUSH1 0xE0 DUP9 DUP11 SUB SLT ISZERO PUSH2 0x120A JUMPI PUSH2 0x1209 PUSH2 0xECB JUMP JUMPDEST JUMPDEST PUSH1 0x0 DUP9 ADD CALLDATALOAD PUSH8 0xFFFFFFFFFFFFFFFF DUP2 GT ISZERO PUSH2 0x1228 JUMPI PUSH2 0x1227 PUSH2 0xED0 JUMP JUMPDEST JUMPDEST PUSH2 0x1234 DUP11 DUP3 DUP12 ADD PUSH2 0xFED JUMP JUMPDEST SWAP8 POP POP PUSH1 0x20 PUSH2 0x1245 DUP11 DUP3 DUP12 ADD PUSH2 0x10AD JUMP JUMPDEST SWAP7 POP POP PUSH1 0x40 DUP9 ADD CALLDATALOAD PUSH8 0xFFFFFFFFFFFFFFFF DUP2 GT ISZERO PUSH2 0x1266 JUMPI PUSH2 0x1265 PUSH2 0xED0 JUMP JUMPDEST JUMPDEST PUSH2 0x1272 DUP11 DUP3 DUP12 ADD PUSH2 0xFED JUMP JUMPDEST SWAP6 POP POP PUSH1 0x60 DUP9 ADD CALLDATALOAD PUSH8 0xFFFFFFFFFFFFFFFF DUP2 GT ISZERO PUSH2 0x1293 JUMPI PUSH2 0x1292 PUSH2 0xED0 JUMP JUMPDEST JUMPDEST PUSH2 0x129F DUP11 DUP3 DUP12 ADD PUSH2 0xFED JUMP JUMPDEST SWAP5 POP POP PUSH1 0x80 DUP9 ADD CALLDATALOAD PUSH8 0xFFFFFFFFFFFFFFFF DUP2 GT ISZERO PUSH2 0x12C0 JUMPI PUSH2 0x12BF PUSH2 0xED0 JUMP JUMPDEST JUMPDEST PUSH2 0x12CC DUP11 DUP3 DUP12 ADD PUSH2 0xFED JUMP JUMPDEST SWAP4 POP POP PUSH1 0xA0 DUP9 ADD CALLDATALOAD PUSH8 0xFFFFFFFFFFFFFFFF DUP2 GT ISZERO PUSH2 0x12ED JUMPI PUSH2 0x12EC PUSH2 0xED0 JUMP JUMPDEST JUMPDEST PUSH2 0x12F9 DUP11 DUP3 DUP12 ADD PUSH2 0xFED JUMP JUMPDEST SWAP3 POP POP PUSH1 0xC0 DUP9 ADD CALLDATALOAD PUSH8 0xFFFFFFFFFFFFFFFF DUP2 GT ISZERO PUSH2 0x131A JUMPI PUSH2 0x1319 PUSH2 0xED0 JUMP JUMPDEST JUMPDEST PUSH2 0x1326 DUP11 DUP3 DUP12 ADD PUSH2 0xFED JUMP JUMPDEST SWAP2 POP POP SWAP3 SWAP6 SWAP9 SWAP2 SWAP5 SWAP8 POP SWAP3 SWAP6 POP JUMP JUMPDEST PUSH1 0x0 DUP2 ISZERO ISZERO SWAP1 POP SWAP2 SWAP1 POP JUMP JUMPDEST PUSH2 0x134A DUP2 PUSH2 0x1335 JUMP JUMPDEST DUP2 EQ PUSH2 0x1355 JUMPI PUSH1 0x0 DUP1 REVERT JUMPDEST POP JUMP JUMPDEST PUSH1 0x0 DUP2 CALLDATALOAD SWAP1 POP PUSH2 0x1367 DUP2 PUSH2 0x1341 JUMP JUMPDEST SWAP3 SWAP2 POP POP JUMP JUMPDEST PUSH1 0x0 DUP1 PUSH1 0x0 PUSH1 0x60 DUP5 DUP7 SUB SLT ISZERO PUSH2 0x1386 JUMPI PUSH2 0x1385 PUSH2 0xECB JUMP JUMPDEST JUMPDEST PUSH1 0x0 PUSH2 0x1394 DUP7 DUP3 DUP8 ADD PUSH2 0x10AD JUMP JUMPDEST SWAP4 POP POP PUSH1 0x20 PUSH2 0x13A5 DUP7 DUP3 DUP8 ADD PUSH2 0x113F JUMP JUMPDEST SWAP3 POP POP PUSH1 0x40 PUSH2 0x13B6 DUP7 DUP3 DUP8 ADD PUSH2 0x1358 JUMP JUMPDEST SWAP2 POP POP SWAP3 POP SWAP3 POP SWAP3 JUMP JUMPDEST PUSH1 0x0 DUP2 MLOAD SWAP1 POP SWAP2 SWAP1 POP JUMP JUMPDEST PUSH1 0x0 DUP3 DUP3 MSTORE PUSH1 0x20 DUP3 ADD SWAP1 POP SWAP3 SWAP2 POP POP JUMP JUMPDEST PUSH1 0x0 DUP2 SWAP1 POP PUSH1 0x20 DUP3 ADD SWAP1 POP SWAP2 SWAP1 POP JUMP JUMPDEST PUSH1 0x0 DUP2 MLOAD SWAP1 POP SWAP2 SWAP1 POP JUMP JUMPDEST PUSH1 0x0 DUP3 DUP3 MSTORE PUSH1 0x20 DUP3 ADD SWAP1 POP SWAP3 SWAP2 POP POP JUMP JUMPDEST PUSH1 0x0 JUMPDEST DUP4 DUP2 LT ISZERO PUSH2 0x1426 JUMPI DUP1 DUP3 ADD MLOAD DUP2 DUP5 ADD MSTORE PUSH1 0x20 DUP2 ADD SWAP1 POP PUSH2 0x140B JUMP JUMPDEST PUSH1 0x0 DUP5 DUP5 ADD MSTORE POP POP POP POP JUMP JUMPDEST PUSH1 0x0 PUSH2 0x143D DUP3 PUSH2 0x13EC JUMP JUMPDEST PUSH2 0x1447 DUP2 DUP6 PUSH2 0x13F7 JUMP JUMPDEST SWAP4 POP PUSH2 0x1457 DUP2 DUP6 PUSH1 0x20 DUP7 ADD PUSH2 0x1408 JUMP JUMPDEST PUSH2 0x1460 DUP2 PUSH2 0xEDF JUMP JUMPDEST DUP5 ADD SWAP2 POP POP SWAP3 SWAP2 POP POP JUMP JUMPDEST PUSH2 0x1474 DUP2 PUSH2 0x1084 JUMP JUMPDEST DUP3 MSTORE POP POP JUMP JUMPDEST PUSH1 0x0 PUSH2 0x140 DUP4 ADD PUSH1 0x0 DUP4 ADD MLOAD DUP5 DUP3 SUB PUSH1 0x0 DUP7 ADD MSTORE PUSH2 0x1498 DUP3 DUP3 PUSH2 0x1432 JUMP JUMPDEST SWAP2 POP POP PUSH1 0x20 DUP4 ADD MLOAD PUSH2 0x14AD PUSH1 0x20 DUP7 ADD DUP3 PUSH2 0x146B JUMP JUMPDEST POP PUSH1 0x40 DUP4 ADD MLOAD PUSH2 0x14C0 PUSH1 0x40 DUP7 ADD DUP3 PUSH2 0x146B JUMP JUMPDEST POP PUSH1 0x60 DUP4 ADD MLOAD PUSH2 0x14D3 PUSH1 0x60 DUP7 ADD DUP3 PUSH2 0x146B JUMP JUMPDEST POP PUSH1 0x80 DUP4 ADD MLOAD DUP5 DUP3 SUB PUSH1 0x80 DUP7 ADD MSTORE PUSH2 0x14EB DUP3 DUP3 PUSH2 0x1432 JUMP JUMPDEST SWAP2 POP POP PUSH1 0xA0 DUP4 ADD MLOAD DUP5 DUP3 SUB PUSH1 0xA0 DUP7 ADD MSTORE PUSH2 0x1505 DUP3 DUP3 PUSH2 0x1432 JUMP JUMPDEST SWAP2 POP POP PUSH1 0xC0 DUP4 ADD MLOAD DUP5 DUP3 SUB PUSH1 0xC0 DUP7 ADD MSTORE PUSH2 0x151F DUP3 DUP3 PUSH2 0x1432 JUMP JUMPDEST SWAP2 POP POP PUSH1 0xE0 DUP4 ADD MLOAD DUP5 DUP3 SUB PUSH1 0xE0 DUP7 ADD MSTORE PUSH2 0x1539 DUP3 DUP3 PUSH2 0x1432 JUMP JUMPDEST SWAP2 POP POP PUSH2 0x100 DUP4 ADD MLOAD DUP5 DUP3 SUB PUSH2 0x100 DUP7 ADD MSTORE PUSH2 0x1555 DUP3 DUP3 PUSH2 0x1432 JUMP JUMPDEST SWAP2 POP POP PUSH2 0x120 DUP4 ADD MLOAD DUP5 DUP3 SUB PUSH2 0x120 DUP7 ADD MSTORE PUSH2 0x1571 DUP3 DUP3 PUSH2 0x1432 JUMP JUMPDEST SWAP2 POP POP DUP1 SWAP2 POP POP SWAP3 SWAP2 POP POP JUMP JUMPDEST PUSH1 0x0 PUSH2 0x158A DUP4 DUP4 PUSH2 0x147A JUMP JUMPDEST SWAP1 POP SWAP3 SWAP2 POP POP JUMP JUMPDEST PUSH1 0x0 PUSH1 0x20 DUP3 ADD SWAP1 POP SWAP2 SWAP1 POP JUMP JUMPDEST PUSH1 0x0 PUSH2 0x15AA DUP3 PUSH2 0x13C0 JUMP JUMPDEST PUSH2 0x15B4 DUP2 DUP6 PUSH2 0x13CB JUMP JUMPDEST SWAP4 POP DUP4 PUSH1 0x20 DUP3 MUL DUP6 ADD PUSH2 0x15C6 DUP6 PUSH2 0x13DC JUMP JUMPDEST DUP1 PUSH1 0x0 JUMPDEST DUP6 DUP2 LT ISZERO PUSH2 0x1602 JUMPI DUP5 DUP5 SUB DUP10 MSTORE DUP2 MLOAD PUSH2 0x15E3 DUP6 DUP3 PUSH2 0x157E JUMP JUMPDEST SWAP5 POP PUSH2 0x15EE DUP4 PUSH2 0x1592 JUMP JUMPDEST SWAP3 POP PUSH1 0x20 DUP11 ADD SWAP10 POP POP PUSH1 0x1 DUP2 ADD SWAP1 POP PUSH2 0x15CA JUMP JUMPDEST POP DUP3 SWAP8 POP DUP8 SWAP6 POP POP POP POP POP POP SWAP3 SWAP2 POP POP JUMP JUMPDEST PUSH1 0x0 PUSH1 0x20 DUP3 ADD SWAP1 POP DUP2 DUP2 SUB PUSH1 0x0 DUP4 ADD MSTORE PUSH2 0x162E DUP2 DUP5 PUSH2 0x159F JUMP JUMPDEST SWAP1 POP SWAP3 SWAP2 POP POP JUMP JUMPDEST PUSH1 0x0 DUP1 PUSH1 0x40 DUP4 DUP6 SUB SLT ISZERO PUSH2 0x164D JUMPI PUSH2 0x164C PUSH2 0xECB JUMP JUMPDEST JUMPDEST PUSH1 0x0 PUSH2 0x165B DUP6 DUP3 DUP7 ADD PUSH2 0x10AD JUMP JUMPDEST SWAP3 POP POP PUSH1 0x20 DUP4 ADD CALLDATALOAD PUSH8 0xFFFFFFFFFFFFFFFF DUP2 GT ISZERO PUSH2 0x167C JUMPI PUSH2 0x167B PUSH2 0xED0 JUMP JUMPDEST JUMPDEST PUSH2 0x1688 DUP6 DUP3 DUP7 ADD PUSH2 0xFED JUMP JUMPDEST SWAP2 POP POP SWAP3 POP SWAP3 SWAP1 POP JUMP JUMPDEST PUSH1 0x0 DUP2 SWAP1 POP SWAP3 SWAP2 POP POP JUMP JUMPDEST PUSH1 0x0 PUSH2 0x16A8 DUP3 PUSH2 0x13EC JUMP JUMPDEST PUSH2 0x16B2 DUP2 DUP6 PUSH2 0x1692 JUMP JUMPDEST SWAP4 POP PUSH2 0x16C2 DUP2 DUP6 PUSH1 0x20 DUP7 ADD PUSH2 0x1408 JUMP JUMPDEST DUP1 DUP5 ADD SWAP2 POP POP SWAP3 SWAP2 POP POP JUMP JUMPDEST PUSH1 0x0 PUSH2 0x16DA DUP3 DUP5 PUSH2 0x169D JUMP JUMPDEST SWAP2 POP DUP2 SWAP1 POP SWAP3 SWAP2 POP POP JUMP JUMPDEST PUSH32 0x4E487B7100000000000000000000000000000000000000000000000000000000 PUSH1 0x0 MSTORE PUSH1 0x22 PUSH1 0x4 MSTORE PUSH1 0x24 PUSH1 0x0 REVERT JUMPDEST PUSH1 0x0 PUSH1 0x2 DUP3 DIV SWAP1 POP PUSH1 0x1 DUP3 AND DUP1 PUSH2 0x172C JUMPI PUSH1 0x7F DUP3 AND SWAP2 POP JUMPDEST PUSH1 0x20 DUP3 LT DUP2 SUB PUSH2 0x173F JUMPI PUSH2 0x173E PUSH2 0x16E5 JUMP JUMPDEST JUMPDEST POP SWAP2 SWAP1 POP JUMP JUMPDEST PUSH1 0x0 DUP2 SWAP1 POP DUP2 PUSH1 0x0 MSTORE PUSH1 0x20 PUSH1 0x0 KECCAK256 SWAP1 POP SWAP2 SWAP1 POP JUMP JUMPDEST PUSH1 0x0 PUSH1 0x20 PUSH1 0x1F DUP4 ADD DIV SWAP1 POP SWAP2 SWAP1 POP JUMP JUMPDEST PUSH1 0x0 DUP3 DUP3 SHL SWAP1 POP SWAP3 SWAP2 POP POP JUMP JUMPDEST PUSH1 0x0 PUSH1 0x8 DUP4 MUL PUSH2 0x17A7 PUSH32 0xFFFFFFFFFFFFFFFFFFFFFFFFFFFFFFFFFFFFFFFFFFFFFFFFFFFFFFFFFFFFFFFF DUP3 PUSH2 0x176A JUMP JUMPDEST PUSH2 0x17B1 DUP7 DUP4 PUSH2 0x176A JUMP JUMPDEST SWAP6 POP DUP1 NOT DUP5 AND SWAP4 POP DUP1 DUP7 AND DUP5 OR SWAP3 POP POP POP SWAP4 SWAP3 POP POP POP JUMP JUMPDEST PUSH1 0x0 DUP2 SWAP1 POP SWAP2 SWAP1 POP JUMP JUMPDEST PUSH1 0x0 PUSH2 0x17EE PUSH2 0x17E9 PUSH2 0x17E4 DUP5 PUSH2 0x111E JUMP JUMPDEST PUSH2 0x17C9 JUMP JUMPDEST PUSH2 0x111E JUMP JUMPDEST SWAP1 POP SWAP2 SWAP1 POP JUMP JUMPDEST PUSH1 0x0 DUP2 SWAP1 POP SWAP2 SWAP1 POP JUMP JUMPDEST PUSH2 0x1808 DUP4 PUSH2 0x17D3 JUMP JUMPDEST PUSH2 0x181C PUSH2 0x1814 DUP3 PUSH2 0x17F5 JUMP JUMPDEST DUP5 DUP5 SLOAD PUSH2 0x1777 JUMP JUMPDEST DUP3 SSTORE POP POP POP POP JUMP JUMPDEST PUSH1 0x0 SWAP1 JUMP JUMPDEST PUSH2 0x1831 PUSH2 0x1824 JUMP JUMPDEST PUSH2 0x183C DUP2 DUP5 DUP5 PUSH2 0x17FF JUMP JUMPDEST POP POP POP JUMP JUMPDEST JUMPDEST DUP2 DUP2 LT ISZERO PUSH2 0x1860 JUMPI PUSH2 0x1855 PUSH1 0x0 DUP3 PUSH2 0x1829 JUMP JUMPDEST PUSH1 0x1 DUP2 ADD SWAP1 POP PUSH2 0x1842 JUMP JUMPDEST POP POP JUMP JUMPDEST PUSH1 0x1F DUP3 GT ISZERO PUSH2 0x18A5 JUMPI PUSH2 0x1876 DUP2 PUSH2 0x1745 JUMP JUMPDEST PUSH2 0x187F DUP5 PUSH2 0x175A JUMP JUMPDEST DUP2 ADD PUSH1 0x20 DUP6 LT ISZERO PUSH2 0x188E JUMPI DUP2 SWAP1 POP JUMPDEST PUSH2 0x18A2 PUSH2 0x189A DUP6 PUSH2 0x175A JUMP JUMPDEST DUP4 ADD DUP3 PUSH2 0x1841 JUMP JUMPDEST POP POP JUMPDEST POP POP POP JUMP JUMPDEST PUSH1 0x0 DUP3 DUP3 SHR SWAP1 POP SWAP3 SWAP2 POP POP JUMP JUMPDEST PUSH1 0x0 PUSH2 0x18C8 PUSH1 0x0 NOT DUP5 PUSH1 0x8 MUL PUSH2 0x18AA JUMP JUMPDEST NOT DUP1 DUP4 AND SWAP2 POP POP SWAP3 SWAP2 POP POP JUMP JUMPDEST PUSH1 0x0 PUSH2 0x18E1 DUP4 DUP4 PUSH2 0x18B7 JUMP JUMPDEST SWAP2 POP DUP3 PUSH1 0x2 MUL DUP3 OR SWAP1 POP SWAP3 SWAP2 POP POP JUMP JUMPDEST PUSH2 0x18FA DUP3 PUSH2 0x13EC JUMP JUMPDEST PUSH8 0xFFFFFFFFFFFFFFFF DUP2 GT ISZERO PUSH2 0x1913 JUMPI PUSH2 0x1912 PUSH2 0xEF0 JUMP JUMPDEST JUMPDEST PUSH2 0x191D DUP3 SLOAD PUSH2 0x1714 JUMP JUMPDEST PUSH2 0x1928 DUP3 DUP3 DUP6 PUSH2 0x1864 JUMP JUMPDEST PUSH1 0x0 PUSH1 0x20 SWAP1 POP PUSH1 0x1F DUP4 GT PUSH1 0x1 DUP2 EQ PUSH2 0x195B JUMPI PUSH1 0x0 DUP5 ISZERO PUSH2 0x1949 JUMPI DUP3 DUP8 ADD MLOAD SWAP1 POP JUMPDEST PUSH2 0x1953 DUP6 DUP3 PUSH2 0x18D5 JUMP JUMPDEST DUP7 SSTORE POP PUSH2 0x19BB JUMP JUMPDEST PUSH1 0x1F NOT DUP5 AND PUSH2 0x1969 DUP7 PUSH2 0x1745 JUMP JUMPDEST PUSH1 0x0 JUMPDEST DUP3 DUP2 LT ISZERO PUSH2 0x1991 JUMPI DUP5 DUP10 ADD MLOAD DUP3 SSTORE PUSH1 0x1 DUP3 ADD SWAP2 POP PUSH1 0x20 DUP6 ADD SWAP5 POP PUSH1 0x20 DUP2 ADD SWAP1 POP PUSH2 0x196C JUMP JUMPDEST DUP7 DUP4 LT ISZERO PUSH2 0x19AE JUMPI DUP5 DUP10 ADD MLOAD PUSH2 0x19AA PUSH1 0x1F DUP10 AND DUP3 PUSH2 0x18B7 JUMP JUMPDEST DUP4 SSTORE POP JUMPDEST PUSH1 0x1 PUSH1 0x2 DUP9 MUL ADD DUP9 SSTORE POP POP POP JUMPDEST POP POP POP POP POP POP JUMP JUMPDEST PUSH1 0x0 DUP2 SLOAD SWAP1 POP PUSH2 0x19D2 DUP2 PUSH2 0x1714 JUMP JUMPDEST SWAP1 POP SWAP2 SWAP1 POP JUMP JUMPDEST DUP2 DUP2 SUB PUSH2 0x19E7 JUMPI POP POP PUSH2 0x1ABF JUMP JUMPDEST PUSH2 0x19F0 DUP3 PUSH2 0x19C3 JUMP JUMPDEST PUSH8 0xFFFFFFFFFFFFFFFF DUP2 GT ISZERO PUSH2 0x1A09 JUMPI PUSH2 0x1A08 PUSH2 0xEF0 JUMP JUMPDEST JUMPDEST PUSH2 0x1A13 DUP3 SLOAD PUSH2 0x1714 JUMP JUMPDEST PUSH2 0x1A1E DUP3 DUP3 DUP6 PUSH2 0x1864 JUMP JUMPDEST PUSH1 0x0 PUSH1 0x1F DUP4 GT PUSH1 0x1 DUP2 EQ PUSH2 0x1A4D JUMPI PUSH1 0x0 DUP5 ISZERO PUSH2 0x1A3B JUMPI DUP3 DUP8 ADD SLOAD SWAP1 POP JUMPDEST PUSH2 0x1A45 DUP6 DUP3 PUSH2 0x18D5 JUMP JUMPDEST DUP7 SSTORE POP PUSH2 0x1AB8 JUMP JUMPDEST PUSH1 0x1F NOT DUP5 AND PUSH2 0x1A5B DUP8 PUSH2 0x1745 JUMP JUMPDEST SWAP7 POP PUSH2 0x1A66 DUP7 PUSH2 0x1745 JUMP JUMPDEST PUSH1 0x0 JUMPDEST DUP3 DUP2 LT ISZERO PUSH2 0x1A8E JUMPI DUP5 DUP10 ADD SLOAD DUP3 SSTORE PUSH1 0x1 DUP3 ADD SWAP2 POP PUSH1 0x1 DUP6 ADD SWAP5 POP PUSH1 0x20 DUP2 ADD SWAP1 POP PUSH2 0x1A69 JUMP JUMPDEST DUP7 DUP4 LT ISZERO PUSH2 0x1AAB JUMPI DUP5 DUP10 ADD SLOAD PUSH2 0x1AA7 PUSH1 0x1F DUP10 AND DUP3 PUSH2 0x18B7 JUMP JUMPDEST DUP4 SSTORE POP JUMPDEST PUSH1 0x1 PUSH1 0x2 DUP9 MUL ADD DUP9 SSTORE POP POP POP JUMPDEST POP POP POP POP POP POP JUMPDEST JUMP JUMPDEST PUSH32 0x4E487B7100000000000000000000000000000000000000000000000000000000 PUSH1 0x0 MSTORE PUSH1 0x21 PUSH1 0x4 MSTORE PUSH1 0x24 PUSH1 0x0 REVERT JUMPDEST PUSH32 0x4E487B7100000000000000000000000000000000000000000000000000000000 PUSH1 0x0 MSTORE PUSH1 0x32 PUSH1 0x4 MSTORE PUSH1 0x24 PUSH1 0x0 REVERT JUMPDEST PUSH1 0x0 DUP2 SLOAD PUSH2 0x1B2C DUP2 PUSH2 0x1714 JUMP JUMPDEST PUSH2 0x1B36 DUP2 DUP7 PUSH2 0x1692 JUMP JUMPDEST SWAP5 POP PUSH1 0x1 DUP3 AND PUSH1 0x0 DUP2 EQ PUSH2 0x1B51 JUMPI PUSH1 0x1 DUP2 EQ PUSH2 0x1B66 JUMPI PUSH2 0x1B99 JUMP JUMPDEST PUSH1 0xFF NOT DUP4 AND DUP7 MSTORE DUP2 ISZERO ISZERO DUP3 MUL DUP7 ADD SWAP4 POP PUSH2 0x1B99 JUMP JUMPDEST PUSH2 0x1B6F DUP6 PUSH2 0x1745 JUMP JUMPDEST PUSH1 0x0 JUMPDEST DUP4 DUP2 LT ISZERO PUSH2 0x1B91 JUMPI DUP2 SLOAD DUP2 DUP10 ADD MSTORE PUSH1 0x1 DUP3 ADD SWAP2 POP PUSH1 0x20 DUP2 ADD SWAP1 POP PUSH2 0x1B72 JUMP JUMPDEST DUP4 DUP9 ADD SWAP6 POP POP POP JUMPDEST POP POP POP SWAP3 SWAP2 POP POP JUMP JUMPDEST PUSH1 0x0 PUSH2 0x1BAE DUP3 DUP5 PUSH2 0x1B1F JUMP JUMPDEST SWAP2 POP DUP2 SWAP1 POP SWAP3 SWAP2 POP POP JUMP JUMPDEST PUSH32 0x4E487B7100000000000000000000000000000000000000000000000000000000 PUSH1 0x0 MSTORE PUSH1 0x11 PUSH1 0x4 MSTORE PUSH1 0x24 PUSH1 0x0 REVERT JUMPDEST PUSH1 0x0 PUSH2 0x1BF3 DUP3 PUSH2 0x111E JUMP JUMPDEST SWAP2 POP PUSH32 0xFFFFFFFFFFFFFFFFFFFFFFFFFFFFFFFFFFFFFFFFFFFFFFFFFFFFFFFFFFFFFFFF DUP3 SUB PUSH2 0x1C25 JUMPI PUSH2 0x1C24 PUSH2 0x1BB9 JUMP JUMPDEST JUMPDEST PUSH1 0x1 DUP3 ADD SWAP1 POP SWAP2 SWAP1 POP JUMP INVALID LOG2 PUSH5 0x6970667358 0x22 SLT KECCAK256 GASLIMIT DELEGATECALL 0xD1 0xA8 0xF6 0xE1 DUP12 0xAF MULMOD 0x2E 0x5F CALLDATACOPY 0xE3 DUP13 0xDA 0xD1 ADD 0xE EQ 0xB6 TIMESTAMP SLOAD PUSH9 0x1C8AFE41262976D5B5 PUSH5 0x736F6C6343 STOP ADDMOD GT STOP CALLER "},"methodIdentifiers":{"checkQualityRice(address,uint256,bool)":"334b50bc","getAllPaddy()":"a2f8b95b","harvestPaddy(string,address,string,string,string,string,string)":"1f27e7e4","packRice(string,uint256,uint256,uint256,address)":"1ad1d00e","processPaddy(string)":"0249e588","receivedByManufacturer(address,string)":"ef254e21","shipToManufacturer(string,address)":"0fcd0903"}}}}}