{
  "_format": "hh-sol-artifact-1",
  "contractName": "Role",
  "sourceName": "contracts/Role.sol",
  "abi": [
    {
      "inputs": [
        {
          "internalType": "address",
          "name": "_addr",
          "type": "address"
        },
        {
          "internalType": "bool",
          "name": "_hasAccess",
          "type": "bool"
        }
      ],
      "name": "changeAccess",
      "outputs": [],
      "stateMutability": "nonpayable",
      "type": "function"
    },
    {
      "inputs": [
        {
          "internalType": "address",
          "name": "_addr",
          "type": "address"
        },
        {
          "internalType": "string",
          "name": "_name",
          "type": "string"
        }
      ],
      "name": "changeName",
      "outputs": [],
      "stateMutability": "nonpayable",
      "type": "function"
    },
    {
      "inputs": [
        {
          "internalType": "address",
          "name": "_addr",
          "type": "address"
        },
        {
          "internalType": "string",
          "name": "role",
          "type": "string"
        }
      ],
      "name": "changeRole",
      "outputs": [],
      "stateMutability": "nonpayable",
      "type": "function"
    },
    {
      "inputs": [
        {
          "internalType": "address",
          "name": "_addr",
          "type": "address"
        }
      ],
      "name": "getUser",
      "outputs": [
        {
          "internalType": "string",
          "name": "",
          "type": "string"
        },
        {
          "internalType": "string",
          "name": "",
          "type": "string"
        },
        {
          "internalType": "bool",
          "name": "",
          "type": "bool"
        }
      ],
      "stateMutability": "view",
      "type": "function"
    },
    {
      "inputs": [
        {
          "internalType": "address",
          "name": "_addr",
          "type": "address"
        },
        {
          "internalType": "string",
          "name": "_role",
          "type": "string"
        },
        {
          "internalType": "string",
          "name": "_name",
          "type": "string"
        }
      ],
      "name": "setUser",
      "outputs": [],
      "stateMutability": "nonpayable",
      "type": "function"
    }
  ],
  "bytecode": "0x608060405234801561001057600080fd5b50610be1806100206000396000f3fe608060405234801561001057600080fd5b50600436106100575760003560e01c806345ca25ed1461005c57806368f43a59146100785780636f77926b14610094578063b5b94ea5146100c6578063ec618a53146100e2575b600080fd5b61007660048036038101906100719190610664565b6100fe565b005b610092600480360381019061008d91906106c0565b610151565b005b6100ae60048036038101906100a9919061074b565b610201565b6040516100bd93929190610812565b60405180910390f35b6100e060048036038101906100db9190610664565b6103fc565b005b6100fc60048036038101906100f79190610883565b61044f565b005b806000808473ffffffffffffffffffffffffffffffffffffffff1673ffffffffffffffffffffffffffffffffffffffff168152602001908152602001600020600001908161014c9190610ad9565b505050565b6040518060600160405280828152602001838152602001600115158152506000808573ffffffffffffffffffffffffffffffffffffffff1673ffffffffffffffffffffffffffffffffffffffff16815260200190815260200160002060008201518160000190816101c29190610ad9565b5060208201518160010190816101d89190610ad9565b5060408201518160020160006101000a81548160ff021916908315150217905550905050505050565b60608060008060008573ffffffffffffffffffffffffffffffffffffffff1673ffffffffffffffffffffffffffffffffffffffff1681526020019081526020016000206001016000808673ffffffffffffffffffffffffffffffffffffffff1673ffffffffffffffffffffffffffffffffffffffff1681526020019081526020016000206000016000808773ffffffffffffffffffffffffffffffffffffffff1673ffffffffffffffffffffffffffffffffffffffff16815260200190815260200160002060020160009054906101000a900460ff168280546102e3906108f2565b80601f016020809104026020016040519081016040528092919081815260200182805461030f906108f2565b801561035c5780601f106103315761010080835404028352916020019161035c565b820191906000526020600020905b81548152906001019060200180831161033f57829003601f168201915b5050505050925081805461036f906108f2565b80601f016020809104026020016040519081016040528092919081815260200182805461039b906108f2565b80156103e85780601f106103bd576101008083540402835291602001916103e8565b820191906000526020600020905b8154815290600101906020018083116103cb57829003601f168201915b505050505091509250925092509193909250565b806000808473ffffffffffffffffffffffffffffffffffffffff1673ffffffffffffffffffffffffffffffffffffffff168152602001908152602001600020600101908161044a9190610ad9565b505050565b806000808473ffffffffffffffffffffffffffffffffffffffff1673ffffffffffffffffffffffffffffffffffffffff16815260200190815260200160002060020160006101000a81548160ff0219169083151502179055505050565b6000604051905090565b600080fd5b600080fd5b600073ffffffffffffffffffffffffffffffffffffffff82169050919050565b60006104eb826104c0565b9050919050565b6104fb816104e0565b811461050657600080fd5b50565b600081359050610518816104f2565b92915050565b600080fd5b600080fd5b6000601f19601f8301169050919050565b7f4e487b7100000000000000000000000000000000000000000000000000000000600052604160045260246000fd5b61057182610528565b810181811067ffffffffffffffff821117156105905761058f610539565b5b80604052505050565b60006105a36104ac565b90506105af8282610568565b919050565b600067ffffffffffffffff8211156105cf576105ce610539565b5b6105d882610528565b9050602081019050919050565b82818337600083830152505050565b6000610607610602846105b4565b610599565b90508281526020810184848401111561062357610622610523565b5b61062e8482856105e5565b509392505050565b600082601f83011261064b5761064a61051e565b5b813561065b8482602086016105f4565b91505092915050565b6000806040838503121561067b5761067a6104b6565b5b600061068985828601610509565b925050602083013567ffffffffffffffff8111156106aa576106a96104bb565b5b6106b685828601610636565b9150509250929050565b6000806000606084860312156106d9576106d86104b6565b5b60006106e786828701610509565b935050602084013567ffffffffffffffff811115610708576107076104bb565b5b61071486828701610636565b925050604084013567ffffffffffffffff811115610735576107346104bb565b5b61074186828701610636565b9150509250925092565b600060208284031215610761576107606104b6565b5b600061076f84828501610509565b91505092915050565b600081519050919050565b600082825260208201905092915050565b60005b838110156107b2578082015181840152602081019050610797565b60008484015250505050565b60006107c982610778565b6107d38185610783565b93506107e3818560208601610794565b6107ec81610528565b840191505092915050565b60008115159050919050565b61080c816107f7565b82525050565b6000606082019050818103600083015261082c81866107be565b9050818103602083015261084081856107be565b905061084f6040830184610803565b949350505050565b610860816107f7565b811461086b57600080fd5b50565b60008135905061087d81610857565b92915050565b6000806040838503121561089a576108996104b6565b5b60006108a885828601610509565b92505060206108b98582860161086e565b9150509250929050565b7f4e487b7100000000000000000000000000000000000000000000000000000000600052602260045260246000fd5b6000600282049050600182168061090a57607f821691505b60208210810361091d5761091c6108c3565b5b50919050565b60008190508160005260206000209050919050565b60006020601f8301049050919050565b600082821b905092915050565b6000600883026109857fffffffffffffffffffffffffffffffffffffffffffffffffffffffffffffffff82610948565b61098f8683610948565b95508019841693508086168417925050509392505050565b6000819050919050565b6000819050919050565b60006109d66109d16109cc846109a7565b6109b1565b6109a7565b9050919050565b6000819050919050565b6109f0836109bb565b610a046109fc826109dd565b848454610955565b825550505050565b600090565b610a19610a0c565b610a248184846109e7565b505050565b5b81811015610a4857610a3d600082610a11565b600181019050610a2a565b5050565b601f821115610a8d57610a5e81610923565b610a6784610938565b81016020851015610a76578190505b610a8a610a8285610938565b830182610a29565b50505b505050565b600082821c905092915050565b6000610ab060001984600802610a92565b1980831691505092915050565b6000610ac98383610a9f565b9150826002028217905092915050565b610ae282610778565b67ffffffffffffffff811115610afb57610afa610539565b5b610b0582546108f2565b610b10828285610a4c565b600060209050601f831160018114610b435760008415610b31578287015190505b610b3b8582610abd565b865550610ba3565b601f198416610b5186610923565b60005b82811015610b7957848901518255600182019150602085019450602081019050610b54565b86831015610b965784890151610b92601f891682610a9f565b8355505b6001600288020188555050505b50505050505056fea26469706673582212207bf5d36dbc40eb08c15e12f17ee98b0cdcf1919361596c4f3f4f729733d5467664736f6c63430008110033",
  "linkReferences": {},
  "deployedLinkReferences": {}
}