{
  "_format": "hh-sol-artifact-1",
  "contractName": "Role",
  "sourceName": "contracts/Role.sol",
  "abi": [
    {
      "inputs": [
        {
          "internalType": "address",
          "name": "_addr",
          "type": "address"
        },
        {
          "internalType": "bool",
          "name": "_hasAccess",
          "type": "bool"
        }
      ],
      "name": "changeAccess",
      "outputs": [],
      "stateMutability": "nonpayable",
      "type": "function"
    },
    {
      "inputs": [
        {
          "internalType": "address",
          "name": "_addr",
          "type": "address"
        },
        {
          "internalType": "string",
          "name": "_name",
          "type": "string"
        }
      ],
      "name": "changeName",
      "outputs": [],
      "stateMutability": "nonpayable",
      "type": "function"
    },
    {
      "inputs": [
        {
          "internalType": "address",
          "name": "_addr",
          "type": "address"
        },
        {
          "internalType": "string",
          "name": "role",
          "type": "string"
        }
      ],
      "name": "changeRole",
      "outputs": [],
      "stateMutability": "nonpayable",
      "type": "function"
    },
    {
      "inputs": [
        {
          "internalType": "address",
          "name": "_addr",
          "type": "address"
        }
      ],
      "name": "getUser",
      "outputs": [
        {
          "internalType": "string",
          "name": "",
          "type": "string"
        },
        {
          "internalType": "string",
          "name": "",
          "type": "string"
        },
        {
          "internalType": "bool",
          "name": "",
          "type": "bool"
        }
      ],
      "stateMutability": "view",
      "type": "function"
    },
    {
      "inputs": [],
      "name": "sayHello",
      "outputs": [
        {
          "internalType": "string",
          "name": "",
          "type": "string"
        }
      ],
      "stateMutability": "pure",
      "type": "function"
    },
    {
      "inputs": [
        {
          "internalType": "address",
          "name": "_addr",
          "type": "address"
        },
        {
          "internalType": "string",
          "name": "_role",
          "type": "string"
        },
        {
          "internalType": "string",
          "name": "_name",
          "type": "string"
        }
      ],
      "name": "setUser",
      "outputs": [],
      "stateMutability": "nonpayable",
      "type": "function"
    }
  ],
  "bytecode": "0x608060405234801561001057600080fd5b50610c69806100206000396000f3fe608060405234801561001057600080fd5b50600436106100625760003560e01c806345ca25ed1461006757806368f43a59146100835780636f77926b1461009f578063b5b94ea5146100d1578063ec618a53146100ed578063ef5fb05b14610109575b600080fd5b610081600480360381019061007c91906106ca565b610127565b005b61009d60048036038101906100989190610726565b61017a565b005b6100b960048036038101906100b491906107b1565b61022a565b6040516100c893929190610878565b60405180910390f35b6100eb60048036038101906100e691906106ca565b610425565b005b610107600480360381019061010291906108e9565b610478565b005b6101116104d5565b60405161011e9190610929565b60405180910390f35b806000808473ffffffffffffffffffffffffffffffffffffffff1673ffffffffffffffffffffffffffffffffffffffff16815260200190815260200160002060000190816101759190610b61565b505050565b6040518060600160405280828152602001838152602001600115158152506000808573ffffffffffffffffffffffffffffffffffffffff1673ffffffffffffffffffffffffffffffffffffffff16815260200190815260200160002060008201518160000190816101eb9190610b61565b5060208201518160010190816102019190610b61565b5060408201518160020160006101000a81548160ff021916908315150217905550905050505050565b60608060008060008573ffffffffffffffffffffffffffffffffffffffff1673ffffffffffffffffffffffffffffffffffffffff1681526020019081526020016000206001016000808673ffffffffffffffffffffffffffffffffffffffff1673ffffffffffffffffffffffffffffffffffffffff1681526020019081526020016000206000016000808773ffffffffffffffffffffffffffffffffffffffff1673ffffffffffffffffffffffffffffffffffffffff16815260200190815260200160002060020160009054906101000a900460ff1682805461030c9061097a565b80601f01602080910402602001604051908101604052809291908181526020018280546103389061097a565b80156103855780601f1061035a57610100808354040283529160200191610385565b820191906000526020600020905b81548152906001019060200180831161036857829003601f168201915b505050505092508180546103989061097a565b80601f01602080910402602001604051908101604052809291908181526020018280546103c49061097a565b80156104115780601f106103e657610100808354040283529160200191610411565b820191906000526020600020905b8154815290600101906020018083116103f457829003601f168201915b505050505091509250925092509193909250565b806000808473ffffffffffffffffffffffffffffffffffffffff1673ffffffffffffffffffffffffffffffffffffffff16815260200190815260200160002060010190816104739190610b61565b505050565b806000808473ffffffffffffffffffffffffffffffffffffffff1673ffffffffffffffffffffffffffffffffffffffff16815260200190815260200160002060020160006101000a81548160ff0219169083151502179055505050565b60606040518060400160405280600a81526020017f42696b6173682053616800000000000000000000000000000000000000000000815250905090565b6000604051905090565b600080fd5b600080fd5b600073ffffffffffffffffffffffffffffffffffffffff82169050919050565b600061055182610526565b9050919050565b61056181610546565b811461056c57600080fd5b50565b60008135905061057e81610558565b92915050565b600080fd5b600080fd5b6000601f19601f8301169050919050565b7f4e487b7100000000000000000000000000000000000000000000000000000000600052604160045260246000fd5b6105d78261058e565b810181811067ffffffffffffffff821117156105f6576105f561059f565b5b80604052505050565b6000610609610512565b905061061582826105ce565b919050565b600067ffffffffffffffff8211156106355761063461059f565b5b61063e8261058e565b9050602081019050919050565b82818337600083830152505050565b600061066d6106688461061a565b6105ff565b90508281526020810184848401111561068957610688610589565b5b61069484828561064b565b509392505050565b600082601f8301126106b1576106b0610584565b5b81356106c184826020860161065a565b91505092915050565b600080604083850312156106e1576106e061051c565b5b60006106ef8582860161056f565b925050602083013567ffffffffffffffff8111156107105761070f610521565b5b61071c8582860161069c565b9150509250929050565b60008060006060848603121561073f5761073e61051c565b5b600061074d8682870161056f565b935050602084013567ffffffffffffffff81111561076e5761076d610521565b5b61077a8682870161069c565b925050604084013567ffffffffffffffff81111561079b5761079a610521565b5b6107a78682870161069c565b9150509250925092565b6000602082840312156107c7576107c661051c565b5b60006107d58482850161056f565b91505092915050565b600081519050919050565b600082825260208201905092915050565b60005b838110156108185780820151818401526020810190506107fd565b60008484015250505050565b600061082f826107de565b61083981856107e9565b93506108498185602086016107fa565b6108528161058e565b840191505092915050565b60008115159050919050565b6108728161085d565b82525050565b600060608201905081810360008301526108928186610824565b905081810360208301526108a68185610824565b90506108b56040830184610869565b949350505050565b6108c68161085d565b81146108d157600080fd5b50565b6000813590506108e3816108bd565b92915050565b60008060408385031215610900576108ff61051c565b5b600061090e8582860161056f565b925050602061091f858286016108d4565b9150509250929050565b600060208201905081810360008301526109438184610824565b905092915050565b7f4e487b7100000000000000000000000000000000000000000000000000000000600052602260045260246000fd5b6000600282049050600182168061099257607f821691505b6020821081036109a5576109a461094b565b5b50919050565b60008190508160005260206000209050919050565b60006020601f8301049050919050565b600082821b905092915050565b600060088302610a0d7fffffffffffffffffffffffffffffffffffffffffffffffffffffffffffffffff826109d0565b610a1786836109d0565b95508019841693508086168417925050509392505050565b6000819050919050565b6000819050919050565b6000610a5e610a59610a5484610a2f565b610a39565b610a2f565b9050919050565b6000819050919050565b610a7883610a43565b610a8c610a8482610a65565b8484546109dd565b825550505050565b600090565b610aa1610a94565b610aac818484610a6f565b505050565b5b81811015610ad057610ac5600082610a99565b600181019050610ab2565b5050565b601f821115610b1557610ae6816109ab565b610aef846109c0565b81016020851015610afe578190505b610b12610b0a856109c0565b830182610ab1565b50505b505050565b600082821c905092915050565b6000610b3860001984600802610b1a565b1980831691505092915050565b6000610b518383610b27565b9150826002028217905092915050565b610b6a826107de565b67ffffffffffffffff811115610b8357610b8261059f565b5b610b8d825461097a565b610b98828285610ad4565b600060209050601f831160018114610bcb5760008415610bb9578287015190505b610bc38582610b45565b865550610c2b565b601f198416610bd9866109ab565b60005b82811015610c0157848901518255600182019150602085019450602081019050610bdc565b86831015610c1e5784890151610c1a601f891682610b27565b8355505b6001600288020188555050505b50505050505056fea2646970667358221220366f1932e0ef081e81582ec80f223f77a06ae12c4a668082db422a363b2341b764736f6c63430008110033",
  "linkReferences": {},
  "deployedLinkReferences": {}
}