{
  "_format": "hh-sol-artifact-1",
  "contractName": "Role",
  "sourceName": "contracts/Role.sol",
  "abi": [
    {
      "inputs": [
        {
          "internalType": "address",
          "name": "_addr",
          "type": "address"
        }
      ],
      "name": "changeAccess",
      "outputs": [],
      "stateMutability": "nonpayable",
      "type": "function"
    },
    {
      "inputs": [
        {
          "internalType": "address",
          "name": "_addr",
          "type": "address"
        },
        {
          "internalType": "string",
          "name": "_name",
          "type": "string"
        }
      ],
      "name": "changeName",
      "outputs": [],
      "stateMutability": "nonpayable",
      "type": "function"
    },
    {
      "inputs": [
        {
          "internalType": "address",
          "name": "_addr",
          "type": "address"
        },
        {
          "internalType": "string",
          "name": "role",
          "type": "string"
        }
      ],
      "name": "changeRole",
      "outputs": [],
      "stateMutability": "nonpayable",
      "type": "function"
    },
    {
      "inputs": [],
      "name": "getAllUsers",
      "outputs": [
        {
          "components": [
            {
              "internalType": "string",
              "name": "name",
              "type": "string"
            },
            {
              "internalType": "string",
              "name": "role",
              "type": "string"
            },
            {
              "internalType": "bool",
              "name": "hasAccess",
              "type": "bool"
            },
            {
              "internalType": "address",
              "name": "addr",
              "type": "address"
            }
          ],
          "internalType": "struct Role.User[]",
          "name": "",
          "type": "tuple[]"
        }
      ],
      "stateMutability": "view",
      "type": "function"
    },
    {
      "inputs": [
        {
          "internalType": "address",
          "name": "_addr",
          "type": "address"
        }
      ],
      "name": "getUser",
      "outputs": [
        {
          "internalType": "string",
          "name": "",
          "type": "string"
        },
        {
          "internalType": "string",
          "name": "",
          "type": "string"
        },
        {
          "internalType": "bool",
          "name": "",
          "type": "bool"
        }
      ],
      "stateMutability": "view",
      "type": "function"
    },
    {
      "inputs": [
        {
          "internalType": "address",
          "name": "_addr",
          "type": "address"
        },
        {
          "internalType": "string",
          "name": "_role",
          "type": "string"
        },
        {
          "internalType": "string",
          "name": "_name",
          "type": "string"
        }
      ],
      "name": "setUser",
      "outputs": [],
      "stateMutability": "nonpayable",
      "type": "function"
    }
  ],
  "bytecode": "0x608060405234801561001057600080fd5b50611212806100206000396000f3fe608060405234801561001057600080fd5b50600436106100625760003560e01c806345ca25ed1461006757806368f43a59146100835780636f77926b1461009f578063b5b94ea5146100d1578063e2842d79146100ed578063f403688a1461010b575b600080fd5b610081600480360381019061007c9190610aa5565b610127565b005b61009d60048036038101906100989190610b01565b61017a565b005b6100b960048036038101906100b49190610b8c565b6102f0565b6040516100c893929190610c53565b60405180910390f35b6100eb60048036038101906100e69190610aa5565b6104eb565b005b6100f561053e565b6040516101029190610e2c565b60405180910390f35b61012560048036038101906101209190610b8c565b610802565b005b806000808473ffffffffffffffffffffffffffffffffffffffff1673ffffffffffffffffffffffffffffffffffffffff16815260200190815260200160002060000190816101759190611064565b505050565b60405180608001604052808281526020018381526020016001151581526020018473ffffffffffffffffffffffffffffffffffffffff168152506000808573ffffffffffffffffffffffffffffffffffffffff1673ffffffffffffffffffffffffffffffffffffffff16815260200190815260200160002060008201518160000190816102079190611064565b50602082015181600101908161021d9190611064565b5060408201518160020160006101000a81548160ff02191690831515021790555060608201518160020160016101000a81548173ffffffffffffffffffffffffffffffffffffffff021916908373ffffffffffffffffffffffffffffffffffffffff1602179055509050506001839080600181540180825580915050600190039060005260206000200160009091909190916101000a81548173ffffffffffffffffffffffffffffffffffffffff021916908373ffffffffffffffffffffffffffffffffffffffff160217905550505050565b60608060008060008573ffffffffffffffffffffffffffffffffffffffff1673ffffffffffffffffffffffffffffffffffffffff1681526020019081526020016000206001016000808673ffffffffffffffffffffffffffffffffffffffff1673ffffffffffffffffffffffffffffffffffffffff1681526020019081526020016000206000016000808773ffffffffffffffffffffffffffffffffffffffff1673ffffffffffffffffffffffffffffffffffffffff16815260200190815260200160002060020160009054906101000a900460ff168280546103d290610e7d565b80601f01602080910402602001604051908101604052809291908181526020018280546103fe90610e7d565b801561044b5780601f106104205761010080835404028352916020019161044b565b820191906000526020600020905b81548152906001019060200180831161042e57829003601f168201915b5050505050925081805461045e90610e7d565b80601f016020809104026020016040519081016040528092919081815260200182805461048a90610e7d565b80156104d75780601f106104ac576101008083540402835291602001916104d7565b820191906000526020600020905b8154815290600101906020018083116104ba57829003601f168201915b505050505091509250925092509193909250565b806000808473ffffffffffffffffffffffffffffffffffffffff1673ffffffffffffffffffffffffffffffffffffffff16815260200190815260200160002060010190816105399190611064565b505050565b6060600060018054905067ffffffffffffffff8111156105615761056061097a565b5b60405190808252806020026020018201604052801561059a57816020015b6105876108ad565b81526020019060019003908161057f5790505b50905060005b6001805490508110156107fa57600080600183815481106105c4576105c3611136565b5b9060005260206000200160009054906101000a900473ffffffffffffffffffffffffffffffffffffffff1673ffffffffffffffffffffffffffffffffffffffff1673ffffffffffffffffffffffffffffffffffffffff16815260200190815260200160002060405180608001604052908160008201805461064490610e7d565b80601f016020809104026020016040519081016040528092919081815260200182805461067090610e7d565b80156106bd5780601f10610692576101008083540402835291602001916106bd565b820191906000526020600020905b8154815290600101906020018083116106a057829003601f168201915b505050505081526020016001820180546106d690610e7d565b80601f016020809104026020016040519081016040528092919081815260200182805461070290610e7d565b801561074f5780601f106107245761010080835404028352916020019161074f565b820191906000526020600020905b81548152906001019060200180831161073257829003601f168201915b505050505081526020016002820160009054906101000a900460ff161515151581526020016002820160019054906101000a900473ffffffffffffffffffffffffffffffffffffffff1673ffffffffffffffffffffffffffffffffffffffff1673ffffffffffffffffffffffffffffffffffffffff16815250508282815181106107dc576107db611136565b5b602002602001018190525080806107f290611194565b9150506105a0565b508091505090565b6000808273ffffffffffffffffffffffffffffffffffffffff1673ffffffffffffffffffffffffffffffffffffffff16815260200190815260200160002060020160009054906101000a900460ff16156000808373ffffffffffffffffffffffffffffffffffffffff1673ffffffffffffffffffffffffffffffffffffffff16815260200190815260200160002060020160006101000a81548160ff02191690831515021790555050565b60405180608001604052806060815260200160608152602001600015158152602001600073ffffffffffffffffffffffffffffffffffffffff1681525090565b6000604051905090565b600080fd5b600080fd5b600073ffffffffffffffffffffffffffffffffffffffff82169050919050565b600061092c82610901565b9050919050565b61093c81610921565b811461094757600080fd5b50565b60008135905061095981610933565b92915050565b600080fd5b600080fd5b6000601f19601f8301169050919050565b7f4e487b7100000000000000000000000000000000000000000000000000000000600052604160045260246000fd5b6109b282610969565b810181811067ffffffffffffffff821117156109d1576109d061097a565b5b80604052505050565b60006109e46108ed565b90506109f082826109a9565b919050565b600067ffffffffffffffff821115610a1057610a0f61097a565b5b610a1982610969565b9050602081019050919050565b82818337600083830152505050565b6000610a48610a43846109f5565b6109da565b905082815260208101848484011115610a6457610a63610964565b5b610a6f848285610a26565b509392505050565b600082601f830112610a8c57610a8b61095f565b5b8135610a9c848260208601610a35565b91505092915050565b60008060408385031215610abc57610abb6108f7565b5b6000610aca8582860161094a565b925050602083013567ffffffffffffffff811115610aeb57610aea6108fc565b5b610af785828601610a77565b9150509250929050565b600080600060608486031215610b1a57610b196108f7565b5b6000610b288682870161094a565b935050602084013567ffffffffffffffff811115610b4957610b486108fc565b5b610b5586828701610a77565b925050604084013567ffffffffffffffff811115610b7657610b756108fc565b5b610b8286828701610a77565b9150509250925092565b600060208284031215610ba257610ba16108f7565b5b6000610bb08482850161094a565b91505092915050565b600081519050919050565b600082825260208201905092915050565b60005b83811015610bf3578082015181840152602081019050610bd8565b60008484015250505050565b6000610c0a82610bb9565b610c148185610bc4565b9350610c24818560208601610bd5565b610c2d81610969565b840191505092915050565b60008115159050919050565b610c4d81610c38565b82525050565b60006060820190508181036000830152610c6d8186610bff565b90508181036020830152610c818185610bff565b9050610c906040830184610c44565b949350505050565b600081519050919050565b600082825260208201905092915050565b6000819050602082019050919050565b600082825260208201905092915050565b6000610ce082610bb9565b610cea8185610cc4565b9350610cfa818560208601610bd5565b610d0381610969565b840191505092915050565b610d1781610c38565b82525050565b610d2681610921565b82525050565b60006080830160008301518482036000860152610d498282610cd5565b91505060208301518482036020860152610d638282610cd5565b9150506040830151610d786040860182610d0e565b506060830151610d8b6060860182610d1d565b508091505092915050565b6000610da28383610d2c565b905092915050565b6000602082019050919050565b6000610dc282610c98565b610dcc8185610ca3565b935083602082028501610dde85610cb4565b8060005b85811015610e1a5784840389528151610dfb8582610d96565b9450610e0683610daa565b925060208a01995050600181019050610de2565b50829750879550505050505092915050565b60006020820190508181036000830152610e468184610db7565b905092915050565b7f4e487b7100000000000000000000000000000000000000000000000000000000600052602260045260246000fd5b60006002820490506001821680610e9557607f821691505b602082108103610ea857610ea7610e4e565b5b50919050565b60008190508160005260206000209050919050565b60006020601f8301049050919050565b600082821b905092915050565b600060088302610f107fffffffffffffffffffffffffffffffffffffffffffffffffffffffffffffffff82610ed3565b610f1a8683610ed3565b95508019841693508086168417925050509392505050565b6000819050919050565b6000819050919050565b6000610f61610f5c610f5784610f32565b610f3c565b610f32565b9050919050565b6000819050919050565b610f7b83610f46565b610f8f610f8782610f68565b848454610ee0565b825550505050565b600090565b610fa4610f97565b610faf818484610f72565b505050565b5b81811015610fd357610fc8600082610f9c565b600181019050610fb5565b5050565b601f82111561101857610fe981610eae565b610ff284610ec3565b81016020851015611001578190505b61101561100d85610ec3565b830182610fb4565b50505b505050565b600082821c905092915050565b600061103b6000198460080261101d565b1980831691505092915050565b6000611054838361102a565b9150826002028217905092915050565b61106d82610bb9565b67ffffffffffffffff8111156110865761108561097a565b5b6110908254610e7d565b61109b828285610fd7565b600060209050601f8311600181146110ce57600084156110bc578287015190505b6110c68582611048565b86555061112e565b601f1984166110dc86610eae565b60005b82811015611104578489015182556001820191506020850194506020810190506110df565b86831015611121578489015161111d601f89168261102a565b8355505b6001600288020188555050505b505050505050565b7f4e487b7100000000000000000000000000000000000000000000000000000000600052603260045260246000fd5b7f4e487b7100000000000000000000000000000000000000000000000000000000600052601160045260246000fd5b600061119f82610f32565b91507fffffffffffffffffffffffffffffffffffffffffffffffffffffffffffffffff82036111d1576111d0611165565b5b60018201905091905056fea264697066735822122017e2defc3727701284e6bee90bab8e8d0e73f3a271f442fe254398f18cbe7b8964736f6c63430008110033",
  "linkReferences": {},
  "deployedLinkReferences": {}
}